:020000040800F2:10000000901500203D3100081D0A00081F0A000855:10001000210A0008230A0008250A00080000000041:10002000000000000000000000000000270A000897:10003000290A0008000000002B0A00082D0A000809:100040005731000857310008573100085731000870:100050005731000857310008573100085731000860:100060005731000857310008573100085731000850:100070005731000857310008573100085731000840:1000800057310008573100085731000800000000C0:1000900000000000000000000000000057310008D0:1000A0005731000857310008573100085731000810:1000B000573100085731000857310008750F000804:1000C000573100086B1000085731000857310008FD:1000D00057310008BD1300084914000857310008C3:1000E0005731000857310008573100080000000060:1000F0000000000000000000000000000000000000:1001000000000000000000000000000000000000EF:1001100000000000000000005731000857310008BF:1001200000F002F800F03CF80AA090E8000C8244CD:100130008344AAF10107DA4501D100F031F8AFF2AA:10014000090EBAE80F0013F0010F18BFFB1A43F0B5:1001500001031847E43E0000043F0000103A24BFAA:1001600078C878C1FAD8520724BF30C830C144BF1C:1001700004680C607047000000230024002500265E:10018000103A28BF78C1FBD8520728BF30C148BFFA:100190000B6070471FB503F0A4FD1FBD10B510BD67:1001A00003F0AFF81146FFF7F5FF00F010F803F089:1001B000CDF803B4FFF7F2FF03BC03F0D5F800005D:1001C00010B507F062F9002010BD0020704710B58F:1001D00000F0CCFB7D2001F0A2FF08B102F0B4F8E2:1001E000012002F025F8612001F099FF0028FAD0E3:1001F00045F2555007F040F9032007F040F94FF45D:100200009C7007F03FF907F040F907F043F900F060:10021000FEFA00F083FA012808D10121104C0020D9:10022000A0474FF4C871204600F020FB00F0F7F91A:100230000C490D4800F01AFB49F640410B4800F00C:1002400015FB00210A4800F011FB0021094800F0CD:100250000DFB00F050FB00F064FB002010BD00001F:1002600001500008803801002B080008CB0100086D:1002700059060008C101000870B588B005460C4653:100280002022FA49684602F0BEFF00206E4612E0C6:10029000030B000515F8011B020C83EA111036F858:1002A00010005040020B0005030C01F00F005040FD:1002B00036F8100058402100A4F10104A4B2E7D19F:1002C00008B070BDF0B50346ADF5007D10460022C4:1002D0006C4603E08D5CA554521C92B28242F9D365:1002E0007D2523B1012B23D10022134631E00022CA:1002F00013461BE0A65C7E2E02D07D2E0BD010E0B4:100300007AB1471EBB420CD0CD545B1C401C9BB243:1003100080B25E2605E0CD545B1C401C9BB280B2CF:100320005D26521CCE545B1C92B29BB28342E1D339:100330000DF5007DF0BDA75C7D2F05D1A618767860:100340005E2E09D05D2E0AD0CF54521C5B1C92B297:100350009BB28342EFD3EBE77E26CE5400E0CD5430:10036000521C401E92B280B2EFE738B5054600221B:10037000694600F0D7FF00987E240921047041707F:10038000BB490622097881706321C1700021017187:100390004271B84A12888271120AC27101724172A6:1003A0008172C1720B21401CFFF766FF00990F227A:1003B0000873000A48738C730020FFF783FF01461F:1003C000284601F086F838BD38B505460022694652:1003D00000F0A8FF00987E24092104704170A44910:1003E0000622097881706021C1700021017142717B:1003F0008171C171017241728172C1720B21401C05:10040000FFF73AFF00990F220873000A48738C73B4:100410000020FFF757FF0146284601F05AF838BD83:100420002DE9F04F8BB0834601AA694600F07AFFB0:10043000BDF80420062A17D9009908787E2813D120:10044000881810F8010C7E280ED10C460120FFF709:1004500039FF874AADF80400A1781278914206D09E:1004600029B1584600F029FF0BB0BDE8F08F0027F6:10047000277161780122B9B1092903D0062913D067:10048000227198E0009A1118001F11F8033D497875:1004900003EB01218DB281B2501CFFF7EDFEA842A3:1004A00002D00220207186E06079BDF80410093086:1004B0004FF0060A884202D084F804A07BE0A01D19:1004C0000890E078099060790A9009A8029008A83D:1004D00003900AA80490E378DFF89C910726674808:1004E0006749644AF12B11D006DC612B0ED0622BD8:1004F00011D0632B04D12AE0F22B11D0F32B40D082:10050000604A032102A89047C0B248E0A9F80070F1:1005100001F0CCF843E06179A01D00F0B7F83EE0AF:1005200094F80580A51D4146284600F0F3FF0128F8:1005300035D1B9F8002002EB0800A9F800002870B6:10054000000A6870AF70EF702F716F7129E000784A:100550000978E588884223D148494B48091F00782B:10056000097800F0F00001F0F001884218D11088FD:10057000A84216D000F018F9A84211D101F0D4F821:100580000DE000780978E588884209D11088A842F2:1005900007D000F009F9A84202D101F083F800B9B0:1005A0002671E078622801D0F22804D184F805A0F1:1005B0000F20ADF80400BDF80400001F81B20098C0:1005C000401CFFF759FEBDF8043000997E220B4411:1005D00003F8012CBDF80430020A0B4403F8022C86:1005E000BDF804200A4402F8030CBDF804200020E2:1005F000FFF768FEADF804004FF0804405A92046DF:1006000000F0CEFBC82205A9204600F0CFFB012850:10061000F8D1BDF80410584600F05BFF24E710B590:10062000002000F03BFE012000F038FE00F0D9F879:10063000012805D10020FFF7C7FE0120FFF7C4FE07:1006400000F0BFF8012806D10020FFF78EFEBDE8BC:100650001040012089E610BD10B50020FFF7E0FE34:100660000120FFF7DDFE002010BD0000F03D000876:10067000020000200400002000000020F8DF000835:10068000F85F000801500008F45F000870B5114ED3:1006900004460D4630880144B1F5E04F02D9C0F55B:1006A000E04085B23DB12946204600F033FF0146C7:1006B000012802D00CE0002070BD30882844308032:1006C0002070000A60700020A070E07020716071DE:1006D000084670BD00000020F0B55A4901235A4A6F:1006E0005A4D1C46084617680668BE4200D00023D3:1006F000001D121DA842F6D355480A680668B2428A:1007000000D00024091D001DA942F6D3012B03D0FF:10071000012C01D00020F0BD0120F0BD10B54A48E9:100720004C4A0168491C02D1001D9042F9D3904205:1007300002D100F0F1FF0BE047484078122801D0C9:10074000012010BDFFF7C8FF0028FAD100F0E8FF34:1007500000F06DF8414A00214FF0006010F8013BB5:100760009042194489B2F9D3A1F5004188B270478B:100770003A4B10B5344A0020194611F8014B91420A:10078000204480B2F9D3364A12F8011B9A42084439:1007900080B2F9D3A0F5004080B210BD4FF4E04123:1007A0004FF00060FFF768BD4FF4E0412B48FFF7C2:1007B00063BD2949122001224870491CFF2000F026:1007C0006BBA254810B541780024122907D11121B0:1007D00041700124411C2246FF2000F05DFA2046B2:1007E00010BD38B51C480478012C07D100218DF8C4:1007F000001001226946FE2000F04EFA204638BD66:100800001549012002460870FE2000F045BA124941:1008100010B50122491CFF2000F071FA0122BDE849:1008200010400D49FE2000F06ABA002070470D48C4:1008300001680D4A01F4E06141EA02010160BFF381:10084000408FFEE70050000800F00008006000083C:1008500000D0000800000108060000200080000809:10086000007000080CED00E00400FA0530B43D4CC7:1008700023780A2B11D23C4A03EB830502EB850255:100880001569002D09D1C2E903105B1C237030BC2F:1008900011464FF0804000F083BA30BC7047F0B58D:1008A000DFF8C0C09CF80010491E092922D8002199:1008B000DFF8B4E01AE001EB81020EEB820214696A:1008C000844211D103EB83040EEB8404A4F11404DD:1008D000A3F10103E568D56094E8E00082E8E00058:1008E000246914618CF80030491CC9B29CF80030AE:1008F0009942E0D3F0BD2DE9F04100241A4D4FF0AC:100900008047184E08E004EB840005EB8001384670:1009100000F046FA641CE4B230788442F3D3BDE8B8:10092000F081DFF844800F4E4FF08047002415E03F:1009300004EB840108EB8105286968B12946384633:10094000EA6800F033FA38B12946384600F028FA50:1009500000212A6908469047641CE4B2307884423A:10096000E4D2E5E7080000202C040020F8B50020C0:1009700001F02FFC0121264801F0C1FC012144F2C5:100980001D2001F0B3FC4FF4E06000F0EFFE2520E5:100990008DF8000001248DF802408DF80340684670:1009A00000F0E9FE26208DF800008DF802408DF859:1009B0000340684600F0DFFE0121164801F0A2F96D:1009C0000024154E022706EB04156946A888ADF8E9:1009D00000008DF80270287B8DF80300286801F074:1009E00006F9A86810B1012101F08CF9641C212CD2:1009F000E9D300F00DFA002000F0AAFC012000F07D:100A0000A7FC00F0ADFBBDE8F84000F0ABB900007A:100A10000100220000023000283E00087047FEE777:100A2000FEE7FEE7FEE7704770477047704700003B:100A30002748016841F0010101604168254A1140E1:100A400041600168244A11400160016821F480215D:100A50000160416821F4FE0141604FF41F01816093:100A60000021C1621D49C0030860704730B5184AB3:100A700050681B4B1B4910F00C0004D01A4C042882:100A800003D0082803D00B6017E00C6015E0506815:100A9000536800F470104FF0020513F4803F05EB2B:100AA000904007D0D36A03F00F035B1CB4FBF3F351:100AB0004343E8E70D4B584308605068094AC0F3C8:100AC0000310121D105C0A68C2400A6030BD0000AD:100AD000001002400000FFF8FFFFF6FE08ED00E006:100AE00000127A000C000020001BB70000093D0036:100AF00058B101280BD002280BD003280BD1524843:100B0000012A00D0002201F0E0B85048F8E7504830:100B1000F6E75048F4E7704710B504464A788088F5:100B2000E188EAB1012A0FD0022AC0B24FF00002D8:100B300006D0FFF7DDFF20886188C0B2012211E0F6:100B4000FFF7D6FF618820880022C0B2FFF7D0FFF0:100B5000782002F011FC20886188C0B201220AE0EE:100B6000C0B20022FFF7C4FF782002F005FC208805:100B70006188C0B20022BDE81040B9E72DE9F0411C:100B8000904604460E46FFF7C7FF002529E032785D:100B90007068012A05D0A84018EA000F03D0012789:100BA00002E0E840F8E70027782002F0E5FB208922:100BB0006189C0B23A46FFF79BFF782002F0DCFB68:100BC000A088E188C0B20122FFF792FF782002F0EE:100BD000D3FBA088E188C0B20022FFF789FF6D1C1B:100BE000EDB2B078A842D2D8F02002F0C5FB314671:100BF000204600F003F80120BDE8F08110B504465E:100C00004A7800886188AAB1012A09D0022A02D054:100C1000C0B2012201E0C0B20022BDE8104067E787:100C2000C0B20022FFF764FF282002F0A5FB618814:100C30002088EDE7C0B20122FFF75AFF282002F01A:100C40009BFB61882088E6E7001401400008014012:100C5000000C0140001001401CB506228DF8022056:100C600001228DF8002000228DF80120202201921F:100C7000084A824202D00C32824205D1A1F10E0212:100C80000A2A01D8491CC9B20A466946FFF776FF0D:100C90001CBD0000283E00082DE9FE43074688469B:100CA000164600244FF47A791EE03819010A8DF8AF:100CB00008108DF8090000F03F00C0F14005301B1E:100CC000A84200D20546E9B208EB0400CDE90001D4:100CD000022302AAA021124800F03AFA002848464E:100CE0000AD002F049FB2C44B442DED30120B442C6:100CF00000D00020BDE8FE8302F03EFBF6E70EB513:100D0000030A8DF808308DF80900D0B2CDE9001043:100D1000022302AAA021024800F001FA0EBD000041:100D20000054004000F0CEB81FB500208DF80C0034:100D3000022102A8CDE90001012303AA902108485D:100D400000F0EDF99DF80800000201B29DF80900DD:100D500004B00843C11700EB5160C01110BD000082:100D6000005400403EB54FF6FF70ADF80400274830:100D700049F640414FF080440068B0FBF1F0401E5E:100D8000ADF800000020ADF80600ADF8020069469D:100D9000204601F09BFB0121204601F02FFE3EBDC5:100DA00010B50C4602F015F8A06010BD2DE9F04119:100DB0000C46154602F00DF82189401A81B2012037:100DC000B5F5803F04DAA94200DA0020BDE8F081E1:100DD00062684FF6FF76130C1B04636027780022CD:100DE00047B1B1420CD2A1F57F40FE3800D122704C:100DF0000B4304E0B14203D1207003F580336360FC:100E0000AB42E2D301206260E0E700000C0000206A:100E100010B586B000214FF46020CDE902018DF8B5:100E2000041001204D4C00918DF805108DF8100034:100E30006946204600F00EFD0121204600F032FDFB:100E4000204600F04CFD204600F04EFD0028FAD16F:100E5000204600F050FD204600F052FD0028FAD157:100E600006B010BD2DE9F0410F004FF0000510D085:100E7000DFF8E8800146022301224446404600F0A4:100E800069FD0121204600F042FD00244FF4FA667E:100E900006E02846BDE8F081641CA4B2B44205D245:100EA0000221404600F024FE0028F5D0B44204D0D0:100EB000404600F093FD388001250021404600F0B7:100EC00026FDE6E770B5254E0723012210213046A6:100ED00000F040FD012000F0FFFD0121304600F050:100EE00016FD00244FF4FA6503E0641CA4B2AC4282:100EF00005D20221304600F0FBFD0028F5D0AC42BF:100F00001DD0304600F06AFD02F082FC4FF06632E0:100F1000134B02F091FC6FF00B0202F020FF114A1C:100F2000114B02F087FD0022104B02F019FB00224A:100F30000F4B02F065FA02F031FA044600E000249B:100F40000021304600F0E3FC002000F0C5FD204603:100F500002F066FE400000B270BD000000240140B7:100F600066660A408FC2F5285C8FF63F00CCB04021:100F7000000039402DE9F041BC4D284601F069F8E8:100F8000BB4F0022C11BBB4EBB4C4FEA7733B8426C:100F90002DD008DC102835D0B0F5806F5FD0B0F1CF:100FA000021F08D120E0A1F5802140393FD002295D:100FB0003CD004293BD0228062801946284601F0AB:100FC00061F80021284600F090FF3146284601F0E4:100FD0006AF84FF00121284601F065F8A749284634:100FE00001F061F8A6493BE02280BDE8F081284687:100FF00000F0B5FF2188A34BC1F30802491C9854A7:101000002180F2E71946284601F03CF800212846E5:1010100000F06BFFE568002DE7D02188AC46BDE805:10102000F041954B97481B1D1A1D60476280A168CF:101030000029DAD06088095C401C6080284600F0F6:101040008CFF9149914B0A2209680020B1FBF3F112:10105000514301E0401C80B28142FBD8C5E73146D4:101060002846BDE8F04101F01EB870472DE9FF5F4A:101070004FF0000BDDE90E97DFF814A290461E46F4:101080005D460121009800F026FF8249009800F09B:1010900087F8D8B3DDE90001002200F063FF7C4946:1010A0000098891C00F07CF880B300240BE018F84D:1010B0000410009800F051FF5146009800F070F8BD:1010C00018B1641CE4B2B442F1D3B4421FD100247D:1010D0000BE019F80410009800F03FFF514600980B:1010E00000F05EF818B1641CE4B2BC42F1D3BC421B:1010F0000DD167490098091D00F052F830B1012167:10110000009800F0F2FE4FF0010B04E0FFE76D1CC9:10111000EDB2032DB5D3584604B0BDE8F09F2DE9DC:10112000FC4104460020DDE90867009001900D466F:101130002046FFF79BFF012807D13B463246294650:10114000204600F045F8012800D00020BDE8FC81D1:101150007CB5DDE90645CDE90045FFF787FF7CBD9D:101160001FB5424C204600F01FFE0021ADF80410D0:101170004BF6FF71ADF8061021150801ADF80C0013:101180004548ADF80A1000900121204600F085FE88:101190006946204600F01BFE1FBD3748C1607047FE:1011A0002DE9F04106460F4600244FF47A7503E01E:1011B000641CA4B2AC4205D23946304600F03DFF73:1011C0000028F5D0AC4201D100200EE701200CE749:1011D0002DE9FF5F4FF00009DFF8B8B090461D46DB:1011E0004E460121009800F076FE59460098FFF720:1011F000D7FF80B3DDE90001012200F0B3FE2549ED:101200000098491CFFF7CCFF28B3DFF888A0002422:101210006F1E0AF13F0A17E0012D01D0BC4207D131:101220000021009800F06BFE0121009800F05DFEA7:1012300051460098FFF7B4FF40B1009800F08FFED0:1012400008F80400641CE4B2AC42E5D3AC4203D11C:101250004FF0010904E0FFE7761CF6B2032EC0D37D:101260000121009800F04BFE484655E7005400402D:1012700040000200000400012000002000080001DE:1012800000100001F40400200C00002040420F0078:101290008000070001000300A086010099499A4AD6:1012A00001EB402100EB400042F8201002EB8000EF:1012B000002101818180C180704700EB400292488B:1012C000002100EB820001818180C180704710B550:1012D0008D4C00EB400204EB820054F822208388FE:1012E000D1548188491CC1F3080181800189491CBE:1012F000C1F30801018110BD30B5834C00EB400300:1013000004EB8300018959B1C288D5B2521CC2F3E3:101310000802C280491E018154F82300284430BDD0:10132000002030BD10B5784B00EB400011B153F8F0:1013300020400C60002A03D003EB8000008910805D:1013400010BD714900EB400001EB80000281704745:101350007FB580B301282DD16C4C4FF4165000900E:101360000020ADF80400ADF80600ADF80800ADF8B7:101370000C000C20ADF80A006946204601F076FD0D:1013800040F225552946204601F0C8FE40F2266667:101390003146204601F0C2FE01222946204601F0D6:1013A000E7FD01223146204601F0E2FD0121204601:1013B00001F0D4FD7FBDFFE7554CCEE770B5544D2D:1013C00040F226642146284601F089FE01280ED00D:1013D00040F225542146284601F081FE012816D00E:1013E0000020FFF7B5FFBDE87040002065E721460B:1013F000284601F093FE0020FFF77EFF040005D091:101400002178284601F000FE0020207070BD2146A2:10141000284601F083FEC8223A49D40618392046EE:10142000FFF7C4FC012802D10020FFF746FF354931:1014300020461839FFF7B4FC284601F0E9FDBDE865:101440007040C1B2002042E770B5304D40F22664D2:101450002146284601F043FE01280ED040F22554D3:101460002146284601F03BFE012816D00120FFF757:101470006FFFBDE8704001201FE72146284601F0BC:101480004DFE0120FFF738FF040005D021782846E3:1014900001F0BAFD0020207070BD2146284601F001:1014A0003DFEC8221749D4060C392046FFF77EFCC2:1014B000012801D1FFF701FF124920460C39FFF73F:1014C0006FFC284601F0A4FDBDE87040C1B20120C8:1014D000FDE610B5044600EB44020B4800EB820029:1014E00001810021C1802046FFF706FF002808D0B7:1014F000017824B10548BDE8104001F085BD0448DD:10150000F9E710BD0C0700200C0B00200044004040:10151000003801402DE9F05F0746DFF83482A1F57D:101520007F400D464FF00009FE3804D188F8009046:10153000C8F80490B4E0874CA5F57F40FF3845D14A:1015400005F077FD342005F080FF98F8000004EBEB:10155000802005F0A8FD04286DD198F800102746DA:10156000002504EB81240DE008EB05062046B16858:1015700005F037FE042875D1B0682168884271D122:101580002D1D241DD8F80400C0F30900A842EBD893:10159000D8F80410704ECD190CE00021204605F05B:1015A00020FE04285ED108EB05002168806888428F:1015B00058D12D1DB542F0D305F047FD88F80090B5:1015C000C8F80490FFF7F5F805F074FF37B1002074:1015D0008B464FF40042D8F8049012E00020BDE89A:1015E000F09FC1F3090141443B5C0B72D8F8041031:1015F00000F10100491CC8F80410890501D1834697:1016000009E0A84203D2D8F804109142E9D9D8F8E9:101610000400800544D105F00CFD342005F015FFD1:1016200098F80010264604EB812005F03CFD0428C4:1016300002D0C8F8049015E098F80010002406EBDA:101640008126C2460AEB04083046D8F8081005F097:10165000C8FD042804D1D8F808003168884204D0B5:10166000CAF8049005F0F1FCB8E7241D361DB4F566:10167000806FE7D305F0E9FC9AF800005146401C62:101680008AF80000584609E04B683A5CC3F3090346:101690000B441A724A68521C401C4A60A842F3D399:1016A00001209CE74FF6FF71002033E74FF6FE71F3:1016B00000202FE72DE9F04104460F46164672B68A:1016C00005F0B7FC342005F0C0FE002508E007EB6C:1016D000852005F0E8FC04281DD105F0D6FE6D1C20:1016E000B542F4D33D4604EB86260DE0284621683A:1016F00005F077FD04280ED12068296888420AD1B8:1017000005F0C3FE2D1D241DA642EFD805F09DFC5B:101710000120BDE8F081FEE704220F490F48C9E728:1017200004220E490C48C5E7FFF743F804220B4991:101730000B48FFF7BFFF00F000F80A4801680A4AAB:1017400001F4E06141EA02010160BFF3408FFEE76E:10175000240B00200080000800F000080050000862:1017600000D000080CED00E00400FA05274908430A:1017700027490860704770B50F24C27801780125A9:101780004FF0E026DAB1224A126802F4E062C2F5B4:10179000E062120AC2F10403D44042789A4083788E:1017A000234013431A011B4BCA54007800F01F0159:1017B0008D40400906EB8000C0F8005170BD01F07B:1017C0001F008540480906EB8000C0F8805170BDBD:1017D000114A114001430E48001F016070470C4A36:1017E000121D0029116801D0014300E081431160FE:1017F00070474FF0E0210428086903D020F004006E:101800000861704740F00400FAE700000000FA05A4:101810000CED00E000E400E080FFFF1FC24910B5BE:10182000884202D1012144150AE0C049884202D110:101830000121041504E0BE4988420AD10121CC03EC:10184000204600F065FD2046BDE81040002100F074:101850005FBD10BD10B54268B64B0C791A400B68DD:1018600042EA0422134343608268B34B1A40D1E931:10187000024323434C7942EA440213438360C26A21:10188000097C22F47002491EC9B242EA0151C162C8:1018900010BD00210160017141718160C1600121B1:1018A000017470470029816802D041F0010101E014:1018B00021F00101816070470029816802D041F464:1018C000807101E021F4807181607047002A4268D4:1018D000C9B201D00A4300E08A4342607047816880:1018E00041F00801816070470146002089680907BE:1018F00000D501207047816841F004018160704784:10190000014600208968490700D501207047002959:10191000816802D041F4A00101E021F4A0018160BE:101920007047014600208968490200D501207047B0:101930004268491E22F4604242EA413141607047E8:101940000029416802D041F4006101E021F4006106:101950004160704770B5072609290AD9C568A1F109:101960000A0404EB4404A640B543A3401D43C560EC:1019700007E0056901EB4104A640B543A3401D43C0:1019800005611F23072A09D2446B521E02EB820213:1019900093409C4391400C43446370BD0D2A09D28F:1019A000046BD21F02EB820293409C4391400C4394:1019B000046370BDC46A0D3A02EB820293409C43FB:1019C00091400C43C46270BD0029816802D041F48B:1019D000801101E021F4801181607047C06C80B2F9:1019E000704751484C30006870470029416802D068:1019F00041F4806101E021F4806141607047002979:101A0000416802D041F4805101E021F480514160ED:101A10007047826822F4E0420A43826070470029DE:101A2000816802D041F4004101E021F4004181606D:101A300070470029816802D041F4021101E021F4CD:101A4000021181607047014600208968890200D533:101A50000120704770B5072609290AD9C568A1F188:101A60000A0404EB4404A640B543A3401D43C560EB:101A700007E0056901EB4104A640B543A3401D43BF:101A80000561836BC3F30154121B921C02EB8202AB:101A90001F249440A34391400B43836370BD826B2A:101AA000491E22F4401242EA0151816370474250BC:101AB00070470844806A80B2704742681F4B1A40E2:101AC0000A4342607047416282627047426822F076:101AD0001F020A4342607047134908310028086812:101AE00002D040F4000001E020F4000008607047DC:101AF0000246002012680A4200D001207047C94304:101B00000160704710B50246002054680B0AC9B244:101B10000C401168194202D0002C00D0012010BDE9:101B20006FEA112101607047002401400028014044:101B3000003C0140FFFEF0FFFDF7F1FFFFFD3FFF1E:101B40008F4910B5884206D10121042000F0E0FB46:101B5000002104203BE08B49884206D10121082066:101B600000F0D6FB0021082031E08749884206D1E9:101B70000121102000F0CCFB0021102027E0834938:101B8000884206D10121202000F0C2FB0021202044:101B90001DE07F49884206D10121402000F0B8FBBA:101BA0000021402013E07B49884206D1012180209A:101BB00000F0AEFB0021802009E0774988420AD17D:101BC00084150121204600F0A3FB00212046BDE83A:101BD000104000F09DBB10BD10B50121084600F07B:101BE00097FB0021BDE81040012000F091BBF0B54B:101BF000CC78002204F00F03E40601D58C7823434F:101C00000C884FF00F0C14F0FF0F4FF0010E1AD09C:101C100005680E880EFA02F42640A6420FD19600FF:101C20000CFA06F7BD4303FA06F63543CE78282EA4:101C300002D0482E02D002E0446100E00461521C50:101C4000082AE6D305600A88FF2A1DD945680022C4:101C500002F108060EFA06F40E882640A6420FD1BD:101C600096000CFA06F725EA070703FA06F5CE7880:101C70003D43282E00D14461CE78482E00D1046126:101C8000521C082AE4D34560F0BD4FF6FF71018075:101C9000022181700421C1707047024600209268C1:101CA0000A4200D001207047806880B27047024627:101CB0000020D2680A4200D001207047C06880B27C:101CC000704701617047416170470AB10161704717:101CD00041617047C160704741F480328261816127:101CE00082618169806970472C4B10B51A684FF684:101CF0008074224042EA00100843186010BD284951:101D0000C8617047F0B5254C002801DAE36900E0AE:101D10006368420D120185B2C0F301579540C0F3CC:101D20000346032F05D0C2020AD50322B2409343D3:101D300007E023F07062636823F07063636002E081:101D4000AB4343F0706201B12A43002801DAE2613B:101D5000F0BD6260F0BD10B58A0721F003040F49A1:101D6000120F21440F238C6893409C438C608B6836:101D7000904003438B6010BD0A4908607047000023:101D800000080140000C0140001001400014014017:101D900000180140001C01400020014000000140EB:101DA00000002042DC002042C04910B588424FF0BC:101DB000010101D14C0501E04FF48004204600F000:101DC000B0FA2046BDE81040002100F0AABA70B574:101DD0000446808886B00D4620F03F06684600F035:101DE00033FAB3490298B0FBF1F189B20E43A680F1:101DF000228822F001022280AE4B2A689A421CD827:101E00005200B0FBF2F080B2042800D20420491C3A:101E10002184A083208840F00100208020884FF694:101E2000F5310840A9886A89114301432180A889B6:101E300029890843208106B070BDEB88A3F53F4691:101E4000FF3E05D102EB4202B0FBF2F080B208E0A7:101E500002EBC20303EB0212B0FBF2F080B240F4DB:101E60008040020501D140F001004FF496725143C9:101E70004FF47A72B1FBF2F140F40040C7E741F24F:101E800088310160002181804BF6FF72C2800181A0:101E900041814FF48041818170470029018802D03F:101EA00041F0010101E021F00101018070470029AA:101EB000818802D041F4006101E021F40061818059:101EC00070470029818802D041F4805101E021F45B:101ED0008051818070470029018802D041F48071CF:101EE00001E021F48071018070470029018802D04F:101EF00041F4007101E021F4007101807047002974:101F0000018802D041F4806101E021F48061018008:101F10007047828901F0FE0122F0FE0211438181A7:101F200070470029818902D041F0010101E021F0D0:101F30000101818170470029018802D041F04001F0:101F400001E021F0400101807047002A828801D021:101F50000A4300E08A438280704701827047008A0A:101F6000C0B2704712B141F0010101E001F0FE0181:101F700001827047405A70470029018802D041F41D:101F8000004101E0C1F30E0101807047B1F5006F1F:101F9000018803D021F400610180704741F40061A1:101FA000FAE7B1F5005F018803D021F40051018008:101FB000704741F40051FAE70029018802D041F44A:101FC000805101E021F4805101807047B1F5006F2C:101FD000018803D021F400610180704741F4006161:101FE000FAE70029018802D041F0200101E021F048:101FF000200101807047008B000A7047002901888A:1020000002D041F0100101E021F010010180704781:102010000029018803D021F080010180704741F040:102020008001FAE7B1F5804F818B02D021F4804125:1020300001E041F4804181837047034600209A8A81:102040001B8B42EA034222F07F42914300D10120E0:102050007047818A008B41EA004121F07F40704740:1020600000220B0F21F07F4101D0143001E0090C58:1020700018300068084200D0012210467047C9435A:102080008182704710B502460020938801F0E06419:10209000928A03EA144321F07F410A4202D0002BC6:1020A00000D0012010BDC943818270470054004018:1020B00040420F00A0860100AC48016841F00101D8:1020C00001604168AA4A114041600168A94A114073:1020D0000160016821F480210160416821F4FE0162:1020E00041604FF41F0181600021C16270479F4928:1020F0000A6822F480320A600A6822F480220A60A8:10210000B0F5803F07D0B0F5802F03D1086840F4C8:10211000A02008607047086840F48030F9E7034663:1021200000205909914A01290AD002290AD0516A8E:1021300003F01F02012393400B4200D0012070479F:102140001168F5E7116AF3E730B500244FF4A06594:102150003120FFF7E4FF641CAC4201D00028F7D027:102160003120FFF7DCFF002800D0012030BD7F4A7E:10217000116821F0F80141EAC000106070477E4903:1021800008607047794B5A68084322F47412104370:1021900058607047784908667047744B10B5DA6A22:1021A000764C084322401043D86210BD6F4A5168F4:1021B00021F003010143516070476C48406800F012:1021C0000C007047694A516821F0F00101435160E9:1021D0007047664A516821F4E061014351607047DD:1021E000624A516821F4605141EAC0005060704772:1021F0005E4A0029517A01D0014300E081435172C7:1022000070475F4908607047584A516821F440415F:102210000143516070475B4900220A7001F8202990:10222000012802D0042802D1052081F8200070473F:102230005549086070474D490A6A02430A6270476F:10224000514944390860704730B5484A51684F4B8E:1022500011F00C0104D04E4C042903D0082903D0FE:10226000036017E0046015E05168536801F47011D1:102270004FF0020513F4803F05EB914107D0D36A7C:1022800003F00F035B1CB4FBF3F34B43E8E7414B54:10229000594301605168404B01F0F00109095C5C51:1022A0000168E1404160546804F4E064240A1C5D64:1022B00021FA04F48460546804F46054E40A1B5D59:1022C000D940C1605268344B02F44042920B1B1F4C:1022D0009A5CB1FBF2F1016130BD244A00295169D9:1022E00001D0014300E08143516170471F4A00293A:1022F000916901D0014300E08143916170471B4A1D:102300000029D16901D0014300E08143D1617047C8:10231000164A0029D16801D0014300E08143D16011:102320007047124A0029116901D0014300E081433E:102330001161704714494039086070470E49C864FC:1023400070470A49C87170470848416A41F0807176:1023500041627047054A0146002092680A4200D057:102360000120704701498872704700000010024048:102370000000FFF8FFFFF6FE00004242F0FFFEFF04:10238000D8004242201002408004424200127A00EB:10239000001BB70000093D0034000020FA4910B5C9:1023A000884202D10121C41486E0B0F1804F09D0E7:1023B000F64988420DD101210220FFF7B2FF00212A:1023C000022064E001210846FFF7ABFF0021012055:1023D0005DE0EF49884206D101210420FFF7A1FF0B:1023E0000021042053E0EB49884206D10121082056:1023F000FFF797FF0021082049E0E749884206D10E:1024000001211020FFF78DFF002110203FE0E3495C:10241000884206D101212020FFF783FF00212020E0:1024200035E0DF49884202D10121441444E0DD490E:10243000884202D10121CC043EE0DB49884202D12E:1024400001210C0538E0D949884202D101214C050F:1024500032E0D749884206D101214020FFF761FFD1:102460000021402013E0D349884206D10121802079:10247000FFF757FF0021802009E0CF4988420AD1A9:10248000841501212046FFF74CFF00212046BDE8BE:102490001040FFF746BFC949884202D101210C0410:1024A0000AE0C749884202D101214C0404E0C54931:1024B00088420AD101218C042046FFF729FF2046DB:1024C000BDE810400021FFF723BF10BD30B50288E2:1024D000AD4CB34DA0420DD0A8420BD0B0F1804F0F:1024E00008D0AA4B984205D0A94B984202D0A94BDC:1024F000984203D122F070034A881A43A64B9842AF:1025000006D0A64B984203D022F44073CA881A43DF:1025100002808A8882850A880285A0420AD0A84261:1025200008D0A64A904205D0A54A904202D0A54ABA:10253000904201D1097A01860121818230BD30B5F6:10254000028C22F001020284028C8388048B22F028:10255000020224F073050C882C430D8915434A8828:102560002A43894DA8420BD08D4DA84208D0934DE7:10257000A84205D0924DA84202D0924DA8420DD15A:1025800022F008054A8923F440732A4322F0040507:102590008A882A438D891D43CB892B4383800483FA:1025A000C9888186028430BD30B5028C22F01002C9:1025B0000284028C8388048B22F0200224F4E645F6:1025C0000C88240645EA14440D892D0542EA154578:1025D0004A88120545EA12426B4DA84202D0704D5E:1025E000A84215D122F080054A8923F440631205E0:1025F00045EA124222F040058A88120545EA124255:102600008D89AD0443EA1545CB899B0445EA134304:1026100083800483C9880187028430BD30B5028C71:1026200022F480720284028C8388848B22F40072EC:1026300024F073050C882C430D892D0642EA1545BC:102640004A88120645EA12424F4DA84202D0544D24:10265000A84215D122F400654A8923F4405312069A:1026600045EA124222F480658A88120645EA12423F:102670008D892D0543EA1545CB891B0545EA134392:1026800083808483C9888187028430BD30B5028C01:1026900022F480520284048C8288838B23F4E645E2:1026A0000B881B0645EA134324F400550C892407C4:1026B00045EA14444D882D0744EA1545324CA042A2:1026C00002D0374CA04205D122F480448A89920579:1026D00044EA124282808383C988A0F840100584AE:1026E00030BD828B22F440628283828B42EA0122D7:1026F00082837047828B22F00C028283828B0A4392:1027000082837047028B22F440620283028B42EA8A:1027100001220283704770B5048C24F010040484F5:10272000068B048C26F473461B0746EA13431206F5:1027300043EA12420D05144B2D0C98420ED0184B53:1027400098420BD0B0F1804F08D0104B984205D082:102750000F4B984202D00F4B984205D124F0200134:10276000294341F0100104E024F0A0030B4343F09F:1027700010010283018470BD028B22F00C020283DF:10278000028B0A4302837047002C01400004004082:1027900000080040000C0040001000400014004001:1027A00000340140004C0140005001400054014001:1027B00000180040001C0040002000400040014084:1027C000004401400048014030B5048C24F001046D:1027D0000484058B048C1B0542EA134325F0F305A2:1027E000F84A2B4390420ED0F74A90420BD0B0F1FA:1027F000804F08D0F54A904205D0F54A904202D069:10280000F44A904202D124F0020201E024F00A02CC:102810000A4342F001010383018430BD2DE9F05FDA:102820000D4604460E88E748DFF89CC3DFF89CA3FA:10283000DFF89CB34988AA882B894FF0804E4EB3AD:10284000042E2FD0082E268C34D026F480562684D1:10285000B4F81C90268C0F074FEA1748120629F48B:1028600073471B0747EA124242EA13432246844257:102870000BD01046624508D0744506D0504504D0B0:102880005C4502D0D348844243D126F4005040EA4C:10289000080041E02046FFF797FFE9882046BDE8A1:1028A000F05F69E72046FFF736FFE9882046BDE87C:1028B000F05F27E726F480762684A78B268C1B05FD:1028C00042EA134327F0F3074FEA01683B434FEA1C:1028D0001848224684420BD01046624508D0744501:1028E00006D0504504D05C4502D0BA48844204D199:1028F00026F4007040EA080002E026F42060084355:1029000040F48070A3832084E9882046BDE8F05F0E:10291000F0E626F40240084340F48050A38320846C:10292000E9882046BDE8F05FDBE62DE9F0410C4682:10293000002549880746012601B90225A288012AF7:1029400000D10226208823890028384610D0FFF7BE:10295000E2FEE1883846FFF7D5FE23893246294654:102960003846FFF731FFE1883846BDE8F04103E71C:10297000FFF72AFFE1883846FFF7FEFE238932463B:1029800029463846FFF7C7FEE1883846BDE8F041E2:10299000B8E610B50A884B88CC881A438B88234345:1029A0001A430B891A434B8989891A430A43A0F8B1:1029B000442010BD4FF6FF71818000210180C1804D:1029C00041800172DFE60021018041808180C18069:1029D000018141818181C181D5E600210180418051:1029E00001228280C1800181CDE6002101804180E9:1029F0008180C180018141818181C4E600290188F3:102A000002D041F0010101E021F001010180BAE6AC:102A1000002930F8441F02D041F4004101E0C1F325:102A20000E010180AFE6002A828901D00A4300E04E:102A30008A438281A7E68182A5E61143A0F8481067:102A4000A1E6002A828901D00A4300E08A438281FC:102A500099E6018921F00701018194E6028922F0BB:102A600070020A4302818EE600B50346FFF7F6FFC7:102A7000188940F00700188100BD70B50D46114659:102A80000446602D4FF001020AD0FFF79DFE294653:102A90002046FFF7E3FF208940F00700208170BD4A:102AA000FFF739FEF3E710B5048942EA0323E4B2E5:102AB0000B432343038110BD10B50446FFF7F3FF1A:102AC000208940F07700208110BD10B50446FFF743:102AD000EAFF208940F48040208110BD0185828278:102AE00051E6028822F070020A4302804BE670B57C:102AF0000589048B068C25F007050D434FF6FC4134:102B00000C4040F201110C4326F0220642EA031168:102B1000314305810483018470BD028B22F0700271:102B20000A4302832FE6028B22F4E04242EA0121AB:102B3000018328E6828B22F070020A43828322E618:102B4000828B22F4E04242EA012181831BE60029C4:102B5000018802D041F0800101E021F08001018074:102B600011E60029818802D041F0040101E021F042:102B70000401818007E60029818802D041F0080124:102B800001E021F008018180FDE50029818802D063:102B900041F0010101E021F001018180F3E5028BA8:102BA00022F008020A430283EDE5028B22F4006260:102BB00042EA01210183E6E5828B22F008020A4302:102BC0008283E0E5002C0140003401400004004015:102BD00000080040000C0040828B22F4006242EAB0:102BE00001218183CFE5028B22F004020A43028394:102BF000C9E5028B22F4806242EA01210183C2E529:102C0000828B22F004020A438283BCE5828B22F489:102C1000806242EA01218183B5E5028B22F08002C5:102C20000A430283AFE5028BC2F30E0242EA01219E:102C30000183A8E5828B22F080020A438283A2E509:102C4000828BC2F30E0242EA012181839BE5028C52:102C500022F002020A43028495E5028C22F0080267:102C60000A4302848FE5028C22F0200242EA01111D:102C7000018488E5028C22F0800242EA011101847D:102C800081E5028C22F4007242EA012101847AE596:102C9000028C22F4006242EA0121018473E5028C75:102CA00022F4005242EA013101846CE510B501239F:102CB000048C8B409C430484038C8A40134303841C:102CC00010BD10B50423048C8B409C430484038CFA:102CD0008A401343038410BD30B50124058C00F1F4:102CE00018038C40A543058479B108290DD0091F2C:102CF00088B203EB5000016821F4E04101600168F3:102D00001206120C1143016030BD03EB5100016843:102D100021F0700101600168F4E70029018802D008:102D200041F0020101E021F0020101802BE50029C0:102D3000018802D041F0040101E021F0040101808A:102D400021E50029818802D041F0800101E021F0D5:102D50008001818017E5028822F008020280028843:102D60000A4302800FE5828822F070028280828806:102D70000A43828007E5028922F007020281028964:102D80000A430281FFE4028922F080020281028963:102D90000A430281F7E48184F5E48185F3E48186C6:102DA000F1E40187EFE48187EDE4A0F84010EAE464:102DB000028822F44072028002880A430280E2E420:102DC000808EE0E4008FDEE4808FDCE4B0F8400029:102DD000D9E4808CD7E4008DD5E402460020128A25:102DE0000A4200D00120CEE4C9430182CBE402466E:102DF0000020138A92890B4202EA010202D0002AC3:102E000000D00120BFE4C9430182BCE4C64910B52B:102E100088420AD101218C032046FFF779FA204627:102E2000BDE810400021FFF773BAC049884202D1C3:102E300001214C0410E0BE49884202D101218C04DA:102E40000AE0BC49884202D10121CC0404E0BA491D:102E500088420AD101210C052046FFF762FA20467C:102E6000BDE810400021FFF75CBA10BD30B50D463B:102E7000018A85B004464CF6FF700140E88808439B:102E80002082A0894EF6F3110840A9882A891143AF:102E90006A8902431143A181A18A4FF6FF40014094:102EA000A8890843A0826846FFF7CEF99E4884426D:102EB00001D1039800E00298A1890904002900EBE0:102EC000C00101EB0010296802DA4FEA410101E07C:102ED0004FEA8101B0FBF1F06422B0FBF2F14FEA5E:102EE00001114FEA11136FF018056B4300EB8300DB:102EF000A3891D044FF0320306D503EBC000B0FBDD:102F0000F2F000F0070005E003EB0010B0FBF2F078:102F100000F00F000843208105B030BD4FF416517A:102F2000016000218180C18001810C224281818168:102F3000704710B5028A4FF2FF031A400B884C8885:102F400023438C88C9880C4323431343038210BD59:102F50000021018041808180C180704700298189E2:102F600002D041F4005101E021F400518181704709:102F700010B5C1F3421301F01F040121A140012B40:102F800007D0022B07D01430002A026805D00A436C:102F900004E00C30F8E71030F6E78A43026010BD19:102FA000002A828A01D00A4300E08A438282704765:102FB000028A22F00F020282028A0A4302827047CA:102FC000828922F40062828182890A438281704769:102FD0000029818902D041F0020101E021F00201C3:102FE00081817047028A22F020020282028A0A430B:102FF000028270470029018A02D041F4804101E039:1030000021F4804101827047C1F30801818070473B:103010008088C0F308007047818941F001018181F7:103020007047028BD2B20283028B42EA01210183F4:103030007047028B02F47F420283028B0A430283B1:1030400070470029818A02D041F0200101E021F07F:103050002001818270470029818A02D041F010014D:1030600001E021F01001818270470029818A02D09D:1030700041F0080101E021F0080181827047002938:10308000818902D041F4004101E0C1F30E01818148:1030900070470029818A02D041F4006101E021F4E7:1030A000006181827047828A22F004028282828AD1:1030B0000A43828270470029818A02D041F00201CE:1030C00001E021F00201818270470246002012884F:1030D0000A4200D001207047C9430180704770B593:1030E00001F01F0601250024C1F3421305FA06F280:1030F000012B0FD0022B0FD0838A4FEA11210088B9:10310000134205FA01F500EA050001D000B10124DF:10311000204670BD8389F0E7038AEEE70A0A0121A1:103120009140C9430180704700380140004400408D:1031300000480040004C00400050004009488047D3:1031400009480047FEE7FEE7FEE7FEE7FEE7FEE789:10315000FEE7FEE7FEE7FEE704480549054A064BA1:1031600070470000310A000821010008900F00207C:10317000901500209011002090110020032A40F2A9:10318000308010F0030C00F0158011F8013BBCF109:10319000020F624498BF11F801CB00F8013B38BF21:1031A00011F8013BA2F1040298BF00F801CB38BF2F:1031B00000F8013B11F0030300F02580083AC0F04D:1031C000088051F8043B083A51F804CBA0E80810F5:1031D000F5E7121D5CBF51F8043B40F8043BAFF328:1031E0000080D20724BF11F8013B11F801CB48BF82:1031F00011F8012B24BF00F8013B00F801CB48BFB8:1032000000F8012B704710B5203AC0F00B80B1E8F0:103210001850203AA0E81850B1E81850A0E818500B:10322000BFF4F5AF5FEA027C24BFB1E81850A0E814:10323000185044BF18C918C0BDE810405FEA827C2E:1032400024BF51F8043B40F8043B08BF7047D20745:1032500028BF31F8023B48BF11F8012B28BF20F8E6:10326000023B48BF00F8012B70474FF000020429D1:10327000C0F0128010F0030C00F01E80CCF1040CA2:10328000BCF1020F18BF00F8012BA8BF20F8022BD9:10329000A1EB0C0100F010B85FEAC17C24BF00F87C:1032A000012B00F8012B48BF00F8012B7047704735:1032B000704770474FF0000200B51346944696469B:1032C000203922BFA0E80C50A0E80C50B1F1200139:1032D000BFF4F7AF090728BFA0E80C5048BF0CC0E7:1032E0005DF804EB890028BF40F8042B08BF704745:1032F00048BF20F8022B11F0804F18BF00F8012BB7:103300007047754600F028F8AE46050069465346FA:1033100020F00700854618B020B5FFF71DFFBDE877:1033200020404FF000064FF000074FF000084FF02C:10333000000B21F00701AC46ACE8C009ACE8C009BD:10334000ACE8C009ACE8C0098D4670470446AFF34D:1033500000802046FCF72DFF004870472C0F00200E:1033600000487047300F002001491820ABBEFEE72F:103370002600020070470000064A074B0021126831:10338000B2FBF3F2424301E0491C89B28A42FBD806:10339000704700000C00002040420F0021F0004266:1033A000A2F16052B2F5801F01F0004328BFD2F1B4:1033B0007F6C0BD95FEA001C43EAC20242EB5070FB:1033C00018BF704728BF20F001007047B2F5801F7A:1033D000BCBF184670474FEA410C1CF5001F02D2D3:1033E000084600F085BC70B500F0D0FA00000089F6:1033F000FFF7F6BF4FF00040A0F5800070470000D7:1034000010B591EA030F48BF83F0004300F1268313:10341000841A71EB030C05D2121943EB0C03001B49:1034200061EB0C01DFF824E14FEA1154A4EB135CCB:103430001EEA430F18BF9EEA445F73D023EA0E03CF:10344000DCF1200E21EA045143F4801332D322FA36:103450000CFE10EB0E0023FA0CFE41EB0E01CCF13A:10346000200E03FA0EFE10EB0E0051F10001B1F533:10347000801FCCF1200E32D201EB045112FA0EF271:10348000BDE8104058BF7047401C38BF5FEA420299:1034900018BF7047002814BF20F0010041F100015F:1034A0004FEA410313F5001F38BF7047A1F1C04137:1034B00000F0BABA012A43EB0302ACF1200CDCF1B4:1034C0001F0E32BF4FF0000E23FA0CF310EB030077:1034D00041EB0451B4EB115FD0D0A1EB045101F5E5:1034E000801149085FEA300001EB04510ED350F11E:1034F000000038BF12FA0EFE08D1BDE81040C9E73F:10350000401C38BF5FEA4202CAD1C3E7BDE81040A1:103510004FEA410313F5001F38BF7047A1F1C041C6:1035200000F082BA9EEA445F08D011EA5E0FBDE85F:10353000104004BF01F0004100207047BDE810407A:1035400070B500F023FA00BF64FBBE3E0000E0FF50:1035500002494FF0000000F0D0BB00BF0000F87F30:103560002DE9C04130B4DFF8A0C23CEA111418BF05:103570003CEA131400F0EC8081EA03051CEA111404:1035800044EAD57418BF1CEA131500F0C780A4EBF9:1035900005044FF0004545EAC12145EAC32341EA4D:1035A000505143EA525304F17F74994204F50034B8:1035B0004FEAC0204FEAC22208BF904200F09C8030:1035C0004FEA13650FF24016765D4FEA134506FB8E:1035D00005F7C7F1807706FB07F74FEAD737A7FB58:1035E00003687642C8F58038A7FB06CE38BFA8F13D:1035F000010807FB08E64FF0000EA6FB028CE6FB75:1036000003CEDCF1000CCEF1004E38BFAEF1010E5E:10361000A6FB0C584FF000074FF00005E6FB0E87A5:10362000A1FB08C6A0FB07CE16EB0E0645F1000570:10363000E1FB076515F1E04E7EBFA4F580345FEA3B:1036400046066D4116F1800745F100054FEA172740:103650004FEA066647EA0567A6F1DE46B6F1805FE7:103660004FEA15251FD9384624F0010C05EBC4712B:10367000BCF1FE6F01EB0C1102D8F0BCBDE800817B:1036800024425CBF01F5801E9EEAC47F02D4F0BCD8:10369000BDE80081244238D4F0BCA1F1C041BDE8AE:1036A000004100F0C1B94FEAD22242EA43524FEA48:1036B000D323A7FB02864FEAD02040EA415007FB04:1036C00003661EEA0E0F4FEAD12105FB026658BFC2:1036D000A6EB0056B6EB00564FEA520E4EEAC37EFA:1036E00018EB0E0E56EB530EBDD518EB02085E41DB:1036F0007F1C55F10005B6E74FF480154FF0000729:103700004FF000064FF00008ADE7F0BC4FF00000AE:1037100001F1C04101F00041BDE8008111EA0C1F38:103720000CEA131500D00CE013EA0C1F00F0258002:103730004FF00000F0BC81EA030101F00041BDE858:103740000081F0BCBDE8004181EA030100F06CB9E2:10375000F0BCBDE8004170B500F018F9097EFC3EF0:1037600000F007B881EA03014FF0000001F00041CA:10377000704781EA030100F057B9F0BCBDE8004191:103780004FF0000021497047FFFDFBF9F7F5F4F217:10379000F0EEEDEBE9E8E6E4E3E1E0DEDDDBDAD8EC:1037A000D7D5D4D3D1D0CFCDCCCBCAC8C7C6C5C44A:1037B000C2C1C0BFBEBDBCBBBAB9B8B7B6B5B4B361:1037C000B2B1B0AFAEADACABAAA9A8A8A7A6A5A44C:1037D000A3A3A2A1A09F9F9E9D9C9C9B9A99999810:1037E0009797969595949393929191908F8F8E8EB3:1037F0008D8C8C8B8B8A8989888887878685858440:1038000084838382828181800000FF070000F87F2B:10381000B0FA80F310FA03F10AD0C3F11D0303F5E7:1038200080634FEA41504FEA035202EBD1217047C7:103830004FF0000070470000DFF848C170B51CEA87:10384000111E1EBF1CEA13159EEA0C0F95EA0C0F01:1038500000F06F8081EA030423EA4C134EEAD47E21:1038600021EA4C1141F4801143F48013AE44A1FBD2:10387000024CA0FB0365AEF17F7E361955EB0C05BB:10388000A1FB034C4CF10003A0FB021C16EB0C0641:10389000654153F10003094218BF46F0010613F4D5:1038A000007F0BD14FEA03314FEA0530340341EA80:1038B000155140EA16506FF003020AE04FEAC321A7:1038C0004FEAC520F40241EA555140EA56506FF0E4:1038D000020202EB2E4201EB025585EACE710AD0BC:1038E0005FEA440C18BF24F0004450F1000041F19D:1038F000000120EAD47040F2FE7C624500D270BD27:10390000A84214BF4FF080444FF04044002E08BF3F:103910000024BEF1806FA8BFA1F1C041BDE8704096:1039200080F282804FF0000001F1C04101F00041BF:1039300070479EEA0C0F0CEA131518BF95EA0C0F9E:1039400006D04FF0000081EA030E0EF0004170BD7A:1039500000F01CF88900013E00F007B800F009B83B:103960004FEA430C5FEA5C5C08D081EA030100F097:103970005BB84FEA410C5FEA5C5CF6D14FF00000A7:10398000014970470000FF070000F87F0EF1020EAA:103990002EF0030E5EF8046B364205D4012A43EB89:1039A000030515F5001F12D8012841EB010C1CF589:1039B000001F0CD80ED14FEAD17C15F5001F0CEB7F:1039C0004C0C0CF1020C08BF4CEBD37C04E04FF024:1039D000080C01E04FEAD37C0CEB4C0526FA05F607:1039E00006F00706B6F1040C06D20EEB860CBDE815:1039F00070404CF0010C6047DFE80CF0090B02024C:103A00004FF000414FF00000A1F5002170BD1946B4:103A10001046012851EB010418BFD4F5001484BFEF:103A2000002001F0004170BD0808A0F500114FEA28:103A30003101704791EA030F10B581F000413FF565:103A4000E7AC83F0004300F009B8000010B591EA3C:103A5000030F48BF83F000433FF5DAAC841A71EBE3:103A6000030C07D212198CF0004C43EB0C03001B23:103A700061EB0C01DFF8A4E14FEA1154A4EB135CF5:103A80001EEA430F18BF9EEA445F00F0B08023EAAD:103A90006E03524221EA0451C3EB6E0338BF5B1E32:103AA000DCF1200E25D322FA0CFE10EB0E0043FAB7:103AB0000CFE41EB0E01CCF1200E03FA0EFE10EBD2:103AC0000E0051F10001CCF1200E29D412FA0EF2B1:103AD00001EB0451BDE8104058BF7047401C1CBFAB:103AE000B2F1004F704700280CBF491C20F00100C4:103AF000704712EB020E43EB030218BF4FF0010EAA:103B00004EEA4202ACF1200CDCF11E0E54D943FA0D:103B10000CFE10EB0E0051F1FF31CCF11E0ED5D58D:103B20000EF1010E12FA0EFE404141EB010101EBD4:103B3000445C5FEA5C5C10D910EBDE7001EB045171:103B400038BFBEF1004FBDE8104018BF70470028D5:103B50000CBF491C20F00100704730D24FEAD42C32:103B600011F5001124F400641BD0B1FA81F20B3A74:103B7000A41AA41ED2F12003914030FA03F3194392:103B8000904001EBCC71002C01EB0451BDE81040DA:103B9000A8BF704701F1C0414FF0000001F00041A3:103BA0007047B0FA80F310FA03F100D110BDE41AA7:103BB000173C4805C90AE4E701EB045110BD491060:103BC00001EB0451BDE810404FEA300002E04FF035:103BD000000170474A0008BF0042F8D0B2F5001F4C:103BE00028BF704701F000414FF0000070479EEA87:103BF000445F07D011EA5E0FBDE8104004BF00210A:103C000000207047BDE8104070B5FFF7BFFE00BF51:103C100040DFF63E83F00041104670470000E0FFB1:103C200041000B0ED3F19E0208D950F400034FEA75:103C3000032323FA02F048BF4042704710B500F05A:103C40000AF800BF49922480002070476FF00042BC:103C500082EA200070470EF1020E2EF0030E5EF88D:103C6000044B244204D44FEA4102B2F17F4F11D8F1:103C70004FEA4003B3F17F4F0CD80ED14FEAD07C0E:103C8000B2F17F4F0CEB4C0C0CF1020C08BF4CEB6B:103C9000D17C04E04FF0080C01E04FEAD17C0CEB42:103CA0004C0324FA03F404F00704B4F1040C06D224:103CB0000EEB840CBDE810404CF0010C6047DFE8CF:103CC0000CF0070802024FF00040A0F5800010BD84:103CD0000846420018BFD2F1807288BF00F0004051:103CE00010BD10B5FFF73CFB4FF00001016010BDA7:103CF000FF2141EAD050C00570470CF00F03092B9B:103D000008BF082000F05B800A2B0BD0082B18BFDF:103D1000704708BF1CF0400F0AD04FF000004FF072:103D2000000170471CF0400F18BF4FF00040704773:103D30001CF0100F08D020F0704300F07F4242EAE0:103D4000D3014FEA4370704700F0604021F07F429A:103D500042EA000201F07F4040EA727070474FF083:103D6000FF0C4CF4E06C1CEA11531CBF9CEA030CE2:103D70009445C2BFDA4201EB02517047002B0DD0CF:103D8000BCF1000F0FD0002A01F00041A4BF41F0A8:103D9000E04141F07F614FF00000704701F00041C9:103DA0004FF00000704750EA01334FF09B0C18BFF2:103DB0004CF0806C7FF4CCABAFF3008070471CF408:103DC000801F11D01CF4E02F03D06FEACC314900E2:103DD00070474FF04050EFF3008222F0704242EA09:103DE000000282F3008870474FF000007047000027:103DF00000002110422063308440A550C660E77067:103E0000088129914AA16BB18CC1ADD1CEE1EFF10E:103E1000010000200100000401000008010004006E:103E2000010000040100000800080140010000003A:103E30000000000010000000000801400200000027:103E40000000000000000000000801400400000025:103E500000000000180000000008014008000000F9:103E600000000000040000000008014010000000F5:103E700000000000000000000008014020000000D9:103E800000000000000000000008014040000000A9:103E90000000000000000000000801408000000059:103EA00000000000000000000008014000010000C8:103EB00000000000100000000008014000020000A7:103EC000000000001800000000080140000400008D:103ED000000000000400000000080140000800008D:103EE0000000000010000000000801400010000069:103EF00000000000100000000008014000800000E9:103F00000000000010000000000C01400100000053:103F10000000000000000000000C01400200000052:103F20000000000000000000000C01400400000040:103F30000000000010000000000C0140080000001C:103F40000000000010000000000C01401000000004:103F50000000000010000000000C014020000000E4:103F60000000000010000000000C014040000000B4:103F7000000000001C000000000C01408000000058:103F8000000000001C000000000C014000010000C7:103F90000000000010000000000C014000020000C2:103FA0000000000010000000000C014000040000B0:103FB0000000000010000000000C0140000800009C:103FC0000000000010000000000C01400010000084:103FD0000000000010000000000C01400020000064:103FE0000000000010000000000C01400040000034:103FF0000000000010000000000C014000800000E4:10400000000000001000000000100140002000002F:1040100000000000100000000010014000400000FF:1040200000000000100000000010014000800000AF:1040300000000000100000005840000800000020B0:10404000440000005C0100089C400008440000207F:104050004C1500007801000800000000000000007E:104060000000000000127A000000000000000000C4:104070000102030406070809000000000000000018:10408000000000000000000002040608000000001C:1040900001020304010203040607080900000000EE:1040A0000000000000000000000000000000000010:1040B0000000000000000000000000000000000000:1040C00000000000000000000000000000000000F0:1040D00000000000000000000000000000000000E0:1050000010B5012903D0032904D081B111E000F0CB:1050100095F90EE001680968CBB2416880680968BB:105020000068BDE8104082B2184600F02EB900F0CA:1050300026FA002010BD000070B50446012809D0F2:1050400000221021FF4D2846FCF73FFE0122012CD3:1050500003D101E00122F4E7002208212846FCF7F1:1050600034FEF94880F8324070BD10B50122044684:10507000012800D100224FF48051F448FCF725FEAE:10508000012C09D000224FF40051F148FCF71DFE1D:10509000ED4880F8334010BD0122F4E770B50122DD:1050A0000446012800D10022E64D4FF40041284675:1050B000FCF70BFE012C09D000224FF4805128464A:1050C000FCF703FEE04880F8364070BD0122F4E7AB:1050D00010B50446002000F08CFB002000F097FB88:1050E000002000F0A2FB002000F0ADFB002000F04B:1050F000E0FBC4B1012C1BD0022C20D0032C29D101:10510000012000F076FB012000F08FFB012000F071:105110007EFB012000F097FB0120FFF78DFF0120AF:10512000BDE81040A1E7BDE81040012000F0C1BB80:10513000012000F05EFB012000F077FBECE701208E:1051400000F065FB012000F07EFB0220FFF774FFFA:105150000220E5E710BDF8B5002507460E46ADF87C:1051600000502C460AE069463846FBF77BFE0128D2:1051700002D1BDF800000544641CE4B2B442F2D38D:10518000A8B2B0FBF4F0F8BD10B54078FFF754FFBB:10519000012010BD10B54078FFF767FF012010BD5A:1051A00010B5407800F068FB012010BD10B54078C4:1051B00000F070FB012010BD10B54078FFF76EFFC6:1051C000012010BD10B5014600784C7808B10128C7:1051D00006D13CB1012C05D0022C03D0032C01D008:1051E000002010BDFFF75AFF2046FFF771FF012096:1051F00010BD10B5407800F0FCFA012010BD10B5CC:10520000407800F004FB012010BD10B5407800F09C:105210000CFB012010BD10B5407800F014FB0120FC:1052200010BD10B5417802783F2903D8012A03D078:10523000022A03D0002010BD864801E085480C30CA:10524000FBF70AFD0028F6D0012010BD7E4910B5FD:10525000088F4887888704223A317B4800F031FB69:10526000794904223C31784800F02BFB012010BD25:10527000FBF7C6FA78480168784A01F4E06141EA30:1052800002010160BFF3408FFEE72DE9F74F0E7872:10529000DFF8CC9180460F464FF0010B01F1010A77:1052A000002509EB0514217841453BD16078B042D7:1052B00001D0FF2806D1E26822B138460299904712:1052C000002839D0606818B3A178022905D021B12F:1052D000012911D003290FD024E06178FF2907D0DC:1052E000B1421FD10146227A5046FDF747FF19E02F:1052F0000146227A3846F8E76178FF2909D0B142A1:1053000010D1227A5146FDF739FFA078012803D049:1053100008E0227A3946F6E7227A4B48616800F0C5:10532000D0FA83466D1CEDB2392DBAD346484D49AB:1053300090F8440008705846BDE8FE8F2DE9F04112:105340004FF4FA7421464048FDF78FFF2146464846:10535000FDF78BFF3E4C4FF4804700223946204634:10536000FCF7B3FC4FF40048002241462046FCF70E:10537000ACFC3B4E344D002406EB0411887830B968:105380004B680A7A581B80B21946FBF7B8FC641CBC:10539000E4B2392CF0D3334915F8440F08701120CA:1053A000E8706220287150206871FBF7F7F92F49E7:1053B000E880088015F8441D0020FF2900D12870DE:1053C0006978FF2900D168701E4C012239462046B9:1053D000FCF77BFC0021491CC829FCDBA87808B13C:1053E000012200E000224FF400712046FCF76DFC22:1053F000E87808B1012200E00022144E4FF4006169:105400003046FCF762FC287908B1012200E0002256:105410004FF480712046FCF758FC687908B10122EE:1054200000E0002241463046FCF74FFC2878FFF7A9:1054300035FE6878FFF74CFE95F830100548FBF70D:105440000BFC15E0000C0140440000200008014066:1054500000100140103E00080CED00E00400FA05C9:10546000D858000802000020380200200400002064:1054700095F83110BDE8F041FA48FBF7EDBB2DE996:10548000F047FBF751FC00EB800000B2F64E00F253:105490002621B1F5E16F30871FD8B6F93A104FF6E3:1054A000FF74814202DC718FA14206D1EE49708700:1054B00004223A31EC4800F004FAB6F93C10B6F98F:1054C0003800814202DBB18FA14206D1E649B087A4:1054D00004223C31E44800F0F4F9B6F93800E14F19:1054E0000024E24D4FF0010810F1140F11DA287872:1054F000F8B985F800806C7096F83000401CC1B295:10550000A7F10C00FBF7A8FB96F83100401CC1B2D4:105510000CE0687868B985F80180D2482C7096F85C:1055200030100C38FBF798FB96F831103846FBF733:1055300093FB10210520FFF70EFE48F6CC5148439F:10554000C11700EB11500013F08510210420FFF764:1055500002FE48F6CC514843C11700EB115000132E:10556000B08510210120FFF7F6FD48F6CC514843E5:10557000C11700EB11500013708510210620FFF7B2:10558000EAFD42F2AC6148434FF42047B0FBF7F02C:10559000708410210820FFF7DEFD42F2AC61484321:1055A000B0FBF7F0B08410210720FFF7D4FD42F2E2:1055B000AC614843B0FBF7F0F08410210920FFF7FD:1055C000CAFD42F2AC614843B0FBF7F03085A87FDA:1055D000411CA9771E2875D9AC77708DF18A884255:1055E00004D2B6F8420040F4007009E0318B8842E2:1055F000B6F8420002D940F4807001E020F4407017:10560000A6F84200B08D718B884204D2B6F84200F1:1056100040F4006009E0B18B8842B6F8420002D93C:1056200040F4806001E020F44060A6F84200F08D74:10563000F18B884204D2B6F8420040F4005009E0F1:10564000318C8842B6F8420002D940F4805001E023:1056500020F44050A6F84200B078012819D1708C8F:10566000F188884204D2B6F8420040F002000EE011:1056700031898842B6F8420007D940F00100A6F807:105680004200002000F0B5F803E020F00300A6F887:105690004200F07801281AD1B08C7189884204D276:1056A000B6F8420040F008000FE0B1898842B6F831:1056B000420008D940F00400A6F84200002000F0A3:1056C000A6F804E055E020F00C00A6F8420030797E:1056D000012819D1F08CF189884204D2B6F8420031:1056E00040F020000EE0318A8842B6F8420007D927:1056F00040F01000A6F84200002000F096F803E009:1057000020F03000A6F842007079012819D1308DC0:10571000718A884204D2B6F8420040F080000EE060:10572000B18A8842B6F8420007D940F04000A6F896:105730004200002000F087F803E020F0C000A6F847:105740004200B6F93800B6F93E10884204DAB6F8DD:10575000420040F400400AE0B6F940108842B6F832:10576000420002DD40F4804001E020F44040A6F811:1057700042007078DFF8F8904FF4804703281FD17B:105780003078F8B9002000F094F8287B012805D182:105790002C7300F02EF8012000F047F8B6F8420014:1057A00010F0330F1CD010F0CC0F12D02889411C00:1057B000298141F27071884202D92C8185F80C80D0:1057C0007078A0B1012239464846BDE8F047FCF7A1:1057D0007CBA2C812C730220FFF72EFC022003E000:1057E0000120FFF729FC0120FFF73FFCE8E700223A:1057F000E9E710B5040001D0012200E000224FF4D7:1058000000711B48FCF761FA1748847010BD10B591:10581000040001D0012200E000224FF4006115488D:10582000FCF753FA1048C47010BD10B5040001D045:10583000012200E000224FF480710D48FCF745FA88:105840000948047110BD10B5040001D0012200E028:1058500000224FF400410748FCF737FA0248447130:1058600010BD00001C3E000844000020380200204B:10587000000C01400008014010B5040001D00122D5:1058800000E0002220211148FCF71FFA104880F8A0:105890003440E5E710B504004FF0010200D00022CB:1058A0004FF480710B48FCF710FA094880F8354036:1058B000D6E710B50446FFF7DFFF2046BDE81040ED:1058C000E8E7081A80B2FBF7E7B90000000C0140D6:1058D000440000200008014010FF010044000020A7:1058E00002000000C551000811FF00004400002024:1058F0000200000000000000121501004600002018:1059000001000000F35100081225010047000020AB:1059100001000000FF51000812190100480000209A:10592000010000000B52000812290100490000206C:105930000100000017520008131500004600002067:1059400001000000000000001325000047000020B7:1059500001000000000000001319000048000020B2:105960000100000000000000132900004900002091:105970000100000000000000141501004A00002092:105980000400000000000000142501004E0000206B:105990000400000000000000141901005200002063:1059A000040000000000000014290100560000203F:1059B0000400000000000000141201005A00002042:1059C0000400000000000000140901005E00002037:1059D0000400000000000000140501006200002027:1059E0000400000000000000151500004A0000201F:1059F0000400000000000000152500004E000020FB:105A000004000000000000001519000052000020F2:105A100004000000000000001529000056000020CE:105A20000400000000000000151200005A000020D1:105A30000400000000000000150900005E000020C6:105A400004000000000000001505000062000020B6:105A5000040000000000000016150200660000208F:105A6000020000000000000016250200680000206F:105A70000200000000000000161902006A00002069:105A80000200000000000000162902006C00002047:105A90000200000000000000161202006E0000204C:105AA0000200000000000000160902007000002043:105AB0000200000000000000160502007200002035:105AC0000200000000000000170101007400002027:105AD0000100000023520008170201007500002099:105AE000010000002352000818010000740000208B:105AF00001000000000000001802000075000020F6:105B000001000000000000001D01030076000020DD:105B100001000000895100081D02030077000020E9:105B200001000000955100081D03030078000020CB:105B300001000000A15100081D04030079000020AD:105B400001000000AD5100081D0503007A0000208F:105B500001000000B95100081E010200760000207B:105B600001000000000000001E020200770000207B:105B700001000000000000001E0302007800002069:105B800001000000000000001E0402007900002057:105B900001000000000000001E0502007A00002045:105BA000010000000000000019FF02007C0000203E:105BB00002000000000000001AFF00007E0000202C:105BC00004000000000000001BFF010000000000B6:105BD000040000004D52000822FF01008200002056:105BE000040000000000000023FF000082000020ED:105BF00004000000000000001CFF020086000020DE:105C0000020000000000000020FF010088000020CA:105C1000010000000000000021FF000088000020BB:105C2000010000000000000060FF03008900002068:105C3000010000007152000864FF02008A00002089:105C4000060000000000000065FF01009000002039:105C5000280000000000000066FF00009000002007:105C6000280000000000000000000000000000000C:105C70000000000000000000000000000000000024:105C80000000000000000000000000000000000014:105C90000000000000000000000000000000000004:105CA00000000000000000000000000000000000F4:105FF00011000000620000005000000000000000DE:106000000000000000000000000000000000000090:106010000000000000000000000000000000000080:106020000000000000000000000000000000000070:106030000000000000000000000000000000000060:10700000FB4A116801F03801014311607047F849EB:107010000A6822F008020A600A6802430A607047A0:10702000F3490A6822F010020A600A6802430A6003:107030007047EF48EF494160EF4941607047EC48C5:10704000EC494160EC4941607047E948016941F011:10705000800101617047E648016941F080010161EA:107060007047E3490420CA68D20701D00120704765:10707000CA68520701D502207047C968C906FBD506:107080000320704700B50346FFF7EBFF02E0FFF770:10709000E8FF5B1E012803D0002B00D1052000BDB6:1070A000002BF4D1FAE770B505464FF43026304690:1070B000FFF7E8FF042811D1CD4C206940F0020011:1070C00020616561206940F0400020613046FFF793:1070D000D9FF216941F6FD721140216170BD30B5C3:1070E0004FF430252846FFF7CDFF042810D1C04CBF:1070F000206940F004002061206940F040002061D8:107100002846FFF7BFFF216941F6FB72114021615C:1071100030BD00B50346FFF7A4FF02E0FFF7A1FF73:107120005B1E012803D0002B00D1052000BD002BE1:10713000F4D1FAE730B54FF430252846FFF7E9FFE0:10714000042810D1AA4C206940F004002061206975:1071500040F0400020612846FFF7DBFF216941F63F:10716000FB721140216130BDA1490020C969890726:1071700000D50120704770B5A525FFF7F5FF00B1D8:1071800000254FF430263046FFF77CFF042827D136:10719000974C9848A0609848A060206940F0200073:1071A0002061206940F0400020613046FFF76AFF0F:1071B00041F6EF7604280ED1206941F6DF710840D0:1071C0002061206940F0100020618C4805804FF458:1071D0000050FFF757FF052802D021693140216197:1071E00070BDF0B505464FF4005C0E466046FFF7F3:1071F00049FF042814D17E4C206940F00100206131:107200002E806046FFF73EFF41F6FE77042804D14A:10721000300C68806046FFF735FF216939402161F5:10722000F0BDF0B505464FF400570E463846FFF75F:1072300029FF04280CD16E4C206940F00100206128:107240002E803846FFF71EFF2169BA1E11402161CA:10725000F0BDF0B505464FF400570E463846FFF72F:1072600011FF042813D1624C6248A0606248A060FC:10727000206940F0100020612E803846FFF702FFA1:10728000052804D0216941F6EF7211402161F0BD5B:107290002DE9F041C043C4B2C0F30725C0F307464F:1072A000070E4FF400584046FFF7ECFE04283CD18F:1072B000DFF83CC14F49CCF808104F49CCF8081012:1072C000DCF8101041F01001CCF81010FF2C07D0A2:1072D0004A48083004804046FFF7D4FE04281BD1FA:1072E000FF2D07D045480A3005804046FFF7CAFE0B:1072F000042811D1FF2E07D040480C3006804046AC:10730000FFF7C0FE042807D1FF2F07D03B480E30FF:1073100007804046FFF7B6FE052806D0DCF81010BF:1073200041F6EF721140CCF81010BDE8F08170B555:1073300006464FF430252846FFF7A4FE042818D14E:107340002B4C2C48A0602C48A060206940F0200005:107350002061206940F0400020612846FFF792FE3E:1073600041F6DF71042805D0052802D022690A40C1:10737000226170BD206908402061206940F0100042:1073800020611E480EB1002100E0A52101802846A1:10739000FFF778FE0528ECD0216941F6EF72114025:1073A000216170BDF0B5124C064612480D461746D5:1073B000A0601148A0604FF4005C6046FFF762FED9:1073C000042814D1206940F0100020613D430B498E:1073D0003543891C45F0F80008806046FFF752FEEF:1073E000052804D0216941F6EF7211402161F0BDFA:1073F0000020024023016745AB89EFCD00F8FF1F55:107400001C48C069800870471A48006A70471949CB:1074100000200968890600D501207047154A002917:10742000116901D0014300E08143116170470146B9:107430000020104A012903D0D2680A4203D17047C4:10744000D169C907FBD0012070470A49C86070475D:1074500008490420CA68D20701D001207047CA68D1:10746000520701D502207047C968C906FBD5032021:1074700070470000002002400D49086070470C4929:10748000486070470A498860704709494AF6AA204F:107490000860704706494CF6CC4008607047044AC3:1074A00001460020D2680A4200D001207047000047:1074B0000030004072B6FFF7BCFD3420FFF7C5FF77:1074C00000244FF0006505EB8420FFF7ECFD042855:1074D0001AD1FFF7DAFF641C1C2CF4D30B4C0C4EB2:1074E00028462168FFF77DFE04280DD12068296811:1074F000884209D1FFF7C9FF2D1D241DB442EFD3E7:10750000FFF7A3FDFAF719F9FEE700000080000875:0475100000F000087F:0400000508000121CD:00000001FF