:020000040800F2
:1000000088110020E13C00087116000873160008F2
:100010007516000877160008791600080000000021
:100020000000000000000000000000007B16000837
:100030007D160008000000007F16000881160008E9
:10004000FB3C0008FB3C0008FB3C0008FB3C0008B4
:10005000FB3C0008FB3C0008FB3C0008FB3C0008A4
:10006000FB3C0008FB3C0008FB3C0008FB3C000894
:10007000FB3C0008FB3C0008FB3C0008FB3C000884
:10008000FB3C0008FB3C0008FB3C000800000000B3
:10009000000000000000000000000000FB3C000821
:1000A000FB3C0008FB3C0008FB3C0008FB3C000854
:1000B000FB3C0008FB3C0008FB3C00083D1C000822
:1000C000FB3C0008311D0008FB3C0008FB3C00081D
:1000D000FB3C00088F200008FB3C0008FB3C0008AC
:1000E000FB3C0008FB3C0008FB3C00080000000053
:1000F0000000000000000000000000000000000000
:1001000000000000000000000000000000000000EF
:100110000000000000000000FB3C0008FB3C000861
:1001200000F002F800F03CF80AA090E8000C8244CD
:100130008344AAF10107DA4501D100F031F8AFF2AA
:10014000090EBAE80F0013F0010F18BFFB1A43F0B5
:10015000010318471C6600003C660000103A24BFEB
:1001600078C878C1FAD8520724BF30C830C144BF1C
:1001700004680C607047000000230024002500265E
:10018000103A28BF78C1FBD8520728BF30C148BFFA
:100190000B6070471FB505F09AFC1FBD10B510BD70
:1001A00003F09CFE1146FFF7F5FF00F00BF803F09B
:1001B000BAFE03B4FFF7F2FF03BC03F0BFFE00007A
:1001C00007F063B910B501F0FFF97D2002F079FD69
:1001D00008B102F08BFE012002F0FCFD612002F06C
:1001E00070FD0028FAD045F2555007F045F903207C
:1001F00007F045F94FF49C7007F044F907F045F912
:1002000007F048F900F002FF00F053FD01F036F965
:10021000C0210D4800F022F84FF416410B4800F0C1
:100220001DF84FF496310A4800F018F800210948EB
:1002300000F014F80021084800F010F800F053F81E
:1002400000F067F8002010BD8B0D0008090D0008B4
:100250003111000897140008C101000830B43C4C6B
:1002600023780A2B11D23B4A03EB830502EB85026C
:100270001569002D09D1C2E903105B1C237030BC45
:1002800011464FF0804001F0EFBB30BC7047F0B535
:10029000DFF8BCC09CF80010491E092922D80021B3
:1002A000DFF8B0E01AE001EB81020EEB8202146984
:1002B000844211D103EB83040EEB8404A4F11404F3
:1002C000A3F10103E568D56094E8E00082E8E0006E
:1002D000246914618CF80030491CC9B29CF80030C4
:1002E0009942E0D3F0BD2DE9F0410024194D4FF0C3
:1002F0008047174E08E004EB840005EB8001384688
:1003000001F0B2FB641CE4B230788442F3D3BDE860
:10031000F081DFF840800E4E4FF08047002413E05C
:1003200004EB840108EB8105286958B12946384659
:10033000EA6801F09FFB28B12946384601F094FB9A
:1003400028698047641CE4B230788442E6D2E7E74B
:100350000000002050000020831810B55B1E002014
:1003600005E013F80149401C01F8014BC0B290426E
:10037000F7D310BDFF4A9078117A01B114203F21C4
:100380003F2800D801461171FB4801F0C9BAF94A6B
:100390001078517E0844117AC0B201B128203F2163
:1003A0003F2800D80146F44851710C3001F0B8BA2A
:1003B000F04AD078517A01B114203F213F2800D86B
:1003C0000146ED489171183001F0AABAE94A507817
:1003D000517E0844517AC0B201B128203F213F2804
:1003E00000D80146E448D171243001F099BA10B523
:1003F00000F038FDDF49887A102801D90920887279
:10040000B1F91200CA7D50430A7E0AB964220A7605
:10041000D2B290FBF2F08A7A101A4FF0000201D5A6
:100420004A7603E03F2800DD3F204876887D01289A
:1004300000D14A7600210846FFF7A9FF0021BDE858
:1004400010400846C2E704291BD18178C27801EB2D
:10045000022109B2A1F21452B2F5486F11D832311B
:10046000642291FBF2F1491FC44B8AB203EB820173
:1004700033F8222049880170090A417082701112F4
:10048000C170704704291CD18178C27801EB022128
:1004900009B2A1F26C72B2F5486F12D832316422FF
:1004A00091FBF2F10A39B54B8AB2A43303EB820116
:1004B00033F8222049880170090A417082701112B4
:1004C000C17070472DE9F047FF2503468946002794
:1004D000AA4E2C46082040F2AA6106EB8002528800
:1004E0008A4201D825460446282D0BD806EB850202
:1004F00052888A4206D8282C04D806EB84025288F7
:100500009A4207D2401CC0B22828E6D9282D2CD800
:10051000282C2AD806EB85004788D81B05F0F8F967
:10052000804606EB84004088C01B05F0F1F90146C7
:10053000404605F0EFF8074636F9240036F9254025
:10054000001B05F0E5F9394605F0FAF905462046A5
:1005500005F0DEF9294605F07BF80446484605F02B
:10056000D7F9214605F074F80746384605F094F9A6
:1005700000B2BDE8F0872DE9F047B0F90000642231
:1005800000F1320191FBF2F17C4E0A398CB2A436B3
:1005900006EB840126F8240076484FF4A06A002573
:1005A000808D48800AEB8400884680B2042200F0E7
:1005B00023FD252CDDD10020221A06EB820136F91D
:1005C00022204B8831F8027C31F9041CDB1B6427A4
:1005D0007B43511A93FBF1F1401C294480B20DB2C8
:1005E0000428E9D3E81705EB9070871036F92490BA
:1005F000B8F80280012505EBC50000EB0511601974
:1006000009EB810226F8202006EB800105FB07821A
:100610004A800AEB800080B2042200F0EDFC6D1CE1
:10062000ADB2052DE7D3A4E72DE9F047B0F90000FE
:10063000642200F1320191FBF2F1491F4F4E8CB25E
:1006400006EB840126F824004A484FF4806A00250E
:10065000C08D48800AEB8400884680B2042200F0F6
:10066000CBFC242C85D10020221A06EB820136F91E
:1006700022204B8831F8027C31F9041CDB1B6427F3
:100680007B43511A93FBF1F1401C294480B20DB217
:100690000428E9D3E81705EB9070871036F9249009
:1006A000B8F80280012505EBC50000EB05116019C3
:1006B00009EB810226F8202006EB800105FB07826A
:1006C0004A800AEB800080B2042200F095FC6D1C89
:1006D000ADB2052DE7D34CE72DE9F047017842781C
:1006E000642301EB02228178C078244E01EB0020C4
:1006F00000B200F1320191FBF3F10A398CB2A43659
:1007000006EB840126F824004FF4A06A4A800AEB25
:1007100084000025884680B2042200F06DFC252C60
:100720003FD10020221A06EB820136F922204B88A5
:1007300031F8027C31F9041CDB1B64277B43511A1E
:1007400093FBF1F1401C294480B20DB20428E9D397
:10075000E81705EB9070871036F92490B8F80280FE
:10076000012505EBC50000EB051109EB81026019BD
:1007700006E00000A40200209C640008580100204C
:1007800026F8202006EB800105FB07824A800AEB51
:10079000800080B2042200F02FFC6D1CADB2052D4C
:1007A000DFD3E6E62DE9F04701784278642301EBD8
:1007B00002228178C078002501EB002000B200F110
:1007C000320191FBF3F1491F8CB2FE4E4FF4806A67
:1007D00006EB840126F824004A800AEB8400884650
:1007E00080B2042200F008FC242C37D10020221A09
:1007F00006EB820136F922204B8831F8027C31F970
:10080000041CDB1B64277B43511A93FBF1F1401C52
:10081000294480B20DB20428E9D3E81705EB9070A3
:10082000871036F92490B8F80280012505EBC50041
:1008300000EB0511601909EB810226F8202006EB78
:10084000800105FB07824A800AEB800080B2042207
:1008500000F0D2FB6D1CADB2052DE7D389E6002870
:1008600008D0007808B1012200E000220221D64819
:1008700001F0FDBF7047002808D0007808B10122C0
:1008800000E000220221D04801F0F1BF70470028AB
:1008900008D0007808B1012200E000220221CA48F5
:1008A00001F0E5BF704710B5040014D0207808B1FE
:1008B000012200E000220221C34801F0D8FF207885
:1008C000002808D000210846FFF761FD0021BDE89F
:1008D000104008464EE510BD10B5040014D0207835
:1008E00008B1012200E000220421B74801F0BFFF57
:1008F0002078002808D000210846FFF767FD002176
:10090000BDE81040084653E510BD10B504001BD0EB
:100910002078012200B100220121AB4801F0A7FF9D
:1009200020784FF000010028084606D0FFF72FFD81
:100930000021BDE8104008461CE5FFF747FD0021F7
:10094000BDE81040084633E510BD10B500280FD0B3
:1009500001781F209D4C88430021A0700846FFF7B6
:1009600009FD0122A11CBDE81040104600F044BB67
:1009700010BD70B5040029D021781F20934D884305
:100980000021E8700846FFF713FD20784FF00102C0
:10099000400602D585F8432002E0002085F8430098
:1009A00095F8430000B100220121874801F05FFF64
:1009B0000122E91C40F2011000F01EFB8349BDE852
:1009C000704001224331CB2000F016BB70BD0028DF
:1009D00013D07E491F228B789A4391F8463003F05A
:1009E000010342EA831391F84720097A43EAC212CD
:1009F00001F0010142EA41110170704700280FD057
:100A000072491F22CB789A4391F84330497A03F018
:100A1000010342EA831201F0010142EA411101702F
:100A20007047002806D069498A8952100270898966
:100A3000C90141707047002809D06449B1F85210CB
:100A400001F00F0201F4706142EA11110170704768
:100A5000002803D0CAB201465D487DE470470028F3
:100A600004D0CAB201465A48801E75E470470A464F
:100A70000021084601F0D4BA2DE9F0470346FF25CE
:100A8000504E0027092089462C464FF48062A43638
:100A900006EB80014988914201D225460446292D62
:100AA0000BD806EB85014988914206D2292C04D83F
:100AB00006EB84014988994207D2401CC0B229281C
:100AC000E6D9292D2CD8292C2AD806EB8500478871
:100AD000D81B04F01DFF804606EB84004088C01B35
:100AE00004F016FF0146404604F014FE074636F9AE
:100AF000240036F92540001B04F00AFF394604F0B3
:100B00001FFF0546204604F003FF294604F0A0FD20
:100B10000446484604F0FCFE214604F099FD0746D1
:100B2000384604F0B9FE00B223E510B50346084686
:100B300008E003EB400433F810106488A14204D2AB
:100B4000401CC0B29042F4D3FF2010BD2DE9F0410B
:100B500007460846164604F0D9F900221D4B04F05A
:100B60007DF804460D4607FB06F004F0CFF900229D
:100B7000194B04F073F822462B4603F0B3FF03F041
:100B80007FFF164904F0DCFE04F086FE00B2BDE8EB
:100B9000F08130B5002311E01A460BE030F8125016
:100BA00030F81340A54203D920F8124020F8135022
:100BB000521CD2B28A42F1D35B1CDBB28B42EBD324
:100BC00030BD00005801002000080140A4020020B0
:100BD000060000200000594000408F400000C8423D
:100BE000F8B5002507460E46ADF800502C460AE041
:100BF0006946384600F09AFF012802D1BDF800008E
:100C00000544641CE4B2B442F2D3A8B2B0FBF4F0E1
:100C1000F8BD2DE9F047DA4C64230026B4F91E1024
:100C2000208D658D4843694390FBF3F091FBF3F110
:100C3000228C012710448D18A28BDFF848934FF4C3
:100C400000514FF00208824206D90022484601F0C6
:100C50000EFE84F846600FE0628B824206D20022CC
:100C6000484601F004FE84F8467005E0012248463B
:100C700001F0FDFD84F84680A08B4FF48041A8422E
:100C800006D90022484601F0F2FD84F8476070E47E
:100C9000608BA84206D20022484601F0E8FD84F8A5
:100CA000477066E40122484601F0E1FD84F8478080
:100CB0005FE410B5B34C01225103204601F0D7FD8B
:100CC00001229103204601F0D2FDAD4801215430AC
:100CD000FFF7C5FDAA4801215530FFF7CCFDA84814
:100CE00001215630FFF7D3FDA54801214130FFF720
:100CF000DAFDA34801214230FFF7EEFDA0480121B3
:100D0000BDE81040433000E62DE9F04100210846DF
:100D1000FFF76DFBFFF77DFF9B4F4FF400684146E7
:100D2000384601F08CFD964C01250026217A884238
:100D30000FD04146384601F082FD08B1257200E02F
:100D4000267200210846FFF715FB00210846FFF731
:100D50001EFB4FF480584146384601F070FD617A21
:100D6000884211D04146384601F069FD08B16572EC
:100D700000E0667200210846FFF71AFBBDE8F0416B
:100D800000210846FFF722BB01E72DE9F0417F4D26
:100D90007F4E7D4829787A4C06F1200705295CD2E0
:100DA000DFE801F0030A1123350010210820FFF7C6
:100DB00017FF208501204FE010210720FFF710FFCB
:100DC0006085022048E00122202101F050FD00242E
:100DD00001210620FFF704FF800827F81400641C97
:100DE000E4B2102CF4D3032036E00022202101F0DD
:100DF0003EFD002401210620FFF7F2FE800826F8C0
:100E00001400641CE4B2102CF4D3042024E010215C
:100E10005F48FFF7BEFE0120002136F81020401C7D
:100E2000C0B211440F28F8D30E26B1FBF6F0E085CE
:100E3000574810212030FFF7ACFE0120002137F881
:100E40001020401CC0B211440F28F8D3B1FBF6F0BB
:100E5000A08500F01AF80020287098E60920704755
:100E60003120704710B500F0C3FD454A9189D1810A
:100E70009081917D11B1022906D1908A92F91010CA
:100E8000494200EB4100508210BD70B53C4CB4F9B2
:100E90003410A08DFFF7F0FD2086B4F93810E08DF6
:100EA000FFF710FB6086B4F930200021002A00DA39
:100EB0002186002800DA6186B4F93210B4F93000D6
:100EC00000F00BF80546208E00F047F82F4C6080AC
:100ED000284600F042F8A08070BD70B540F6C412FC
:100EE000904201DA6E2070BD01F1C802824202DB3D
:100EF0004FF4617070BD401A04F00AFD254904F0FA
:100F000009FC04F079FB02460B460020224903F05D
:100F10008DF803F0B5FD04F06FFB03F07FFD03F0E7
:100F2000AFFD4FF07E560446314604F0DDFD054628
:100F30003146204604F08CFB184904F001FD294697
:100F400004F0E8FB1649884202DB1649884200DDBE
:100F5000084604F0BDFC80B270BD10B50021044607
:100F600008460A23B4FBF3F203FB12448C402044EE
:100F7000091DC9B280B214460C29F3D910BD000076
:100F8000A4020020001001400008014002000020DF
:100F90001801002000007A44000024400000C842EC
:100FA0000000DC420000614470B5624947F2FF1462
:100FB00001220D46204600F006FD01280FD15D4AB2
:100FC000573A92F85700FF2809D1002082F85700BD
:100FD00001222946204600F0C3FC012800D0002051
:100FE00070BD5449FF205739012281F8570057310D
:100FF00047F2FF1000F0B4BC00F5E04080B200F012
:10100000AFBC00F5E04080B200F0DDBC2DE9F0415E
:1010100048485821573802F0D0FE464D3220573DFF
:101020000024E881A881A882434E0BE006EB44101F
:10103000817A022904D1028941680088FFF7E1FF23
:10104000641CE4B2FFF70CFFA042EFD8A8223B4992
:101050004FF4EA4000F0B7FC384A092040F23A76F3
:1010600041F21E474FF4967E4FF4806402EB8003FA
:101070005988A14205D232F92010B14201DBB942B0
:101080000ADD00F10A014FF0640C01FB0CF122F8BB
:1010900020100EEB00115980401CC0B22928E5D960
:1010A000A42227494FF4E84000F08DFC244A082090
:1010B00040F2E24641F2C6174FF0640C02EB8003A7
:1010C0005988A14205D232F92010B14201DBB94260
:1010D00009DD411D4FF0640E01FB0EF122F82010D6
:1010E0000CEB00115980401CC0B22828E6D9154AE3
:1010F00000214FF0006010F8013B9042194489B282
:10110000F9D3A1F50041A5F84410B5F852104FF4F9
:10111000007081420AD0A5F85200BDE8F0410549AF
:101120000222491F47F2E00000F01ABCBDE8F0813E
:1011300070470000FB0200207C5D0008FC010020DD
:101140005801002000800008F94918B10A7802709F
:10115000002000E055200870704770B50B4600284D
:1011600044D04178CA1C934240D10246DBB20024ED
:10117000F04D05E012F8016B66405B1EAC5DDBB222
:10118000002BF7D1002C31D10278512A04D0522AF9
:1011900005D0532A07D025E001F0B0F820E0801CEC
:1011A00000F0E0FF1CE08178C078E44B01EB002008
:1011B00082B2E149002011F8014B9942204480B2EB
:1011C000F9D3DF49DF4B11F8014B9942204480B23B
:1011D000F9D3A0F5004080B2904207D101F08AF81F
:1011E000012803D1BDE870400020ADE770BD0028A4
:1011F00000D0A9E770472DE9FC5F0446002000906D
:10120000E078002810D16078801CC0B2019060792D
:10121000DA280BD0FB2879D0FD286CD0FE287DD0B1
:10122000A07940F01000A071BDE8FC9F94F807B0D1
:101230000A26DFF814935AE034F906A0B61CF0B27F
:101240000422215C401C8846C7B2042900D80A4603
:10125000E119684602F064FD07EB0800C6B20025FC
:1012600041E009EB4510018851453AD1BBF1000F2F
:1012700009EB451529D0D5E90301884206D0009A2B
:10128000904201DC914201DA20211CE0A0790A2879
:101290002DD1686818B1E119424602F041FDAA69F2
:1012A00012B1298968689047A87A02281FD1288836
:1012B00042466968FFF7A0FEC8B9E019FF2241461F
:1012C00002F073FD9021A17111E0696819B12A89BA
:1012D000E01902F025FDEA694AB12989686890475A
:1012E00005E06D1CEDB2FFF7BBFDA842B9D801982F
:1012F0008642A1D398E7E07901280BD1207A38B152
:1013000000F0F8FFA1790843A07103E024E005E0B4
:1013100000F0F4FF082060700E2215E0E079844DA3
:10132000B8B1617A04F10B0000F01CFFA179084309
:10133000A07168880921401C6880617007212171B3
:101340006072000AA0720F220021084600F068FEB9
:101350006AE700206880EBE77C4908687C4A00F473
:10136000E06040EA02000860BFF3408FFEE730B55E
:101370000020087055204870AA2088707548CB1C42
:1013800090F84020CA700C790120A41C03E01D5C79
:101390006A40401C80B28442F9D81A540879084443
:1013A000401A801D80B230BD2DE9F04705460E463B
:1013B000904699460024684F5AE004EB840328784D
:1013C00017F82310884251D1012E0FD804EB840066
:1013D00007EB80004268C8F800200289A9F80020C5
:1013E0000269002A48D0018940683CE0711EC0B201
:1013F000022289B28846B2EB101F26D0722803D091
:10140000012007EB83040EE004EB840007EB80006F
:10141000C268002A30D0681C25E02A5C811C636801
:10142000401CC0B25A54B042F7D3002000F0C9FDAE
:1014300000206168FFF79BFF62680146FE20107084
:10144000E268002A18D060680DE004EB840007EB26
:101450008004721E691C606802F062FCE268002A67
:101460000AD060684146BDE8F0471047641CE4B20A
:10147000FFF7F4FCA042A0D8BDE8F08710B53749CB
:10148000374800F010FD002000F08CFDBDE8104052
:10149000002000F072B870B50024204600F012F869
:1014A00005000AD0E81CFFF7A6FE29462046FFF7F4
:1014B0005EFF0146204600F05EF8641C14F0FF0455
:1014C000EBD070BD7CB504466A4601A900F099FDD9
:1014D000BDF80010D9B101980379C3B1891F8B42BF
:1014E00015D11C49027891F84010914201D0FE2A92
:1014F0000AD14278552A07D18278AA2A04D1C27823
:10150000914206D0FE2A04D0204600F05AFD002069
:101510007CBDC41C01219D1C03E0665C7240491C1B
:1015200089B28D42F9D8615C91421BD004211EE042
:10153000120000209C6300080080000800F00008F2
:1015400000700008000001087C5D00080CED00E060
:101550000400FA05A4020020C85C0008A9130008D2
:1015600000540040C1799B1E994202D00321817131
:101570007CBD0021FBE700F0DABD38B50446FFF77B
:1015800013FD01281FD10020FFF7DEFD0022694670
:10159000204600F036FD009908200871A02048710F
:1015A000002088710620C871FD2008720A20487248
:1015B00001208872C87208732046FFF7D8FE0146E2
:1015C0002046FFF7D8FF38BDF8B5002001F0D3FB67
:1015D0000121244801F065FC012144F21D2001F0A5
:1015E00057FC4FF4E06000F093FE25208DF80000DA
:1015F00001248DF802408DF80340684600F08DFE0E
:101600001F208DF8000003208DF802008DF80340A4
:10161000684600F082FE0121134801F045F90024DC
:10162000124E022706EB04156946A888ADF80000A3
:101630008DF80270287B8DF80300286801F0A9F866
:10164000A86810B1012101F02FF9641C212CE9D305
:1016500000F042FA00F0EBFC00F0E5FBBDE8F840DA
:1016600000F0E4B90100600000023000CC64000822
:101670007047FEE7FEE7FEE7FEE7704770477047FA
:1016800070470000444810B5016841F00101016055
:101690004168424A114041600168414A114001607D
:1016A000016821F480210160416821F4FE0141605C
:1016B0004FF41F0181600021C16200F036F8394902
:1016C0004FF00060086010BD30B5334A5068364BAB
:1016D000364910F00C0004D0354C042803D00828FB
:1016E00003D00B6017E00C6015E05068536800F4FD
:1016F00070104FF0020513F4803F05EB904007D0C7
:10170000D36A03F00F035B1CB4FBF3F34343E8E736
:10171000284B584308605068244AC0F30310121D38
:10172000105C0A68C2400A6030BD1B4900200A688C
:1017300042F480320A604FF4A0630A6800F10100AD
:1017400012F4003F01D19842F7D10868800321D5F7
:10175000486848604868486048684860486820F4BD
:101760007C104860486840F480304860086840F069
:101770008070086008688001FCD5486820F003008C
:101780004860486840F0020048604868C0F3810043
:101790000228FAD170470000001002400000FFF854
:1017A000FFFFF6FE08ED00E000127A0018000020AE
:1017B00000C0A80000093D0058B101280BD0022844
:1017C0000BD003280BD15248012A00D0002201F08F
:1017D0004EB85048F8E75048F6E75048F4E77047ED
:1017E00010B504464A788088E188EAB1012A0FD012
:1017F000022AC0B24FF0000206D0FFF7DDFF2088BA
:101800006188C0B2012211E0FFF7D6FF618820880D
:101810000022C0B2FFF7D0FF782003F025F920881E
:101820006188C0B201220AE0C0B20022FFF7C4FF03
:10183000782003F019F920886188C0B20022BDE841
:101840001040B9E72DE9F041904604460E46FFF7F7
:10185000C7FF002529E032787068012A05D0A8402A
:1018600018EA000F03D0012702E0E840F8E700275C
:10187000782003F0F9F820896189C0B23A46FFF771
:101880009BFF782003F0F0F8A088E188C0B2012225
:10189000FFF792FF782003F0E7F8A088E188C0B254
:1018A0000022FFF789FF6D1CEDB2B078A842D2D8B4
:1018B000F02003F0D9F83146204600F003F801206B
:1018C000BDE8F08110B504464A7800886188AAB165
:1018D000012A09D0022A02D0C0B2012201E0C0B21E
:1018E0000022BDE8104067E7C0B20022FFF764FFA6
:1018F000282003F0B9F861882088EDE7C0B2012202
:10190000FFF75AFF282003F0AFF861882088E6E748
:101910000014014000080140000C0140001001408B
:101920001CB506228DF8022001228DF8002000222D
:101930008DF8012020220192084A824202D00C3206
:10194000824205D1A1F10E020A2A01D8491CC9B26E
:101950000A466946FFF776FF1CBD0000B464000824
:101960002DE9FE4307468846164600244FF47A794F
:101970001EE03819010A8DF808108DF8090000F0F2
:101980003F00C0F14005301BA84200D20546E9B235
:1019900008EB0400CDE90001022302AAA0211248AD
:1019A00000F039FA002848460AD003F05DF82C44CC
:1019B000B442DED30120B44200D00020BDE8FE8353
:1019C00003F052F8F6E70EB5030A8DF808308DF8EB
:1019D0000900D0B2CDE90010022302AAA0210248DA
:1019E00000F000FA0EBD00000058004000F0CEB834
:1019F0001FB500208DF80C00022102A8CDE90001DE
:101A0000012303AA9021084800F0ECF99DF8080092
:101A1000000201B29DF8090004B00843C11700EBB1
:101A20005160C01110BD0000005800403EB54FF697
:101A3000FF70ADF8040027484FF416414FF0804482
:101A40000068B0FBF1F0401EADF800000020ADF8DA
:101A50000600ADF802006946204601F009FB0121AD
:101A6000204601F09DFD3EBD10B50C4601F083FF00
:101A7000A06010BD2DE9F0410C46154601F07BFF3A
:101A80002189401A81B20120B5F5803F04DAA942CC
:101A900000DA0020BDE8F08162684FF6FF76130C93
:101AA0001B0463602778002247B1B1420CD2A1F534
:101AB0007F40FE3800D122700B4304E0B14203D1D5
:101AC000207003F580336360AB42E2D30120626093
:101AD000E0E700001800002010B586B000214FF4A8
:101AE0006020CDE902018DF8041001204D4C0091D9
:101AF0008DF805108DF810006946204600F07CFC3A
:101B00000121204600F0A0FC204600F0BAFC20464F
:101B100000F0BCFC0028FAD1204600F0BEFC2046B4
:101B200000F0C0FC0028FAD106B010BD2DE9F0414C
:101B30000F004FF0000510D0DFF8E88001460223C7
:101B400001224446404600F0D7FC0121204600F027
:101B5000B0FC00244FF4FA6606E02846BDE8F081A8
:101B6000641CA4B2B44205D20221404600F092FDAA
:101B70000028F5D0B44204D0404600F001FD388082
:101B800001250021404600F094FCE6E770B5254EA3
:101B9000072301221021304600F0AEFC012000F0A6
:101BA0006DFD0121304600F084FC00244FF4FA65FD
:101BB00003E0641CA4B2AC4205D20221304600F01E
:101BC00069FD0028F5D0AC421DD0304600F0D8FCAD
:101BD00003F0B3F94FF06632134B03F0FDF96FF0E9
:101BE0000B0204F028F8114A114B03F029FB0022E4
:101BF000104B03F033F800220F4B02F073FF02F09A
:101C00003FFF044600E000240021304600F051FC74
:101C1000002000F033FD204603F03EFE400000B2FD
:101C200070BD00000024014066660A408FC2F5289E
:101C30005C8FF63F00CCB040000039402DE9F04108
:101C4000CD4D284600F0D7FFCC4F0022C11BCC4E13
:101C5000CC4C4FEA7733B8422DD008DC102835D071
:101C6000B0F5806F5ED0B0F1021F08D120E0A1F581
:101C7000802140393FD002293CD004293BD022802A
:101C800062801946284600F0CFFF0021284600F068
:101C9000FEFE3146284600F0D8FF4FF001212846CD
:101CA00000F0D3FFB849284600F0CFFFB7493AE02B
:101CB0002280BDE8F081284600F023FF2188B44B44
:101CC000C1F30802491C98542180F2E719462846BE
:101CD00000F0AAFF0021284600F0D9FEE568002D9B
:101CE000E7D02188AC46BDE8F041A64BA8481B1DB3
:101CF0001A1D60476280A1680029DAD06088095CFB
:101D0000401C6080284600F0FAFE0A2101EB4102E7
:101D1000002002EBC10101E0401C80B2B0EB410F9A
:101D2000FAD3C6E731462846BDE8F04100F08DBF42
:101D300070472DE9FF5F4FF0000BDDE90E97DFF8EC
:101D400054A290461E465D460121009800F095FE83
:101D50009149009800F0AAF8D8B3DDE9000100220B
:101D600000F0D2FE8B490098891C00F09FF880B3E8
:101D700000240BE018F80410009800F0C0FE514653
:101D8000009800F093F818B1641CE4B2B442F1D3A7
:101D9000B4421FD100240BE019F80410009800F0A1
:101DA000AEFE5146009800F081F818B1641CE4B210
:101DB000BC42F1D3BC420DD176490098091D00F018
:101DC00075F830B10121009800F061FE4FF0010B71
:101DD00004E0FFE76D1CEDB2032DB5D3584604B007
:101DE000BDE8F09F2DE9FC4104460020DDE90867CD
:101DF000009001900D462046FFF79BFF012807D178
:101E00003B4632462946204600F068F8012800D0BB
:101E10000020BDE8FC817CB5DDE90645CDE9004543
:101E2000FFF787FF7CBD2DE9FF41DFF84C8140467D
:101E300000F08CFD4FF480440E200026ADF8080021
:101E4000ADF804602711554DADF80640ADF80A70A5
:101E5000ADF80C4001214046009500F0F0FD6946C8
:101E6000404600F086FD01224FF4C061404600F07C
:101E70003EFEDFF82C81404600F068FDADF80460BE
:101E80004BF6FF70ADF80600ADF80A70ADF80C40E7
:101E900001214046009500F0D2FD6946404600F021
:101EA00068FDBDE8FF813748C16070472DE9F0410A
:101EB00006460F4600244FF47A7503E0641CA4B272
:101EC000AC4205D23946304600F089FE0028F5D0F4
:101ED000AC4201D10020ECE60120EAE62DE9FF5FEB
:101EE0004FF00009DFF8B0B090461D464E46012184
:101EF000009800F0C2FD59460098FFF7D7FF80B365
:101F0000DDE90001012200F0FFFD23490098491C92
:101F1000FFF7CCFF28B3DFF880A000246F1E0AF182
:101F20003F0A17E0012D01D0BC4207D100210098E3
:101F300000F0B7FD0121009800F0A9FD514600987E
:101F4000FFF7B4FF40B1009800F0DBFD08F8040093
:101F5000641CE4B2AC42E5D3AC4203D14FF00109BA
:101F600004E0FFE7761CF6B2032EC0D301210098EF
:101F700000F097FD484632E7005400404000020060
:101F8000000400012C0000200008000100100001E6
:101F9000080300208000070001000300A086010064
:101FA000005800406C496D4A01EB402100EB4000B5
:101FB00042F8201002EB8000002101818180C18065
:101FC000704700EB40026548002100EB8200018170
:101FD0008180C180704730B5604C00EB400304EB5A
:101FE0008300018959B1C288D5B2521CC2F30802DC
:101FF000C280491E018154F82300284430BD0020CE
:1020000030BD10B5554B00EB400011B153F82040E6
:102010000C60002A03D003EB80000089108010BD03
:102020004E4900EB400001EB8000028170477FB514
:102030004FF4165000900020ADF80400ADF80600F3
:10204000ADF80800ADF80C000C20454CADF80A00C6
:102050006946204601F0DCFC40F225552946204621
:1020600001F02EFE40F226663146204601F028FEA1
:1020700001222946204601F04DFD0122314620462D
:1020800001F048FD0121204601F03AFD7FBD70B509
:10209000334E40F226642146304601F0F2FD002521
:1020A00001280DD040F225542146304601F0E9FDCB
:1020B000012814D0FFF7BBFFBDE87040002080E787
:1020C0002146304601F0FCFD0020FFF784FF0400AC
:1020D00004D02178304601F069FD257070BD21469D
:1020E000304601F0EDFD1C494FF08044C0220C3910
:1020F0002046FFF7BFFC012802D10020FFF761FF57
:10210000154920460C39FFF7AFFC304601F052FD6F
:1021100012498A880B6898548888401CC0F30800CC
:1021200088800889401CC0F30800088170BD0B4AF4
:1021300000EB400310B502EB830211810021D18036
:10214000FFF749FF002805D00178BDE8104004489A
:1021500001F02CBD10BD0000140500201407002064
:10216000003801402DE9F05F0746DFF89881A1F5BE
:102170007F400D464FF00009FE3804D188F80090EA
:10218000C8F80490B4E0604CA5F57F40FF3845D115
:1021900004F04FFF342005F058F998F8000004EBE4
:1021A000802004F080FF04286DD198F800102746A5
:1021B000002504EB81240DE008EB05062046B168FC
:1021C00005F00FF8042875D1B0682168884271D1F4
:1021D0002D1D241DD8F80400C0F30900A842EBD837
:1021E000D8F80410494ECD190CE00021204604F027
:1021F000F8FF04285ED108EB05002168806888425A
:1022000058D12D1DB542F0D304F01FFF88F800907F
:10221000C8F80490FEF7E5FE05F04CF937B1002050
:102220008B464FF4E042D8F8049012E00020BDE85D
:10223000F09FC1F3090141443B5C0B72D8F80410D4
:1022400000F10100491CC8F80410890501D183463A
:1022500009E0A84203D2D8F804109142E9D9D8F88D
:102260000400800544D104F0E4FE342005F0EDF8CC
:1022700098F80010264604EB812004F014FF04288F
:1022800002D0C8F8049015E098F80010002406EB7E
:102290008126C2460AEB04083046D8F8081004F03C
:1022A000A0FF042804D1D8F808003168884204D07F
:1022B000CAF8049004F0C9FEB8E7241D361DB4F531
:1022C000806FE7D304F0C1FE9AF800005146401C2D
:1022D0008AF80000584609E04B683A5CC3F30903EA
:1022E0000B441A724A68521C401C4A60A842F3D33D
:1022F00001209CE74FF6FF71002033E74FF6FE7197
:1023000000202FE7200700200080000800F00008D0
:102310002749084327490860704770B50F24C278E1
:10232000017801254FF0E026DAB1224A126802F462
:10233000E062C2F5E062120AC2F10403D4404278BE
:102340009A408378234013431A011B4BCA540078E8
:1023500000F01F018D40400906EB8000C0F80051DD
:1023600070BD01F01F008540480906EB8000C0F8F1
:10237000805170BD114A114001430E48001F016099
:1023800070470C4A121D0029116801D0014300E07A
:102390008143116070474FF0E0210428086903D0A1
:1023A00020F004000861704740F00400FAE70000E4
:1023B0000000FA050CED00E000E400E080FFFF1FE4
:1023C000C24910B5884202D1012144150AE0C04932
:1023D000884202D10121041504E0BE4988420AD195
:1023E0000121CC03204600F065FD2046BDE81040E9
:1023F000002100F05FBD10BD10B54268B64B0C79EE
:102400001A400B6842EA0422134343608268B34BCC
:102410001A40D1E9024323434C7942EA4402134370
:102420008360C26A097C22F47002491EC9B242EA82
:102430000151C16210BD00210160017141718160D3
:10244000C1600121017470470029816802D041F008
:10245000010101E021F001018160704700298168DC
:1024600002D041F4807101E021F4807181607047F5
:10247000002A4268C9B201D00A4300E08A434260A0
:102480007047816841F00801816070470146002073
:102490008968090700D501207047816841F004016F
:1024A00081607047014600208968490700D50120F6
:1024B00070470029816802D041F4A00101E021F4B5
:1024C000A00181607047014600208968490200D55B
:1024D000012070474268491E22F4604242EA4131BD
:1024E000416070470029416802D041F4006101E079
:1024F00021F400614160704770B5072609290AD9A7
:10250000C568A1F10A0404EB4404A640B543A34006
:102510001D43C56007E0056901EB4104A640B543D2
:10252000A3401D4305611F23072A09D2446B521E95
:1025300002EB820293409C4391400C43446370BD84
:102540000D2A09D2046BD21F02EB820293409C43F6
:1025500091400C43046370BDC46A0D3A02EB8202E1
:1025600093409C4391400C43C46270BD0029816834
:1025700002D041F4801101E021F4801181607047A4
:10258000C06C80B2704751484C30006870470029D9
:10259000416802D041F4806101E021F48061416032
:1025A00070470029416802D041F4805101E021F4D4
:1025B000805141607047826822F4E0420A438260A1
:1025C00070470029816802D041F4004101E021F404
:1025D0000041816070470029816802D041F40211F6
:1025E00001E021F4021181607047014600208968F2
:1025F000890200D50120704770B5072609290AD93C
:10260000C568A1F10A0404EB4404A640B543A34005
:102610001D43C56007E0056901EB4104A640B543D1
:10262000A3401D430561836BC3F30154121B921C2D
:1026300002EB82021F249440A34391400B43836327
:1026400070BD826B491E22F4401242EA015181633F
:102650007047425070470844806A80B270474268B1
:102660001F4B1A400A4342607047416282627047C2
:10267000426822F01F020A43426070471349083142
:102680000028086802D040F4000001E020F40000B7
:10269000086070470246002012680A4200D00120FC
:1026A0007047C9430160704710B502460020546866
:1026B0000B0AC9B20C401168194202D0002C00D09C
:1026C000012010BD6FEA1121016070470024014014
:1026D00000280140003C0140FFFEF0FFFDF7F1FF44
:1026E000FFFD3FFF8F4910B5884206D1012104202C
:1026F00000F0E0FB002104203BE08B49884206D13A
:102700000121082000F0D6FB0021082031E0874994
:10271000884206D10121102000F0CCFB00211020BE
:1027200027E08349884206D10121202000F0C2FB26
:10273000002120201DE07F49884206D10121402050
:1027400000F0B8FB0021402013E07B49884206D10D
:102750000121802000F0AEFB0021802009E07749B4
:1027600088420AD184150121204600F0A3FB0021F4
:102770002046BDE8104000F09DBB10BD10B5012102
:10278000084600F097FB0021BDE81040012000F052
:1027900091BBF0B5CC78002204F00F03E40601D51C
:1027A0008C7823430C884FF00F0C14F0FF0F4FF080
:1027B000010E1AD005680E880EFA02F42640A642D1
:1027C0000FD196000CFA06F7BD4303FA06F635431F
:1027D000CE78282E02D0482E02D002E0446100E0DC
:1027E0000461521C082AE6D305600A88FF2A1DD915
:1027F0004568002202F108060EFA06F40E8826400B
:10280000A6420FD196000CFA06F725EA070703FA4D
:1028100006F5CE783D43282E00D14461CE78482E6F
:1028200000D10461521C082AE4D34560F0BD4FF684
:10283000FF710180022181700421C170704702463E
:10284000002092680A4200D001207047806880B260
:10285000704702460020D2680A4200D0012070472B
:10286000C06880B2704701617047416170470AB12A
:102870000161704741617047C160704741F4803227
:102880008261816182618169806970472C4B10B5DA
:102890001A684FF68074224042EA0010084318601C
:1028A00010BD2849C8617047F0B5254C002801DAF1
:1028B000E36900E06368420D120185B2C0F301577D
:1028C0009540C0F30346032F05D0C2020AD5032268
:1028D000B240934307E023F07062636823F07063B3
:1028E000636002E0AB4343F0706201B12A43002809
:1028F00001DAE261F0BD6260F0BD10B58A0721F037
:1029000003040F49120F21440F238C6893409C430A
:102910008C608B68904003438B6010BD0A4908604F
:102920007047000000080140000C01400010014009
:102930000014014000180140001C0140002001402B
:102940000000014000002042DC002042C04910B5D8
:1029500088424FF0010101D14C0501E04FF48004A1
:10296000204600F0B0FA2046BDE81040002100F0FB
:10297000AABA70B50446808886B00D4620F03F069E
:10298000684600F033FAB3490298B0FBF1F189B21E
:102990000E43A680228822F001022280AE4B2A68D4
:1029A0009A421CD85200B0FBF2F080B2042800D248
:1029B0000420491C2184A083208840F0010020804D
:1029C00020884FF6F5310840A9886A8911430143F0
:1029D0002180A88929890843208106B070BDEB8831
:1029E000A3F53F46FF3E05D102EB4202B0FBF2F0F9
:1029F00080B208E002EBC20303EB0212B0FBF2F07C
:102A000080B240F48040020501D140F001004FF453
:102A1000967251434FF47A72B1FBF2F140F40040E8
:102A2000C7E741F288310160002181804BF6FF72D7
:102A3000C280018141814FF480418181704700292A
:102A4000018802D041F0010101E021F00101018083
:102A500070470029818802D041F4006101E021F42F
:102A60000061818070470029818802D041F4805143
:102A700001E021F48051818070470029018802D053
:102A800041F4807101E021F48071018070470029D8
:102A9000018802D041F4007101E021F4007101804D
:102AA00070470029018802D041F4806101E021F4DF
:102AB000806101807047828901F0FE0122F0FE02F0
:102AC0001143818170470029818902D041F00101C1
:102AD00001E021F00101818170470029018802D0C5
:102AE00041F0400101E021F0400101807047002ADF
:102AF000828801D00A4300E08A43828070470182C5
:102B00007047008AC0B2704712B141F0010101E084
:102B100001F0FE0101827047405A70470029018888
:102B200002D041F4004101E0C1F30E010180704781
:102B3000B1F5006F018803D021F400610180704776
:102B400041F40061FAE7B1F5005F018803D021F498
:102B500000510180704741F40051FAE700290188D3
:102B600002D041F4805101E021F48051018070478E
:102B7000B1F5006F018803D021F400610180704736
:102B800041F40061FAE70029018802D041F02001F8
:102B900001E021F0200101807047008B000A70479E
:102BA0000029018802D041F0100101E021F010015C
:102BB000018070470029018803D021F08001018045
:102BC000704741F08001FAE7B1F5804F818B02D068
:102BD00021F4804101E041F4804181837047034644
:102BE00000209A8A1B8B42EA034222F07F429143E3
:102BF00000D101207047818A008B41EA004121F019
:102C00007F40704700220B0F21F07F4101D014302C
:102C100001E0090C18300068084200D0012210467B
:102C20007047C9438182704710B5024600209388DF
:102C300001F0E064928A03EA144321F07F410A42E2
:102C400002D0002B00D0012010BDC9438182704703
:102C50000054004040420F00A0860100AC480168CB
:102C600041F0010101604168AA4A114041600168D8
:102C7000A94A11400160016821F480210160416886
:102C800021F4FE0141604FF41F0181600021C16207
:102C900070479F490A6822F480320A600A6822F469
:102CA00080220A60B0F5803F07D0B0F5802F03D1B5
:102CB000086840F4A02008607047086840F480303D
:102CC000F9E7034600205909914A01290AD002294F
:102CD0000AD0516A03F01F02012393400B4200D037
:102CE000012070471168F5E7116AF3E730B5002459
:102CF0004FF4A0653120FFF7E4FF641CAC4201D023
:102D00000028F7D03120FFF7DCFF002800D0012099
:102D100030BD7F4A116821F0F80141EAC00010601F
:102D200070477E4908607047794B5A68084322F41F
:102D30007412104358607047784908667047744BA6
:102D400010B5DA6A764C084322401043D86210BDB1
:102D50006F4A516821F003010143516070476C488C
:102D6000406800F00C007047694A516821F0F0019A
:102D7000014351607047664A516821F4E0610143A4
:102D800051607047624A516821F4605141EAC000C5
:102D9000506070475E4A0029517A01D0014300E03B
:102DA0008143517270475F4908607047584A5168C3
:102DB00021F440410143516070475B4900220A7091
:102DC00001F82029012802D0042802D1052081F829
:102DD000200070475549086070474D490A6A024310
:102DE0000A627047514944390860704730B5484A13
:102DF00051684F4B11F00C0104D04E4C042903D004
:102E0000082903D0036017E0046015E05168536897
:102E100001F470114FF0020513F4803F05EB91416E
:102E200007D0D36A03F00F035B1CB4FBF3F34B43EF
:102E3000E8E7414B594301605168404B01F0F00114
:102E400009095C5C0168E1404160546804F4E06495
:102E5000240A1C5D21FA04F48460546804F460546C
:102E6000E40A1B5DD940C1605268344B02F4404211
:102E7000920B1B1F9A5CB1FBF2F1016130BD244A39
:102E80000029516901D0014300E08143516170473D
:102E90001F4A0029916901D0014300E081439161FB
:102EA00070471B4A0029D16901D0014300E08143EA
:102EB000D1617047164A0029D16801D0014300E072
:102EC0008143D1607047124A0029116901D0014342
:102ED00000E0814311617047144940390860704730
:102EE0000E49C86470470A49C87170470848416A6A
:102EF00041F0807141627047054A014600209268A6
:102F00000A4200D0012070470149887270470000D2
:102F1000001002400000FFF8FFFFF6FE00004242F2
:102F2000F0FFFEFFD80042422010024080044242DF
:102F300000127A0000C0A80000093D0040000020F7
:102F4000FA4910B5884202D10121C41486E0B0F1DB
:102F5000804F09D0F64988420DD101210220FFF7A8
:102F6000B2FF0021022064E001210846FFF7ABFF19
:102F7000002101205DE0EF49884206D101210420B3
:102F8000FFF7A1FF0021042053E0EB49884206D15E
:102F900001210820FFF797FF0021082049E0E749B9
:102FA000884206D101211020FFF78DFF002110205B
:102FB0003FE0E349884206D101212020FFF783FF4B
:102FC0000021202035E0DF49884202D1012144144C
:102FD00044E0DD49884202D10121CC043EE0DB49D6
:102FE000884202D101210C0538E0D949884202D13A
:102FF00001214C0532E0D749884206D10121402009
:10300000FFF761FF0021402013E0D349884206D139
:1030100001218020FFF757FF0021802009E0CF49E0
:1030200088420AD1841501212046FFF74CFF002178
:103030002046BDE81040FFF746BFC949884202D18B
:1030400001210C040AE0C749884202D101214C0445
:1030500004E0C54988420AD101218C042046FFF7CB
:1030600029FF2046BDE810400021FFF723BF10BD17
:1030700030B50288AD4CB34DA0420DD0A8420BD064
:10308000B0F1804F08D0AA4B984205D0A94B984286
:1030900002D0A94B984203D122F070034A881A4308
:1030A000A64B984206D0A64B984203D022F4407318
:1030B000CA881A4302808A8882850A880285A042CB
:1030C0000AD0A84208D0A64A904205D0A54A90420C
:1030D00002D0A54A904201D1097A0186012181825C
:1030E00030BD30B5028C22F001020284028C83884C
:1030F000048B22F0020224F073050C882C430D8906
:1031000015434A882A43894DA8420BD08D4DA842C9
:1031100008D0934DA84205D0924DA84202D0924DBE
:10312000A8420DD122F008054A8923F440732A43AE
:1031300022F004058A882A438D891D43CB892B43BD
:1031400083800483C9888186028430BD30B5028CB7
:1031500022F010020284028C8388048B22F0200269
:1031600024F4E6450C88240645EA14440D892D050F
:1031700042EA15454A88120545EA12426B4DA842BB
:1031800002D0704DA84215D122F080054A8923F45F
:103190004063120545EA124222F040058A88120572
:1031A00045EA12428D89AD0443EA1545CB899B045B
:1031B00045EA134383800483C9880187028430BDB4
:1031C00030B5028C22F480720284028C8388848B56
:1031D00022F4007224F073050C882C430D892D060F
:1031E00042EA15454A88120645EA12424F4DA84266
:1031F00002D0544DA84215D122F400654A8923F427
:103200004053120645EA124222F480658A8812066B
:1032100045EA12428D892D0543EA1545CB891B05E8
:1032200045EA134383808483C9888187028430BD43
:1032300030B5028C22F480520284048C8288838B05
:1032400023F4E6450B881B0645EA134324F4005596
:103250000C89240745EA14444D882D0744EA154596
:10326000324CA04202D0374CA04205D122F4804417
:103270008A89920544EA124282808383C988A0F831
:103280004010058430BD828B22F440628283828BA1
:1032900042EA012282837047828B22F00C028283F1
:1032A000828B0A4382837047028B22F4406202833E
:1032B000028B42EA01220283704770B5048C24F02D
:1032C00010040484068B048C26F473461B0746EA1C
:1032D0001343120643EA12420D05144B2D0C98427B
:1032E0000ED0184B98420BD0B0F1804F08D0104B45
:1032F000984205D00F4B984202D00F4B984205D10F
:1033000024F02001294341F0100104E024F0A0033F
:103310000B4343F010010283018470BD028B22F045
:103320000C020283028B0A4302837047002C014087
:103330000004004000080040000C00400010004065
:103340000014004000340140004C01400050014096
:103350000054014000180040001C004000200040C4
:1033600000400140004401400048014030B5048C59
:1033700024F001040484058B048C1B0542EA1343EA
:1033800025F0F305F84A2B4390420ED0F74A9042BD
:103390000BD0B0F1804F08D0F54A904205D0F54AE5
:1033A000904202D0F44A904202D124F0020201E09D
:1033B00024F00A020A4342F001010383018430BD74
:1033C0002DE9F05F0D4604460E88E748DFF89CC300
:1033D000DFF89CA3DFF89CB34988AA882B894FF0BB
:1033E000804E4EB3042E2FD0082E268C34D026F4D7
:1033F00080562684B4F81C90268C0F074FEA174895
:10340000120629F473471B0747EA124242EA1343A4
:10341000224684420BD01046624508D0744506D03F
:10342000504504D05C4502D0D348844243D126F4B1
:10343000005040EA080041E02046FFF797FFE98886
:103440002046BDE8F05F69E72046FFF736FFE988D0
:103450002046BDE8F05F27E726F480762684A78B18
:10346000268C1B0542EA134327F0F3074FEA016855
:103470003B434FEA1848224684420BD0104662452F
:1034800008D0744506D0504504D05C4502D0BA48F7
:10349000844204D126F4007040EA080002E026F4D9
:1034A0002060084340F48070A3832084E98820468C
:1034B000BDE8F05FF0E626F40240084340F4805097
:1034C000A3832084E9882046BDE8F05FDBE62DE990
:1034D000F0410C46002549880746012601B902251E
:1034E000A288012A00D10226208823890028384694
:1034F00010D0FFF7E2FEE1883846FFF7D5FE2389BA
:10350000324629463846FFF731FFE1883846BDE8A4
:10351000F04103E7FFF72AFFE1883846FFF7FEFE98
:103520002389324629463846FFF7C7FEE1883846E8
:10353000BDE8F041B8E610B50A884B88CC881A433C
:103540008B8823431A430B891A434B8989891A4371
:103550000A43A0F8442010BD4FF6FF71818000217E
:103560000180C18041800172DFE60021018041803D
:103570008180C180018141818181C181D5E60021A5
:103580000180418001228280C1800181CDE600213D
:10359000018041808180C180018141818181C4E6B7
:1035A0000029018802D041F0010101E021F0010170
:1035B0000180BAE6002930F8441F02D041F40041EE
:1035C00001E0C1F30E010180AFE6002A828901D03B
:1035D0000A4300E08A438281A7E68182A5E611437F
:1035E000A0F84810A1E6002A828901D00A4300E031
:1035F0008A43828199E6018921F00701018194E6DD
:10360000028922F070020A4302818EE600B5034669
:10361000FFF7F6FF188940F00700188100BD70B56C
:103620000D4611460446602D4FF001020AD0FFF707
:103630009DFE29462046FFF7E3FF208940F0070062
:10364000208170BDFFF739FEF3E710B5048942EA27
:103650000323E4B20B432343038110BD10B504469A
:10366000FFF7F3FF208940F07700208110BD10B5EF
:103670000446FFF7EAFF208940F48040208110BD16
:103680000185828251E6028822F070020A4302809C
:103690004BE670B50589048B068C25F007050D43B4
:1036A0004FF6FC410C4040F201110C4326F022067B
:1036B00042EA0311314305810483018470BD028B0A
:1036C00022F070020A4302832FE6028B22F4E042CA
:1036D00042EA0121018328E6828B22F070020A432C
:1036E000828322E6828B22F4E04242EA0121818336
:1036F0001BE60029018802D041F0800101E021F0A1
:103700008001018011E60029818802D041F0040186
:1037100001E021F00401818007E60029818802D0C0
:1037200041F0080101E021F008018180FDE5002958
:10373000818802D041F0010101E021F00101818086
:10374000F3E5028B22F008020A430283EDE5028BC7
:1037500022F4006242EA01210183E6E5828B22F035
:1037600008020A438283E0E5002C01400034014056
:103770000004004000080040000C0040828B22F44E
:10378000006242EA01218183CFE5028B22F004022C
:103790000A430283C9E5028B22F4806242EA0121D6
:1037A0000183C2E5828B22F004020A438283BCE5D6
:1037B000828B22F4806242EA01218183B5E5028B8B
:1037C00022F080020A430283AFE5028BC2F30E02AD
:1037D00042EA01210183A8E5828B22F080020A439C
:1037E0008283A2E5828BC2F30E0242EA0121818329
:1037F0009BE5028C22F002020A43028495E5028CCA
:1038000022F008020A4302848FE5028C22F0200293
:1038100042EA0111018488E5028C22F0800242EA2A
:103820000111018481E5028C22F4007242EA012137
:1038300001847AE5028C22F4006242EA01210184CB
:1038400073E5028C22F4005242EA013101846CE5F6
:1038500010B50123048C8B409C430484038C8A4064
:103860001343038410BD10B50423048C8B409C4388
:103870000484038C8A401343038410BD30B50124B3
:10388000058C00F118038C40A543058479B1082903
:103890000DD0091F88B203EB5000016821F4E0410C
:1038A000016001681206120C1143016030BD03EB88
:1038B0005100016821F0700101600168F4E70029FE
:1038C000018802D041F0020101E021F002010180F3
:1038D0002BE50029018802D041F0040101E021F02C
:1038E0000401018021E50029818802D041F0800196
:1038F00001E021F08001818017E5028822F00802B2
:10390000028002880A4302800FE5828822F070025A
:10391000828082880A43828007E5028922F00702BA
:10392000028102890A430281FFE4028922F08002B7
:10393000028102890A430281F7E48184F5E48185EA
:10394000F3E48186F1E40187EFE48187EDE4A0F8F8
:103950004010EAE4028822F44072028002880A439E
:103960000280E2E4808EE0E4008FDEE4808FDCE41D
:10397000B0F84000D9E4808CD7E4008DD5E402464D
:103980000020128A0A4200D00120CEE4C9430182FD
:10399000CBE402460020138A92890B4202EA01021C
:1039A00002D0002A00D00120BFE4C9430182BCE458
:1039B000C64910B588420AD101218C032046FFF781
:1039C00079FA2046BDE810400021FFF773BAC049DC
:1039D000884202D101214C0410E0BE49884202D144
:1039E00001218C040AE0BC49884202D10121CC04A7
:1039F00004E0BA4988420AD101210C052046FFF7AC
:103A000062FA2046BDE810400021FFF75CBA10BD05
:103A100030B50D46018A85B004464CF6FF70014072
:103A2000E88808432082A0894EF6F3110840A9884F
:103A30002A8911436A8902431143A181A18A4FF661
:103A4000FF400140A8890843A0826846FFF7CEF9ED
:103A50009E48844201D1039800E00298A18909049C
:103A6000002900EBC00101EB0010296802DA4FEADF
:103A7000410101E04FEA8101B0FBF1F06422B0FBAB
:103A8000F2F14FEA01114FEA11136FF018056B4381
:103A900000EB8300A3891D044FF0320306D503EB2E
:103AA000C000B0FBF2F000F0070005E003EB0010EF
:103AB000B0FBF2F000F00F000843208105B030BDEC
:103AC0004FF41651016000218180C18001810C22D8
:103AD00042818181704710B5028A4FF2FF031A407C
:103AE0000B884C8823438C88C9880C432343134399
:103AF000038210BD0021018041808180C180704718
:103B00000029818902D041F4005101E021F40051E3
:103B10008181704710B5C1F3421301F01F040121E8
:103B2000A140012B07D0022B07D01430002A0268D5
:103B300005D00A4304E00C30F8E71030F6E78A437A
:103B4000026010BD002A828A01D00A4300E08A4345
:103B500082827047028A22F00F020282028A0A439E
:103B600002827047828922F40062828182890A433C
:103B7000828170470029818902D041F0020101E071
:103B800021F0020181817047028A22F02002028224
:103B9000028A0A43028270470029018A02D041F456
:103BA000804101E021F4804101827047C1F30801A6
:103BB000818070478088C0F308007047818941F098
:103BC000010181817047028BD2B20283028B42EAEB
:103BD000012101837047028B02F47F420283028B32
:103BE0000A43028370470029818A02D041F02001F4
:103BF00001E021F02001818270470029818A02D0F2
:103C000041F0100101E021F010018182704700298C
:103C1000818A02D041F0080101E021F0080181828F
:103C200070470029818902D041F4004101E0C1F3CD
:103C30000E01818170470029818A02D041F4006120
:103C400001E021F4006181827047828A22F004023F
:103C50008282828A0A43828270470029818A02D046
:103C600041F0020101E021F0020181827047024629
:103C7000002012880A4200D001207047C943018009
:103C8000704770B501F01F0601250024C1F34213EF
:103C900005FA06F2012B0FD0022B0FD0838A4FEAD0
:103CA00011210088134205FA01F500EA050001D050
:103CB00000B10124204670BD8389F0E7038AEEE756
:103CC0000A0A01219140C943018070470038014030
:103CD0000044004000480040004C004000500040BC
:103CE0000948804709480047FEE7FEE7FEE7FEE790
:103CF000FEE7FEE7FEE7FEE7FEE7FEE704480549CC
:103D0000054A064B7047000085160008210100088F
:103D1000880B002088110020880D0020880D0020CD
:103D2000032A40F2308010F0030C00F0158011F8E7
:103D3000013BBCF1020F624498BF11F801CB00F8BF
:103D4000013B38BF11F8013BA2F1040298BF00F813
:103D500001CB38BF00F8013B11F0030300F05D8098
:103D6000083AC0F0088051F8043B083A51F804CBF7
:103D7000A0E80810F5E7121D5CBF51F8043B40F8BD
:103D8000043BAFF30080D20724BF11F8013B11F8C8
:103D900001CB48BF11F8012B24BF00F8013B00F80C
:103DA00001CB48BF00F8012B704702F0FF0343EA44
:103DB000032242EA024200F002B84FF00002042956
:103DC000C0F0128010F0030C00F05B80CCF1040C0A
:103DD000BCF1020F18BF00F8012BA8BF20F8022B7E
:103DE000A1EB0C0100F04DB85FEAC17C24BF00F8E4
:103DF000012B00F8012B48BF00F8012B70477047DA
:103E00007047704710B500F061F8006810BD10B53C
:103E1000044600F05BF8046010BD10B5203AC0F015
:103E20000B80B1E81850203AA0E81850B1E81850BB
:103E3000A0E81850BFF4F5AF5FEA027C24BFB1E8F8
:103E40001850A0E8185044BF18C918C0BDE8104069
:103E50005FEA827C24BF51F8043B40F8043B08BF72
:103E60007047D20728BF31F8023B48BF11F8012B39
:103E700028BF20F8023B48BF00F8012B70474FF0E5
:103E8000000200B5134694469646203922BFA0E8AA
:103E90000C50A0E80C50B1F12001BFF4F7AF0907B6
:103EA00028BFA0E80C5048BF0CC05DF804EB8900A7
:103EB00028BF40F8042B08BF704748BF20F8022BEA
:103EC00011F0804F18BF00F8012B70470048704771
:103ED000280B002000487047280B00207546FFF78C
:103EE000F9FFAE4605006946534620F007008546B7
:103EF00018B020B5FFF702FFBDE820404FF00006E4
:103F00004FF000074FF000084FF0000B21F00701C1
:103F1000AC46ACE8C009ACE8C009ACE8C009ACE804
:103F2000C0098D4670470446AFF300802046FCF779
:103F300040F90000004870472C0B00200149182070
:103F4000ABBEFEE7260002007047490050EAC120E0
:103F500018BF04204A0D18BF40F0010040F2FF7264
:103F6000B2EB515F08BF40F00200012808BF0520F6
:103F700070472DE9F0414F1E00EBC7010446D1E91F
:103F8000000115461E4637F006020DD02A4633467C
:103F900001F022F87F1E04EBC703D3E9002300F0F1
:103FA000A1FD37F00602F1D1022F25D0042F13D046
:103FB000062F18BFBDE8F0812A46334601F00CF801
:103FC000D4E90A2300F08EFD2A46334601F004F8B6
:103FD000D4E9082300F086FD2A46334600F0FCFFB2
:103FE000D4E9062300F07EFD2A46334600F0F4FFB4
:103FF000D4E9042300F076FD2A46334600F0ECFFB6
:10400000D4E9022300F06EFD2A46334600F0E4FFB7
:10401000D4E90023BDE8F04100F064BD024A00206D
:10402000110701F008BE000001FDFFFF2DE9F04D72
:1040300016460F460546020096B01C4621F0004188
:1040400023F0004014BF4FF0010C4FF0000C0CEBBC
:10405000470CFF4B0CEB03084FEA630CC4452ED80A
:104060005FEA060818BF4FF00108A24608EB4408B3
:104070009844F84B434522D8F74B50EA060C02D03F
:104080009F4205D14AB916B000201946BDE8F08D0F
:10409000002A08BF4FF0000C01D04FF0010C0CEBD0
:1040A000470313F5001F0AD8002E14BF4FF0010C70
:1040B0004FF0000C0CEB4A0313F5001F08D916B0A3
:1040C0003246234628463946BDE8F04D00F00ABD89
:1040D000DFF888B34FF0000A002FB8BF584523DA45
:1040E000DF4B9842A8BF4FF0020A1DDADA4B984224
:1040F0001ADBDC4B03EB2053142B08DDC3F1340C2B
:1041000026FA0CF303FA0CFCB4450DD108E05EB9B5
:10411000C3F1140C20FA0CF303FA0CFC844503D110
:1041200003F00103C3F1020A51EA020321D1002C7A
:104130001FDA002F18BFBAF1020F02D0BAF1010F37
:104140000BD00220FFF763FE16B00022BDE8F04D51
:1041500013461046C04900F081BD0220FFF757FE0C
:1041600016B02A463B46BDE8F04D0020BA4900F0A3
:1041700075BD330077D1584525D107F1804010F542
:10418000801001BF002A0020B34916B008BFBDE867
:10419000F08DB148814207DB002CA1BF18462146B3
:1041A00016B0BDE8F08D07E0201E05DA80F0004172
:1041B00016B01846BDE8F08DAB497944D1E900014D
:1041C00016B0BDE8F08DDFF890C260452FD1002C0D
:1041D00028DA39B159451CD1002A04BF0020024613
:1041E0000CD01FE06AB10220FFF711FE40F201324D
:1041F00000204FF0E04101F01EFD0A46394600F074
:10420000DFBA964A394616B0002062F31E01BDE8B7
:10421000F08D07DA16B03B46BDE8F04D0020614650
:1042200000F01CBD16B010463946BDE8F08D8B4538
:1042300019DD2346B4F1804F0DD0A3F10053B3F143
:10424000FF5310D13B1E0EDB16B01046BDE8F04DFB
:10425000194600F0E3BB3B4616B01046BDE8F04DF2
:10426000194600F0B9BE27F00043A2BBE1B15945A1
:1042700038D1002F06DD002CA1BF0020594616B012
:10428000BDE8F08D002F01DD002C1FDB002F16DABA
:10429000002C14DBBAF1010F4FF000000CBF734982
:1042A0006E4916B0BDE8F08DBAF1020F18BF002FAD
:1042B0000CD0BAF1010F09D1002F07DA0CE0002F62
:1042C000B8BF002C0EDABAF1010F05D0002016B0ED
:1042D0000146BDE8F08D05E016B000204FF000412A
:1042E000BDE8F08D4FF0010C0CEBE7720F9252EA33
:1042F0000A020BD05E4A90427DDD5E4B5E4A9842D8
:1043000016DD91420EDC002C1CDB2CE00120FFF7B7
:104310007EFD16B00022BDE8F04D13461046114652
:1043200000F09CBC4C48884202DC002C0ADC1AE0FD
:104330008A4202DD002C05DB15E0474B99421EDD69
:10434000002C10DD0220FFF762FD40F20132002058
:104350004FF0E04101F06FFC404A16B061F31E02DD
:104360001146BDE8F08D0220FFF751FDFFF756FE24
:10437000394A16B061F31E021146BDE8F08D0022E5
:104380002846394601F04EF805460F466FF0010207
:1043900001F051FC4FF05532384B00F051FF2A46E6
:1043A0003B4600F019FE0022354B00F049FF8B46DA
:1043B00080462A463B461046194600F00DFE42460E
:1043C0005B4600F009FE80460B914FF0C0422D4B3A
:1043D0002846394600F000FE834605912A4A294BBB
:1043E00040460B9900F0F8FD88460290274A284B7A
:1043F0002846394600E01BE000F0EEFD4346029AF5
:1044000001F010F8054602460B460B9158460599F7
:1044100000F068FB002788465A463846059B01F0A5
:1044200001F82A460B9B00F00BFF024600F073B91F
:104430000020B1F5801F07DA35222846194601F021
:10444000FAFB05466FF0340000EB215022E000003B
:10445000FFFF1F00FFFF0F000000F03F0000F07F94
:104460000000404301FCFFFFAA2500000000F0FF10
:104470000000E0410000F043FFFFEF3F5555D53FFE
:104480000000E03F4715F73FFE822B6544DF5DF8F3
:104490000BAE543EA0F2FF300190C1F3130040F088
:1044A0007F6141F040510291FF498842D8BF4FF0EF
:1044B000000B0EDDFD498142C8BF4FF0010B08DC47
:1044C00001984FF0000B401C01900298A0F580105D
:1044D0000290F7480299784400EBCB0009910790CD
:1044E000D0E90023284600F09DFF05910090079831
:1044F000D0E900232846099900F0F4FA02460B4659
:104500000020EC4900F0AAFB0B910B4602460690F6
:104510000599009800F060FD0A90E748884600275A
:10452000784400680C9002994FF0005040EA610016
:1045300000EB8B4000F5002102910798D0E90023A1
:104540000C9800F06FFF2A46099B00F079FE3A466E
:10455000434600F041FD0791054638464146029B1F
:104560000C9A00F039FD059B009A00F069FE2A467E
:10457000079B00F057FF0B9B069A00F02DFD0A9A4F
:104580000691089043461046194600F025FD054661
:104590000246CA480B46079106217844FFF7E9FC1A
:1045A0000290079B2A4605911046194600F014FD1B
:1045B000059B029A00F010FD0591054643463846DA
:1045C00019460A9A00F08EFA069B089A00F004FD3C
:1045D0002A46059B00F086FA3A464346059112901A
:1045E0001046194600F0F8FC0022B54B07910090E8
:1045F00000F078FA059B129A00F074FA0D463A46DC
:10460000AF4B384600F00EFF079B009A00F00AFF00
:10461000059B129A00F014FE3A46079112902B4621
:104620001046414600F0D8FC0591009043460A9A96
:104630000799129800F0D0FC804607912B463A4625
:104640000699089800F0C8FC4246079B00F04AFA19
:1046500088460690059B009A00F044FA00200F4619
:104660000546059B009A00F0DDFE4346069A00F0E1
:10467000E7FD80460D914FF06042924B2846394647
:1046800000F0AAFC059100908F4A8E4B40460D9990
:1046900000F0A2FC804604918C4A8D4B2846394696
:1046A00000F09AFC4246049B00F01CFA894A7A44C6
:1046B00002EBCB03D3E9002300F014FA029004913B
:1046C000019800F023FC0791DDE904310546029AC8
:1046D000009800F007FA804A7A4402EBCB0BDBE942
:1046E000002300F0FFF92A46079B00F0FBF90027A2
:1046F00088462A463846079B00F094FEDBE90023F3
:1047000000F090FE059B009A00F08CFE049B029A3C
:1047100000F096FD024600200A900F98654DAAF120
:104720000103184301D16D4D0A9000200B46029001
:104730003046214600F050FC82468B4623463046E8
:104740001946029A00F06EFE3A46434600F044FCD9
:1047500052465B4600F0C6F906468A463A4643464C
:104760002146029800F038FC04460F463246534674
:1047700000F0B8F95A4A8B46914226DBABEB0203B4
:1047800053EA000210D122463B4600F04BFE804621
:104790000391544A544B3046514600F0A3F9424627
:1047A000039B00F017FD2CD20220FFF730FB40F2F4
:1047B000013200204FF0E04101F03DFA0A4629465F
:1047C00016B062F31E01BDE8F08D484B2BF000429D
:1047D0009A4216D3464A0BEB020353EA000208D171
:1047E00022463B4600F01EFE3246534600F0F2FCE5
:1047F00007D80220FFF70BFBFFF710FC0A462946FB
:10480000DEE72BF000403B493B4A01EB20514FF0E3
:104810000008904223DD481C4FF4801121FA00F07B
:104820005844C0F30A51354AA1F2FF317A44344B5F
:104830001268CB4020EA0303C0F3130040F4801C4D
:10484000C1F114002CFA00F8BBF1000FB8BFC8F199
:1048500000082046394600F0E5FD04460F46224692
:104860003B463046514600F03DF94FF0000B5A46AA
:10487000244B5846079100F0AFFB05910090224A67
:10488000224B5846079900F0A7FBCDE902012246CA
:104890003B465846079900F0C5FD3246534600F0A6
:1048A000CFFC1B4A1B4B37E08E9803007AB60B00F7
:1048B000062200000000F03F4422000072210000A8
:1048C0000000084009C7EE3FFD033ADCF5015B1428
:1048D000E02F3EBE4E200000142000000000F0BF7C
:1048E00000009040FE822B654715973C00CC90401D
:1048F00000346F3F01FCFFFF0000E03F381F000065
:10490000FFFF0F00432EE63F396CA80C615C20BE10
:10491000EF39FAFE422EE63F00F05EFBDDE90223AE
:1049200000F0E0F807468A46059B009A00F0DAF8A6
:1049300004460E46059B009A00F074FD3A46534625
:1049400000F07EFC0746224633460B91104619467E
:1049500000F042FB834602462E488A460B4605215C
:104960007844FFF706FB5A46534600F035FB2246D3
:10497000334600F065FC82468B463A462046314677
:104980000B9B00F029FB3A460B9B00F0ABF8009123
:104990000C9000224FF080435046594600F042FDF3
:1049A0000746039152465B462046314600F014FB11
:1049B0003A46039B00F052F9009B0C9A00F032FD3E
:1049C0002246334600F02EFD0022134B00F038FC47
:1049D0000E46044601EB08510815002810DC42463B
:1049E0002046314601F027F9FFF7AFFA042808BF47
:1049F000FFF714FB42462046314601F01CF90446FD
:104A00000A980B4616B022462946BDE8F04D00F044
:104A1000E3BA0000DC1D00000000F03F2DE9F0418A
:104A200006460F4600F018FC0D46040018BF012092
:104A3000284320F00040C0F17F6010F1E0400FD526
:104A4000002E14BF01200020384320F00040C0F1A8
:104A50007F6000F1E0400028A4BF0120FFF7D7F9F4
:104A600020462946BDE8F08100EB4002002102EB20
:104A7000C00001E0491C89B2B1EB400FFAD3704786
:104A800021F00042A2F16052B2F5801F01F0004314
:104A900028BFD2F17F6C0BD95FEA001C43EAC20247
:104AA00042EB507018BF704728BF20F001007047DC
:104AB000B2F5801FBCBF184670474FEA410C1CF589
:104AC000001F02D2084601F009B870B500F02EFBB5
:104AD00000000089FFF7F6BF4FF00040A0F580000E
:104AE0007047000010B591EA030F48BF83F0004300
:104AF00000F1A084841A71EB030C05D2121943EB68
:104B00000C03001B61EB0C01DFF824E14FEA1154A8
:104B1000A4EB135C1EEA430F18BF9EEA445F73D0F8
:104B200023EA0E03DCF1200E21EA045143F4801342
:104B300032D322FA0CFE10EB0E0023FA0CFE41EBEE
:104B40000E01CCF1200E03FA0EFE10EB0E0051F117
:104B50000001B1F5801FCCF1200E32D201EB0451DF
:104B600012FA0EF2BDE8104058BF7047401C38BF23
:104B70005FEA420218BF7047002814BF20F001000E
:104B800041F100014FEA410313F5001F38BF7047A0
:104B9000A1F1C04100F018BB012A43EB0302ACF1C4
:104BA000200CDCF11F0E32BF4FF0000E23FA0CF385
:104BB00010EB030041EB0451B4EB115FD0D0A1EB3B
:104BC000045101F5801149085FEA300001EB0451FE
:104BD0000ED350F1000038BF12FA0EFE08D1BDE826
:104BE0001040C9E7401C38BF5FEA4202CAD1C3E7A0
:104BF000BDE810404FEA410313F5001F38BF70476E
:104C0000A1F1C04100F0E0BA9EEA445F08D011EA89
:104C10005E0FBDE8104004BF01F000410020704766
:104C2000BDE8104070B500F081FA00BF64FBBE3EE5
:104C30000000E0FF02494FF0000000F0CABF00BFD3
:104C40000000F87F491058BFC1F140415B1058BFC8
:104C5000C3F140438B42EFF3008070472DE9C04120
:104C600030B4DFF8A0C23CEA111418BF3CEA1314B8
:104C700000F0EC8081EA03051CEA111444EAD574C3
:104C800018BF1CEA131500F0C780A4EB05044FF011
:104C9000004545EAC12145EAC32341EA505143EAB0
:104CA000525304F17F74994204F500344FEAC02056
:104CB0004FEAC22208BF904200F09C804FEA136581
:104CC0000FF24016765D4FEA134506FB05F7C7F174
:104CD000807706FB07F74FEAD737A7FB03687642D2
:104CE000C8F58038A7FB06CE38BFA8F1010807FB3E
:104CF00008E64FF0000EA6FB028CE6FB03CEDCF1CB
:104D0000000CCEF1004E38BFAEF1010EA6FB0C58E0
:104D10004FF000074FF00005E6FB0E87A1FB08C629
:104D2000A0FB07CE16EB0E0645F10005E1FB07657B
:104D300015F1E04E7EBFA4F580345FEA46066D4172
:104D400016F1800745F100054FEA17274FEA06667E
:104D500047EA0567A6F1DE46B6F1805F4FEA152502
:104D60001FD9384624F0010C05EBC471BCF1FE6F6D
:104D700001EB0C1102D8F0BCBDE8008124425CBFFD
:104D800001F5801E9EEAC47F02D4F0BCBDE800811C
:104D9000244238D4F0BCA1F1C041BDE8004100F08C
:104DA00013BA4FEAD22242EA43524FEAD323A7FB77
:104DB00002864FEAD02040EA415007FB03661EEA14
:104DC0000E0F4FEAD12105FB026658BFA6EB005635
:104DD000B6EB00564FEA520E4EEAC37E18EB0E0EAB
:104DE00056EB530EBDD518EB02085E417F1C55F102
:104DF0000005B6E74FF480154FF000074FF00006AE
:104E00004FF00008ADE7F0BC4FF0000001F1C041E9
:104E100001F00041BDE8008111EA0C1F0CEA1315F6
:104E200000D00CE013EA0C1F00F025804FF00000CA
:104E3000F0BC81EA030101F00041BDE80081F0BC53
:104E4000BDE8004181EA030100F0BEB9F0BCBDE855
:104E5000004170B500F06AF9097EFC3E00F007B829
:104E600081EA03014FF0000001F00041704781EA40
:104E7000030100F0A9B9F0BCBDE800414FF000000B
:104E800021497047FFFDFBF9F7F5F4F2F0EEEDEB89
:104E9000E9E8E6E4E3E1E0DEDDDBDAD8D7D5D4D338
:104EA000D1D0CFCDCCCBCAC8C7C6C5C4C2C1C0BF84
:104EB000BEBDBCBBBAB9B8B7B6B5B4B3B2B1B0AF8A
:104EC000AEADACABAAA9A8A8A7A6A5A4A3A3A2A16E
:104ED000A09F9F9E9D9C9C9B9A9999989797969529
:104EE00095949393929191908F8F8E8E8D8C8C8BC5
:104EF0008B8A89898888878786858584848383824D
:104F0000828181800000FF070000F87F10F00042DE
:104F100048BF4042B0FA80F310FA03F10AD0C3F15F
:104F20001D0303F580634FEA415002EB035202EB8D
:104F3000D12170474FF000007047B0FA80F310FAAB
:104F400003F10AD0C3F11D0303F580634FEA41501A
:104F50004FEA035202EBD12170474FF00000704737
:104F600051EA030C17D41CF5801F58BFBCF5801FF5
:104F700000F10680994218BF704708BF9042704701
:104F800007D711F5801F58BF13F5801F19D4994218
:104F90007047894270471CF5801F08D5BCF5801FFB
:104FA000F7D58B4218BF704708BF824270474FF455
:104FB000001C1CEB410F38BF1CEB430F01D28B428E
:104FC000704770B500F0B2F8922449004FF00051DC
:104FD0004FF08053FFF736BEDFF848C170B51CEACA
:104FE000111E1EBF1CEA13159EEA0C0F95EA0C0F4A
:104FF00000F06F8081EA030423EA4C134EEAD47E6A
:1050000021EA4C1141F4801143F48013AE44A1FB1A
:10501000024CA0FB0365AEF17F7E361955EB0C0503
:10502000A1FB034C4CF10003A0FB021C16EB0C0689
:10503000654153F10003094218BF46F0010613F41D
:10504000007F0BD14FEA03314FEA0530340341EAC8
:10505000155140EA16506FF003020AE04FEAC321EF
:105060004FEAC520F40241EA555140EA56506FF02C
:10507000020202EB2E4201EB025585EACE710AD004
:105080005FEA440C18BF24F0004450F1000041F1E5
:10509000000120EAD47040F2FE7C624500D270BD6F
:1050A000A84214BF4FF080444FF04044002E08BF88
:1050B0000024BEF1806FA8BFA1F1C041BDE87040DF
:1050C00080F282804FF0000001F1C04101F0004108
:1050D00070479EEA0C0F0CEA131518BF95EA0C0FE7
:1050E00006D04FF0000081EA030E0EF0004170BDC3
:1050F00000F01CF88900013E00F007B800F009B884
:105100004FEA430C5FEA5C5C08D081EA030100F0DF
:105110005BB84FEA410C5FEA5C5CF6D14FF00000EF
:10512000014970470000FF070000F87F0EF1020EF2
:105130002EF0030E5EF8046B364205D4012A43EBD1
:10514000030515F5001F12D8012841EB010C1CF5D1
:10515000001F0CD80ED14FEAD17C15F5001F0CEBC7
:105160004C0C0CF1020C08BF4CEBD37C04E04FF06C
:10517000080C01E04FEAD37C0CEB4C0526FA05F64F
:1051800006F00706B6F1040C06D20EEB860CBDE85D
:1051900070404CF0010C6047DFE80CF0090B020294
:1051A0004FF000414FF00000A1F5002170BD1946FD
:1051B0001046012851EB010418BFD4F5001484BF38
:1051C000002001F0004170BD0808A0F500114FEA71
:1051D0003101704753EA010C17D41CF5801F58BFEA
:1051E000BCF5801F00F106808B4218BF704708BFD6
:1051F0008242704707D713F5801F58BF11F5801FF3
:1052000019D48B4270479B4270471CF5801F08D50C
:10521000BCF5801FF7D5994218BF704708BF904270
:1052200070474FF4001C1CEB430F38BF1CEB410FC1
:1052300001D2994270470FB40CBC03BCFFF7C1BE4A
:1052400091EA030F10B581F000413FF553AC83F0B4
:10525000004300F0EFB800002DE9F04101F5801C9B
:10526000BCF5001FC0F2C3804FEA115C21EA0C516B
:105270000CF1FD0C41F480115FEA5C0C0CF5C07C74
:1052800001D3400049413DA4890241EA905187027F
:105290008E0E0A0CA45D04FB04F602FB06F6C6F1B2
:1052A0004046A4FB0662F60D46EA422606FB06F4DB
:1052B000A4FB01235242C3F1404338BF5B1EA6FB4F
:1052C00002420024E6FB0324D20B42EA4446A6FB3A
:1052D0000623A1FB02E2A3FB07E4A4184FF000029F
:1052E00052F10002E3FB01426442C2F1404E38BF7A
:1052F000AEF1010EA6FB04234FF00002E6FB0E32D6
:10530000A2FB03464FF00004B61954F10004E2FB7F
:105310000264A1FB06E6A4FB07E816EB08064FF0C3
:10532000000858F10008E4FB01687642C8F14058D3
:1053300038BFA8F10108A2FB06E4A3FB08E52D197C
:105340004FF0000454F10004E2FB0854A1FB05E611
:10535000A7FB04E818EB06084FF0000656F100061C
:10536000E1FB048618F1200556F10006A809A8F112
:105370001B08B10908F03F08B8F10A0F40EA86603F
:105380001CD901EB0C51BDE8F08100BFFCF5EEE843
:10539000E2DDD8D3CFCBC7C3C0BDB9B6B4B1AEACD4
:1053A000A9A7A5A3A19F9D9B9A9896959392908F4C
:1053B0008D8C8B898887868584838281A0FB006899
:1053C00000FB01F208EB4208B8EB872807D5341838
:1053D00058EB0104D5D5401C51F10001D1E7341A36
:1053E00078EB0104CDD4401E71F10001C9E75FEAFA
:1053F0004C0C5FEA9C5C0DD105D34FF0000001F02E
:105400000041BDE8F081BDE8F04170B5FFF78EFEC8
:105410006DDBFFBEBDE8F0414FF000000049704772
:105420000000F87F10B591EA030F48BF83F00043F6
:105430003FF560AB841A71EB030C07D212198CF0A4
:10544000004C43EB0C03001B61EB0C01DFF8A4E103
:105450004FEA1154A4EB135C1EEA430F18BF9EEAF7
:10546000445F00F0B08023EA6E03524221EA045107
:10547000C3EB6E0338BF5B1EDCF1200E25D322FA8E
:105480000CFE10EB0E0043FA0CFE41EB0E01CCF1CA
:10549000200E03FA0EFE10EB0E0051F10001CCF1CC
:1054A000200E29D412FA0EF201EB0451BDE810408F
:1054B00058BF7047401C1CBFB2F1004F7047002816
:1054C0000CBF491C20F00100704712EB020E43EBA9
:1054D000030218BF4FF0010E4EEA4202ACF1200C5D
:1054E000DCF11E0E54D943FA0CFE10EB0E0051F104
:1054F000FF31CCF11E0ED5D50EF1010E12FA0EFEC3
:10550000404141EB010101EB445C5FEA5C5C10D976
:1055100010EBDE7001EB045138BFBEF1004FBDE867
:10552000104018BF704700280CBF491C20F0010034
:10553000704730D24FEAD42C11F5001124F40064E6
:105540001BD0B1FA81F20B3AA41AA41ED2F12003A7
:10555000914030FA03F31943904001EBCC71002CD9
:1055600001EB0451BDE81040A8BF704701F1C041F4
:105570004FF0000001F000417047B0FA80F310FADC
:1055800003F100D110BDE41A173C4805C90AE4E74D
:1055900001EB045110BD491001EB0451BDE810406E
:1055A0004FEA300002E04FF0000170474A0008BFA8
:1055B0000042F8D0B2F5001F28BF704701F000414B
:1055C0004FF0000070479EEA445F07D011EA5E0F7B
:1055D000BDE8104004BF002100207047BDE8104026
:1055E00070B5FFF7A3FD00BF40DFF63E83F000413A
:1055F000104670470000E0FF43004FEAD30C4FEA2B
:105600003C0C43401FBF40070CF1605113F0FE4FAC
:1056100070471CF0006F03D100200CF00041704770
:105620000CF0004343EA507010B540EACC0000F0A3
:1056300008FA00BF000000924FEA0001FFF7C4BD66
:105640004FF000414FF00000A1F50021704700002D
:1056500090EA010F48BF81F0004100F14C82421AEC
:105660003CBF801A89184FEAD0524FF07F4C1CEA99
:10567000410FA2EBD15318BF9CEA026F00F03B80B0
:105680004FF0004C4CEA00204CEA012121FA03FCC7
:1056900010EB0C0C1ED202F1FF325FEA1C2040EB33
:1056A000C25038BF70471CF07F0F4FEA400C18BF44
:1056B000BCF17F4F38BF7047C3F12003994008BF4A
:1056C00020F00100BCF17F4F38BF7047A0F1C0400F
:1056D00000F004BA4FEA3C00000A40EBC25028BF79
:1056E0001CF0FF0F4FEA400CE6D018BFBCF17F4F13
:1056F00038BF7047EAE79CEA026F05D010EA5C0FFA
:1057000008BF00F00040704710B500F09AF900BFE4
:1057100064FBBE3E4FF47F0C1CEAD0121EBF1CEA95
:10572000D11392EA0C0F93EA0C0F00F0858090EAF7
:10573000010F48BF42F4807240F4000C41F40000B5
:105740002CF07F4120F07F4000B58142A2EB0302A4
:105750000FF2081CACEB504EC0F100009EF800E0C8
:105760004FEA4E0E00FB0EFC38BF49004FEA2C1CDE
:1057700002F5FA020CFB0EF34FEACE1E4FEA112C93
:105780004FEAC1210EEB635E42EB22420EFB0CFCA2
:105790004FEA1C5300FB03114FEA112C4FEA013171
:1057A0000EFB0CFC4FEADC4C00FB0C11C14228BF85
:1057B00009184CEB03335DF804EB10EB410143EBAC
:1057C000C250B2F57C0F38BF704729D512F0F00FE8
:1057D0001CBF00F1C04000F0004070470081828390
:1057E0008485868788898B8C8D8E8F9192939596F0
:1057F00097999A9C9D9FA0A2A3A5A7A8AAACAEB07A
:10580000B2B3B5B7B9BCBEC0C2C5C7C9CCCED1D47E
:10581000D7D9DCDFE2E6E9ECF0F3F7FAFE000000AE
:105820004FEA400C0CF1807CBCF17E4F28BF7047E2
:10583000B0F1C04000F052B990EA010F0CEAD11368
:1058400048BF42F48072624538BF634507D213F403
:105850007F0F16D080EA010000F00040704710B5BD
:1058600000F0EFF8097EFC3E00F005B880EA010088
:1058700000F00040704780EA010000F0004000F0B6
:105880002DB912F47F0F04BF0248704780EA01006F
:1058900000F024B90000C07F41000B0ED3F19E023E
:1058A00008D950F400034FEA032323FA02F048BF5B
:1058B0004042704710B500F0C4F800BF4992248000
:1058C000002070476FF0004282EA2000704700001D
:1058D000C10DD1F19E0206DB4FEA002343F00043E5
:1058E00023FA02F07047004207D54FEA4001B1F1B8
:1058F000FE4F02D24FF00000704710B500F0A1F843
:1059000049922480002070476FEA20007047000011
:1059100010F0004148BF4042B0FA80F310FA03F2A1
:10592000C3F19D030BD051EAC35101EB1220530682
:1059300038BF704700F1010008BF20F00100704738
:105940004FF47F0C1CEAD0121EBF1CEAD11392EA5E
:105950000C0F93EA0C0F00F0478090EA010F48BF4C
:1059600042F480724FF0004C4CEA00204CEA0121D6
:1059700002EB0302A0FB0113A2F50002002918BFED
:1059800043F001035B0028BF4FEA330342EB22429E
:105990005FEA132C4CEBC2502EBFBCEB436FB2F549
:1059A0007C0F70474FEA036CBCF1004F08BF20F03A
:1059B0000100B2F57C0F38BF70470BD582F0FF02B3
:1059C00012F5803FC8BF704700F1C040D8BF00F05B
:1059D0000040704700F5000C5FEA4C0C48BF704770
:1059E000B0F1C04000F07AB890EA010F0CEAD11390
:1059F00048BF42F48072624538BF634504D280EAF2
:105A0000010000F00040704710B500F01AF800BF28
:105A10008900013E00F007B800F009B85FEA410CC8
:105A20005FEA1C6C08D080EA010000F057B85FEA1A
:105A3000400C5FEA1C6CF6D14FF00040A0F58000EE
:105A400070470EF1020E2EF0030E5EF8044B244256
:105A500004D44FEA4102B2F17F4F11D84FEA40031C
:105A6000B3F17F4F0CD80ED14FEAD07CB2F17F4F0B
:105A70000CEB4C0C0CF1020C08BF4CEBD17C04E09D
:105A80004FF0080C01E04FEAD17C0CEB4C0324FAF8
:105A900003F404F00704B4F1040C06D20EEB840CFA
:105AA000BDE810404CF0010C6047DFE80CF007083F
:105AB00002024FF00040A0F5800010BD08464200F1
:105AC00018BFD2F1807288BF00F0004010BD10B541
:105AD000FEF730FA4FF00001016010BDFF2141EAEE
