:020000040800F2
:10000000E00C00206D2E00081D0C00081F0C0008DD
:10001000210C0008230C0008250C0008000000003B
:10002000000000000000000000000000270C000895
:10003000290C0008000000002B0C00082D0C000803
:10004000872E0008872E0008872E0008872E0008BC
:10005000872E0008872E0008872E0008872E0008AC
:10006000872E0008872E0008872E0008872E00089C
:10007000872E0008872E0008872E0008872E00088C
:10008000872E0008872E0008872E00080000000039
:10009000000000000000000000000000872E0008A3
:1000A000872E0008872E0008872E0008872E00085C
:1000B000872E0008872E0008872E0008750F00087D
:1000C000872E000869100008872E0008872E000878
:1000D000872E0008C7130008872E0008872E000807
:1000E000872E0008872E0008872E000800000000D9
:1000F0000000000000000000000000000000000000
:1001000000000000000000000000000000000000EF
:100110000000000000000000872E0008872E000865
:1001200000F002F800F03CF80AA090E8000C8244CD
:100130008344AAF10107DA4501D100F031F8AFF2AA
:10014000090EBAE80F0013F0010F18BFFB1A43F0B5
:1001500001031847743F0000943F0000103A24BF89
:1001600078C878C1FAD8520724BF30C830C144BF1C
:1001700004680C607047000000230024002500265E
:10018000103A28BF78C1FBD8520728BF30C148BFFA
:100190000B6070471FB503F00CFC1FBD10B510BD00
:1001A00002F028FF1146FFF7F5FF00F009F802F012
:1001B00046FF03B4FFF7F2FF03BC02F04FFF00005D
:1001C00010B500F0D7FC00F03AF900F0FAFB00217E
:1001D000044800F051FC00F094FC00F0A8FC002062
:1001E00010BD0000CF0900080020704700207047B4
:1001F00000207047002070470020704700207047A3
:100200000020704700207047002070470020704792
:100210000020704700207047002070470020704782
:100220000020704700207047002070470020704772
:1002300029B10B784A1C5B1EDBB2022B01D30020D4
:100240007047012803D0132010700220704700204F
:100250001070754A03EB430012F8200088700320E9
:10026000704710B50446002029B10A784B1C521E75
:10027000D2B2022A01D3002010BD012CFCD10020F3
:100280001870694B02EB420003EB800040788870E5
:10029000C2EBC20000EB800203F1180000EB820009
:1002A00000F188004278CA7002780A71807848713B
:1002B0004FF0060010BD29B10B784A1C5B1EDBB263
:1002C000022B01D300207047012803D013201070A7
:1002D0000220704700201070534A03EB430002EBEA
:1002E000800080788870032070472DE9F041064631
:1002F00008004FF0000706D00178441C491EC9B21F
:10030000022902D30020BDE8F081484D01EB011124
:1003100090F801C001EB4101002305EB810103EBE3
:10032000430511F82550654520D10025012E10D038
:1003300003EB430301EB8301921E0B7A934206D138
:100340004E68811C1A46304602F0DAFD25700227FD
:1003500010E003EB430201EB8206801C327A7168E5
:1003600002F0CEFD377A2570BF1C03E05B1CDBB2C8
:10037000112BD4D33846C6E70346002029B14A1CC6
:100380000978491EC9B2022901D300207047002B09
:10039000FCD100201070022070470346002029B1D4
:1003A0004A1C0978491EC9B2022901D300207047AE
:1003B000012BFCD10021117070470346002029B1A8
:1003C000012B04D122B12420087005E000207047E1
:1003D00000220A7002204870022070470346002065
:1003E00029B1012B04D122B12420087005E000209E
:1003F000704700220A7002204870022070470346AE
:10040000002029B1012B04D122B12420087005E07D
:100410000020704700220A700220487002207047B6
:1004200018207047182070473C000020C03A000890
:1004300000207047704701207047012070477047C7
:100440007047000070B588B005460C462022FF4971
:10045000684602F09AFD00206E4612E0030B00058C
:1004600015F8011B020C83EA111036F810005040F9
:10047000020B0005030C01F00F00504036F810008D
:1004800058402100A4F10104A4B2E7D108B070BD26
:10049000F0B50346BDB0104600226C4603E08D5C0B
:1004A000A554521C92B28242F9D37D2523B1012B6F
:1004B00023D10022134630E0002213461BE0A65C45
:1004C0007E2E02D07D2E0BD010E07AB1471EBB42AB
:1004D0000CD0CD545B1C401C9BB280B25E2605E064
:1004E000CD545B1C401C9BB280B25D26521CCE5486
:1004F0005B1C92B29BB28342E1D33DB0F0BDA75CDE
:100500007D2F05D1A61876785E2E09D05D2E0AD0F3
:10051000CF54521C5B1C92B29BB28342EFD3ECE7E8
:100520007E26CE5400E0CD54521C401E92B280B2C2
:10053000EFE72DE9F04F8FB004460F004FF0000AAF
:100540001ED0C34EDFF80C837078022806D1C24A51
:10055000C249404600F02AFC00286BD16A4602A935
:10056000204600F0EAFEBDF8002032B1062A79D319
:10057000029908787E2875D103E03078012859D097
:1005800070E0881810F8010C7E286BD10120FFF76D
:100590007FFF029AADF800001118001F31F8035CCC
:1005A00081B2501CFFF74EFFA84203D0204600F056
:1005B000A4FE57E0A94C717873250C344FF0010B61
:1005C000022903D0A9B301293ED046E0029894F84D
:1005D00020104078884240D1A049404600F0E0FB1E
:1005E00002998878C20707D000F00302012A18D0C8
:1005F000C24392071FD05CE040F01000C0F34202FB
:10060000521C62F34710887087F800B0BDF80000F4
:10061000801F80B278800299C91C79600FB0BDE854
:10062000F08F10F00C0F0ED0C0F3810001280AD01B
:100630003FE009E037E053283BD10020387070706C
:100640008D7084F820007DE002988278932A02D091
:10065000BF2A0ED001E0012907D094F8200008B18C
:1006600086F801B04FF6FF70D8E7857002207070F1
:1006700068E0827901794579072A01D1C2792AB1E6
:100680004078FF2811D0F0297BD010E04078FF2877
:1006900002D194F8201031B194F82010814201D198
:1006A00086F800B036E100F0A8F9F02905D08029DD
:1006B00068D002998720887044E068480327193081
:1006C0000190E81C4FF000090D9046E00299C8190E
:1006D0007F1CC278B8B20B18401C80B20144DE788F
:1006E000C91C3044884687B2072ABBD2DFE802F033
:1006F00004051518252C3000B4E78DF8206032462B
:100700000DF1210002F0FCFB227BB2421AD14146DE
:10071000019802F0CBFB00B314E091F800901CE0CC
:1007200094F8200008B94FF0010A8DF80C603246A9
:100730000DF10D0002F0E4FB0FE0087894F82110B1
:1007400088420AD0002069E7A17A88F80010E1E029
:10075000424902222E314046DBE70D988742B5D34D
:100760004FF00408BAF1010F58D19DF820009DF810
:100770000C10884252D10120217B022703AB08AD27
:100780000BE075E093E026181A5C367B32401A5471
:100790002E5CB242B0D1401C80B23A46022900D24F
:1007A0000A468242EFD200208A1E00D4881E00042E
:1007B000000C09D02218195C127B114019542A5CD4
:1007C000914299D1401EF2E702985D4680F806B04A
:1007D000217BC171227B0830019902F091FB207BC3
:1007E0000299401D0A18401C82F803800A18401C18
:1007F000D5700B1894F82120DA70401C0B180622D3
:10080000DA70401C0A18154BD770401C0A18DB8D93
:10081000A2F80330801CC21E4A71FFE602985D46B2
:1008200080F806B0217BC171227B0830019902F06B
:1008300067FB207B0299401D0A18401C82F8038048
:100840000A18401CD57094F8212009E0983E000851
:1008500000000020002C0140007869006C0100209D
:100860000B18401CDA70C21E4A7184F82090D5E63D
:1008700003200027EB1C14E002990A18401C80B2E8
:100880000E18401C80B20144F678D278C91C30445E
:1008900080B2142A08D0152A93D194F821200A7026
:1008A0004F709842E8D335E0E27A0A70F9E7032006
:1008B00040F6D7774FF47D6CEE1C29E002990A18B8
:1008C000401C80B20B18401C80B20144DB78D27807
:1008D000C91C184480B2052A06D0062A0DD0072A62
:1008E00011D0082A14D111E00A68BA4202D8D108FE
:1008F00021600DE0C1F800C00AE00A68BA42F9D8E8
:10090000D108616004E00978217201E00978617220
:10091000B042D3D3E81C81E62DE9F04748680026B1
:1009200000F103080578B0F801904D48807811284F
:1009300002D0202820D040E000244A4F17E004EBEA
:10094000440017F82010A9420FD107EB800041782E
:1009500059B9C17849B90179012906D1836823B110
:10096000C0794A46414698470646641CE4B2FFF700
:1009700057FDA042E3D820E000243B4F19E004EBF0
:10098000440017F82010A94211D107EB80004178EC
:1009900069B9817859B9C17849B90179012906D174
:1009A000836823B1C0794A46414698470646641C8D
:1009B000E4B2FFF737FDA042E1D8F61CB0B2BDE8C3
:1009C000F087274920208870002000F087BC1CB5E4
:1009D000002420468DF800406946FFF7AAFD014635
:1009E0009DF80000012804D169462046FFF794FFD6
:1009F0000146204600F00CF81CBD1C4801681C4A4A
:100A000001F4E06141EA02010160BFF3408FFEE7BB
:100A100038B50546A1F57F400C46FF381FD00022AF
:100A20006946284600F089FC124890F8201000988A
:100A300000F8011FA11C89B2FFF704FD00990A19F3
:100A4000A41DD070000A10717E2008705071A2B2EF
:100A50000020FFF71DFD0146284600F004FD38BDCB
:100A600000000020583C0008783D00080CED00E034
:100A70000400FA057801002030B43C4C23780A2B9E
:100A800011D23B4A03EB830502EB85021569002D69
:100A900009D1C2E903105B1C237030BC11464FF032
:100AA000804000F07DB930BC7047F0B5DFF8BCC0C5
:100AB0009CF80010491E092922D80021DFF8B0E077
:100AC0001AE001EB81020EEB82021469844211D11B
:100AD00003EB83040EEB8404A4F11404A3F10103DB
:100AE000E568D56094E8E00082E8E00024691461DC
:100AF0008CF80030491CC9B29CF800309942E0D310
:100B0000F0BD2DE9F0410024194D4FF08047174EFC
:100B100008E004EB840005EB8001384600F040F962
:100B2000641CE4B230788442F3D3BDE8F081DFF88E
:100B300040800E4E4FF08047002413E004EB840108
:100B400008EB8105286958B129463846EA6800F063
:100B50002DF928B12946384600F022F92869804746
:100B6000641CE4B230788442E6D2E7E70300002058
:100B70009C010020F8B5002001F0C3F901212448B0
:100B800001F055FA012144F21D2001F047FA4FF41B
:100B9000E06000F083FC25208DF8000001248DF832
:100BA00002408DF80340684600F07DFC1F208DF860
:100BB000000003208DF802008DF80340684600F025
:100BC00072FC0121134800F035FF0024124E022769
:100BD00006EB04156946A888ADF800008DF8027090
:100BE000287B8DF80300286800F099FEA86810B1F2
:100BF000012100F01FFF641C212CE9D300F008F94B
:100C000000F0B1FB00F0ABFABDE8F84000F0AAB884
:100C10000100600000023000B83E00087047FEE7A7
:100C2000FEE7FEE7FEE77047704770477047000039
:100C3000444810B5016841F0010101604168424A31
:100C4000114041600168414A11400160016821F48E
:100C500080210160416821F4FE0141604FF41F01D1
:100C600081600021C16200F036F839494FF0006020
:100C7000086010BD30B5334A5068364B364910F025
:100C80000C0004D0354C042803D0082803D00B6096
:100C900017E00C6015E05068536800F470104FF0D6
:100CA000020513F4803F05EB904007D0D36A03F0B0
:100CB0000F035B1CB4FBF3F34343E8E7284B5843B3
:100CC00008605068244AC0F30310121D105C0A68C3
:100CD000C2400A6030BD1B4900200A6842F48032DD
:100CE0000A604FF4A0630A6800F1010012F4003FAB
:100CF00001D19842F7D10868800321D5486848603F
:100D00004868486048684860486820F47C1048603B
:100D1000486840F480304860086840F0807008609F
:100D200008688001FCD5486820F0030048604868E6
:100D300040F0020048604868C0F381000228FAD100
:100D400070470000001002400000FFF8FFFFF6FEB1
:100D500008ED00E000127A000400002000C0A800A6
:100D600000093D003EB54FF6FF70ADF8040027487E
:100D70004FF416414FF080440068B0FBF1F0401E84
:100D8000ADF800000020ADF80600ADF8020069469D
:100D9000204601F033FA0121204601F0C7FC3EBD98
:100DA00010B50C4601F0ADFEA06010BD2DE9F0417C
:100DB0000C46154601F0A5FE2189401A81B201209A
:100DC000B5F5803F04DAA94200DA0020BDE8F081E1
:100DD00062684FF6FF76130C1B04636027780022CD
:100DE00047B1B1420CD2A1F57F40FE3800D122704C
:100DF0000B4304E0B14203D1207003F580336360FC
:100E0000AB42E2D301206260E0E700000400002072
:100E100010B586B000214FF46020CDE902018DF8B5
:100E2000041001204D4C00918DF805108DF8100034
:100E30006946204600F0A6FB0121204600F0CAFBCF
:100E4000204600F0E4FB204600F0E6FB0028FAD143
:100E5000204600F0E8FB204600F0EAFB0028FAD12B
:100E600006B010BD2DE9F0410F004FF0000510D085
:100E7000DFF8E8800146022301224446404600F0A4
:100E800001FC0121204600F0DAFB00244FF4FA6651
:100E900006E02846BDE8F081641CA4B2B44205D245
:100EA0000221404600F0BCFC0028F5D0B44204D03A
:100EB000404600F02BFC388001250021404600F020
:100EC000BEFBE6E770B5254E072301221021304610
:100ED00000F0D8FB012000F097FC0121304600F023
:100EE000AEFB00244FF4FA6503E0641CA4B2AC42EC
:100EF00005D20221304600F093FC0028F5D0AC4228
:100F00001DD0304600F002FC02F0EAFA4FF06632E3
:100F1000134B02F0F9FA6FF00B0202F088FD114A50
:100F2000114B02F0EFFB0022104B02F081F900227E
:100F30000F4B02F0CDF802F099F8044600E00024CF
:100F40000021304600F07BFB002000F05DFC2046D5
:100F500002F0CEFC400000B270BD00000024014051
:100F600066660A408FC2F5285C8FF63F00CCB04021
:100F7000000039402DE9F041CD4D284600F001FF39
:100F8000CC4F0022C11BCC4ECC4C4FEA7733B84239
:100F90002DD008DC102835D0B0F5806F5ED0B0F1D0
:100FA000021F08D120E0A1F5802140393FD002295D
:100FB0003CD004293BD0228062801946284600F0AC
:100FC000F9FE0021284600F028FE3146284600F0B0
:100FD00002FF4FF00121284600F0FDFEB8492846E7
:100FE00000F0F9FEB7493AE02280BDE8F0812846DA
:100FF00000F04DFE2188B44BC1F30802491C9854FF
:101000002180F2E71946284600F0D4FE0021284648
:1010100000F003FEE568002DE7D02188AC46BDE86E
:10102000F041A64BA8481B1D1A1D60476280A168AD
:101030000029DAD06088095C401C6080284600F0F6
:1010400024FE0A2101EB4102002002EBC10101E074
:10105000401C80B2B0EB410FFAD3C6E731462846B8
:10106000BDE8F04100F0B7BE70472DE9FF5F4FF0DB
:10107000000BDDE90E97DFF854A290461E465D4650
:101080000121009800F0BFFD9149009800F0AAF8F6
:10109000D8B3DDE90001002200F0FCFD8B49009887
:1010A000891C00F09FF880B300240BE018F80410AE
:1010B000009800F0EAFD5146009800F093F818B14E
:1010C000641CE4B2B442F1D3B4421FD100240BE05B
:1010D00019F80410009800F0D8FD5146009800F06F
:1010E00081F818B1641CE4B2BC42F1D3BC420DD10A
:1010F00076490098091D00F075F830B1012100987B
:1011000000F08BFD4FF0010B04E0FFE76D1CEDB22A
:10111000032DB5D3584604B0BDE8F09F2DE9FC413E
:1011200004460020DDE90867009001900D46204646
:10113000FFF79BFF012807D13B4632462946204650
:1011400000F068F8012800D00020BDE8FC817CB5E3
:10115000DDE90645CDE90045FFF787FF7CBD2DE9B8
:10116000FF41DFF84C81404600F0B6FC4FF480446C
:101170000E200026ADF80800ADF804602711554D8B
:10118000ADF80640ADF80A70ADF80C4001214046BC
:10119000009500F01AFD6946404600F0B0FC0122BF
:1011A0004FF4C061404600F068FDDFF82C814046F6
:1011B00000F092FCADF804604BF6FF70ADF806004D
:1011C000ADF80A70ADF80C4001214046009500F0E2
:1011D000FCFC6946404600F092FCBDE8FF813748C0
:1011E000C16070472DE9F04106460F4600244FF4D8
:1011F0007A7503E0641CA4B2AC4205D2394630468D
:1012000000F0B3FD0028F5D0AC4201D10020ECE69F
:101210000120EAE62DE9FF5F4FF00009DFF8B0B0EA
:1012200090461D464E460121009800F0ECFC5946C0
:101230000098FFF7D7FF80B3DDE90001012200F03D
:1012400029FD23490098491CFFF7CCFF28B3DFF89C
:1012500080A000246F1E0AF13F0A17E0012D01D083
:10126000BC4207D10021009800F0E1FC0121009868
:1012700000F0D3FC51460098FFF7B4FF40B100984E
:1012800000F005FD08F80400641CE4B2AC42E5D3AC
:10129000AC4203D14FF0010904E0FFE7761CF6B23F
:1012A000032EC0D30121009800F0C1FC484632E76C
:1012B000005400404000020000040001180000201B
:1012C00000080001001000016402002080000700F7
:1012D00001000300A0860100005800406C496D4ADF
:1012E00001EB402100EB400042F8201002EB8000AF
:1012F000002101818180C180704700EB4002654878
:10130000002100EB820001818180C180704730B5EF
:10131000604C00EB400304EB8300018959B1C288A3
:10132000D5B2521CC2F30802C280491E018154F892
:101330002300284430BD002030BD10B5554B00EBD4
:10134000400011B153F820400C60002A03D003EB99
:1013500080000089108010BD4E4900EB400001EB79
:101360008000028170477FB54FF416500090002036
:10137000ADF80400ADF80600ADF80800ADF80C00BB
:101380000C20454CADF80A006946204601F006FCE9
:1013900040F225552946204601F058FD40F22666C8
:1013A0003146204601F052FD01222946204601F037
:1013B00077FC01223146204601F072FC01212046D3
:1013C00001F064FC7FBD70B5334E40F226642146C7
:1013D000304601F01CFD002501280DD040F22554B7
:1013E0002146304601F013FD012814D0FFF7BBFF62
:1013F000BDE87040002080E72146304601F026FD20
:101400000020FFF784FF040004D02178304601F06B
:1014100093FC257070BD2146304601F017FD1C4934
:101420004FF08044C0220C392046FFF7BFFC012852
:1014300002D10020FFF761FF154920460C39FFF764
:10144000AFFC304601F07CFC12498A880B68985446
:101450008888401CC0F3080088800889401CC0F3BD
:101460000800088170BD0B4A00EB400310B502EB89
:10147000830211810021D180FFF749FF002805D0A8
:101480000178BDE81040044801F056BC10BD0000D2
:1014900070040020700600200038014027490843EE
:1014A00027490860704770B50F24C278017801257C
:1014B0004FF0E026DAB1224A126802F4E062C2F587
:1014C000E062120AC2F10403D44042789A40837861
:1014D000234013431A011B4BCA54007800F01F012C
:1014E0008D40400906EB8000C0F8005170BD01F04E
:1014F0001F008540480906EB8000C0F8805170BD90
:10150000114A114001430E48001F016070470C4A08
:10151000121D0029116801D0014300E081431160D0
:1015200070474FF0E0210428086903D020F0040040
:101530000861704740F00400FAE700000000FA0577
:101540000CED00E000E400E080FFFF1FC24910B591
:10155000884202D1012144150AE0C049884202D1E3
:101560000121041504E0BE4988420AD10121CC03BF
:10157000204600F065FD2046BDE81040002100F047
:101580005FBD10BD10B54268B64B0C791A400B68B0
:1015900042EA0422134343608268B34B1A40D1E904
:1015A000024323434C7942EA440213438360C26AF4
:1015B000097C22F47002491EC9B242EA0151C1629B
:1015C00010BD00210160017141718160C160012184
:1015D000017470470029816802D041F0010101E0E7
:1015E00021F00101816070470029816802D041F437
:1015F000807101E021F4807181607047002A4268A7
:10160000C9B201D00A4300E08A4342607047816852
:1016100041F0080181607047014600208968090790
:1016200000D501207047816841F004018160704756
:10163000014600208968490700D50120704700292C
:10164000816802D041F4A00101E021F4A001816091
:101650007047014600208968490200D50120704783
:101660004268491E22F4604242EA413141607047BB
:101670000029416802D041F4006101E021F40061D9
:101680004160704770B5072609290AD9C568A1F1DC
:101690000A0404EB4404A640B543A3401D43C560BF
:1016A00007E0056901EB4104A640B543A3401D4393
:1016B00005611F23072A09D2446B521E02EB8202E6
:1016C00093409C4391400C43446370BD0D2A09D262
:1016D000046BD21F02EB820293409C4391400C4367
:1016E000046370BDC46A0D3A02EB820293409C43CE
:1016F00091400C43C46270BD0029816802D041F45E
:10170000801101E021F4801181607047C06C80B2CB
:10171000704751484C30006870470029416802D03A
:1017200041F4806101E021F480614160704700294B
:10173000416802D041F4805101E021F480514160C0
:101740007047826822F4E0420A43826070470029B1
:10175000816802D041F4004101E021F40041816040
:1017600070470029816802D041F4021101E021F4A0
:10177000021181607047014600208968890200D506
:101780000120704770B5072609290AD9C568A1F15B
:101790000A0404EB4404A640B543A3401D43C560BE
:1017A00007E0056901EB4104A640B543A3401D4392
:1017B0000561836BC3F30154121B921C02EB82027E
:1017C0001F249440A34391400B43836370BD826BFD
:1017D000491E22F4401242EA01518163704742508F
:1017E00070470844806A80B2704742681F4B1A40B5
:1017F0000A4342607047416282627047426822F049
:101800001F020A43426070471349083100280868E4
:1018100002D040F4000001E020F4000008607047AE
:101820000246002012680A4200D001207047C943D6
:101830000160704710B50246002054680B0AC9B217
:101840000C401168194202D0002C00D0012010BDBC
:101850006FEA112101607047002401400028014017
:10186000003C0140FFFEF0FFFDF7F1FFFFFD3FFFF1
:101870008F4910B5884206D10121042000F0E0FB19
:10188000002104203BE08B49884206D10121082039
:1018900000F0D6FB0021082031E08749884206D1BC
:1018A0000121102000F0CCFB0021102027E083490B
:1018B000884206D10121202000F0C2FB0021202017
:1018C0001DE07F49884206D10121402000F0B8FB8D
:1018D0000021402013E07B49884206D1012180206D
:1018E00000F0AEFB0021802009E0774988420AD150
:1018F00084150121204600F0A3FB00212046BDE80D
:10190000104000F09DBB10BD10B50121084600F04D
:1019100097FB0021BDE81040012000F091BBF0B51D
:10192000CC78002204F00F03E40601D58C78234321
:101930000C884FF00F0C14F0FF0F4FF0010E1AD06F
:1019400005680E880EFA02F42640A6420FD19600D2
:101950000CFA06F7BD4303FA06F63543CE78282E77
:1019600002D0482E02D002E0446100E00461521C23
:10197000082AE6D305600A88FF2A1DD94568002297
:1019800002F108060EFA06F40E882640A6420FD190
:1019900096000CFA06F725EA070703FA06F5CE7853
:1019A0003D43282E00D14461CE78482E00D10461F9
:1019B000521C082AE4D34560F0BD4FF6FF71018048
:1019C000022181700421C170704702460020926894
:1019D0000A4200D001207047806880B270470246FA
:1019E0000020D2680A4200D001207047C06880B24F
:1019F000704701617047416170470AB101617047EA
:101A000041617047C160704741F4803282618161F9
:101A100082618169806970472C4B10B51A684FF656
:101A20008074224042EA00100843186010BD284923
:101A3000C8617047F0B5254C002801DAE36900E081
:101A40006368420D120185B2C0F301579540C0F39F
:101A50000346032F05D0C2020AD50322B2409343A6
:101A600007E023F07062636823F07063636002E054
:101A7000AB4343F0706201B12A43002801DAE2610E
:101A8000F0BD6260F0BD10B58A0721F003040F4974
:101A9000120F21440F238C6893409C438C608B6809
:101AA000904003438B6010BD0A49086070470000F6
:101AB00000080140000C01400010014000140140EA
:101AC00000180140001C01400020014000000140BE
:101AD00000002042DC002042C04910B588424FF08F
:101AE000010101D14C0501E04FF48004204600F0D3
:101AF000B0FA2046BDE81040002100F0AABA70B547
:101B00000446808886B00D4620F03F06684600F007
:101B100033FAB3490298B0FBF1F189B20E43A680C3
:101B2000228822F001022280AE4B2A689A421CD8F9
:101B30005200B0FBF2F080B2042800D20420491C0D
:101B40002184A083208840F00100208020884FF667
:101B5000F5310840A9886A89114301432180A88989
:101B600029890843208106B070BDEB88A3F53F4664
:101B7000FF3E05D102EB4202B0FBF2F080B208E07A
:101B800002EBC20303EB0212B0FBF2F080B240F4AE
:101B90008040020501D140F001004FF4967251439C
:101BA0004FF47A72B1FBF2F140F40040C7E741F222
:101BB00088310160002181804BF6FF72C280018173
:101BC00041814FF48041818170470029018802D012
:101BD00041F0010101E021F001010180704700297D
:101BE000818802D041F4006101E021F4006181802C
:101BF00070470029818802D041F4805101E021F42E
:101C00008051818070470029018802D041F48071A1
:101C100001E021F48071018070470029018802D021
:101C200041F4007101E021F4007101807047002946
:101C3000018802D041F4806101E021F480610180DB
:101C40007047828901F0FE0122F0FE02114381817A
:101C500070470029818902D041F0010101E021F0A3
:101C60000101818170470029018802D041F04001C3
:101C700001E021F0400101807047002A828801D0F4
:101C80000A4300E08A438280704701827047008ADD
:101C9000C0B2704712B141F0010101E001F0FE0154
:101CA00001827047405A70470029018802D041F4F0
:101CB000004101E0C1F30E0101807047B1F5006FF2
:101CC000018803D021F400610180704741F4006174
:101CD000FAE7B1F5005F018803D021F400510180DB
:101CE000704741F40051FAE70029018802D041F41D
:101CF000805101E021F4805101807047B1F5006FFF
:101D0000018803D021F400610180704741F4006133
:101D1000FAE70029018802D041F0200101E021F01A
:101D2000200101807047008B000A7047002901885C
:101D300002D041F0100101E021F010010180704754
:101D40000029018803D021F080010180704741F013
:101D50008001FAE7B1F5804F818B02D021F48041F8
:101D600001E041F4804181837047034600209A8A54
:101D70001B8B42EA034222F07F42914300D10120B3
:101D80007047818A008B41EA004121F07F40704713
:101D900000220B0F21F07F4101D0143001E0090C2B
:101DA00018300068084200D0012210467047C9432D
:101DB0008182704710B502460020938801F0E064EC
:101DC000928A03EA144321F07F410A4202D0002B99
:101DD00000D0012010BDC9438182704700540040EB
:101DE00040420F00A0860100AC48016841F00101AB
:101DF00001604168AA4A114041600168A94A114046
:101E00000160016821F480210160416821F4FE0134
:101E100041604FF41F0181600021C16270479F49FA
:101E20000A6822F480320A600A6822F480220A607A
:101E3000B0F5803F07D0B0F5802F03D1086840F49B
:101E4000A02008607047086840F48030F9E7034636
:101E500000205909914A01290AD002290AD0516A61
:101E600003F01F02012393400B4200D00120704772
:101E70001168F5E7116AF3E730B500244FF4A06567
:101E80003120FFF7E4FF641CAC4201D00028F7D0FA
:101E90003120FFF7DCFF002800D0012030BD7F4A51
:101EA000116821F0F80141EAC000106070477E49D6
:101EB00008607047794B5A68084322F47412104343
:101EC00058607047784908667047744B10B5DA6AF5
:101ED000764C084322401043D86210BD6F4A5168C7
:101EE00021F003010143516070476C48406800F0E5
:101EF0000C007047694A516821F0F00101435160BC
:101F00007047664A516821F4E061014351607047AF
:101F1000624A516821F4605141EAC0005060704744
:101F20005E4A0029517A01D0014300E08143517299
:101F300070475F4908607047584A516821F4404132
:101F40000143516070475B4900220A7001F8202963
:101F5000012802D0042802D1052081F82000704712
:101F60005549086070474D490A6A02430A62704742
:101F7000514944390860704730B5484A51684F4B61
:101F800011F00C0104D04E4C042903D0082903D0D1
:101F9000036017E0046015E05168536801F47011A4
:101FA0004FF0020513F4803F05EB914107D0D36A4F
:101FB00003F00F035B1CB4FBF3F34B43E8E7414B27
:101FC000594301605168404B01F0F00109095C5C24
:101FD0000168E1404160546804F4E064240A1C5D37
:101FE00021FA04F48460546804F46054E40A1B5D2C
:101FF000D940C1605268344B02F44042920B1B1F1F
:102000009A5CB1FBF2F1016130BD244A00295169AB
:1020100001D0014300E08143516170471F4A00290C
:10202000916901D0014300E08143916170471B4AEF
:102030000029D16901D0014300E08143D16170479B
:10204000164A0029D16801D0014300E08143D160E4
:102050007047124A0029116901D0014300E0814311
:102060001161704714494039086070470E49C864CF
:1020700070470A49C87170470848416A41F0807149
:1020800041627047054A0146002092680A4200D02A
:10209000012070470149887270470000001002401B
:1020A0000000FFF8FFFFF6FE00004242F0FFFEFFD7
:1020B000D8004242201002408004424200127A00BE
:1020C00000C0A80000093D002C000020FA4910B50E
:1020D000884202D10121C41486E0B0F1804F09D0BA
:1020E000F64988420DD101210220FFF7B2FF0021FD
:1020F000022064E001210846FFF7ABFF0021012028
:102100005DE0EF49884206D101210420FFF7A1FFDD
:102110000021042053E0EB49884206D10121082028
:10212000FFF797FF0021082049E0E749884206D1E0
:1021300001211020FFF78DFF002110203FE0E3492F
:10214000884206D101212020FFF783FF00212020B3
:1021500035E0DF49884202D10121441444E0DD49E1
:10216000884202D10121CC043EE0DB49884202D101
:1021700001210C0538E0D949884202D101214C05E2
:1021800032E0D749884206D101214020FFF761FFA4
:102190000021402013E0D349884206D1012180204C
:1021A000FFF757FF0021802009E0CF4988420AD17C
:1021B000841501212046FFF74CFF00212046BDE891
:1021C0001040FFF746BFC949884202D101210C04E3
:1021D0000AE0C749884202D101214C0404E0C54904
:1021E00088420AD101218C042046FFF729FF2046AE
:1021F000BDE810400021FFF723BF10BD30B50288B5
:10220000AD4CB34DA0420DD0A8420BD0B0F1804FE1
:1022100008D0AA4B984205D0A94B984202D0A94BAE
:10222000984203D122F070034A881A43A64B984281
:1022300006D0A64B984203D022F44073CA881A43B2
:1022400002808A8882850A880285A0420AD0A84234
:1022500008D0A64A904205D0A54A904202D0A54A8D
:10226000904201D1097A01860121818230BD30B5C9
:10227000028C22F001020284028C8388048B22F0FB
:10228000020224F073050C882C430D8915434A88FB
:102290002A43894DA8420BD08D4DA84208D0934DBA
:1022A000A84205D0924DA84202D0924DA8420DD12D
:1022B00022F008054A8923F440732A4322F00405DA
:1022C0008A882A438D891D43CB892B4383800483CD
:1022D000C9888186028430BD30B5028C22F010029C
:1022E0000284028C8388048B22F0200224F4E645C9
:1022F0000C88240645EA14440D892D0542EA15454B
:102300004A88120545EA12426B4DA84202D0704D30
:10231000A84215D122F080054A8923F440631205B2
:1023200045EA124222F040058A88120545EA124227
:102330008D89AD0443EA1545CB899B0445EA1343D7
:1023400083800483C9880187028430BD30B5028C44
:1023500022F480720284028C8388848B22F40072BF
:1023600024F073050C882C430D892D0642EA15458F
:102370004A88120645EA12424F4DA84202D0544DF7
:10238000A84215D122F400654A8923F4405312066D
:1023900045EA124222F480658A88120645EA124212
:1023A0008D892D0543EA1545CB891B0545EA134365
:1023B00083808483C9888187028430BD30B5028CD4
:1023C00022F480520284048C8288838B23F4E645B5
:1023D0000B881B0645EA134324F400550C89240797
:1023E00045EA14444D882D0744EA1545324CA04275
:1023F00002D0374CA04205D122F480448A8992054C
:1024000044EA124282808383C988A0F84010058480
:1024100030BD828B22F440628283828B42EA0122A9
:1024200082837047828B22F00C028283828B0A4364
:1024300082837047028B22F440620283028B42EA5D
:1024400001220283704770B5048C24F010040484C8
:10245000068B048C26F473461B0746EA13431206C8
:1024600043EA12420D05144B2D0C98420ED0184B26
:1024700098420BD0B0F1804F08D0104B984205D055
:102480000F4B984202D00F4B984205D124F0200107
:10249000294341F0100104E024F0A0030B4343F072
:1024A00010010283018470BD028B22F00C020283B2
:1024B000028B0A4302837047002C01400004004055
:1024C00000080040000C00400010004000140040D4
:1024D00000340140004C01400050014000540140D4
:1024E00000180040001C0040002000400040014057
:1024F000004401400048014030B5048C24F0010440
:102500000484058B048C1B0542EA134325F0F30574
:10251000F84A2B4390420ED0F74A90420BD0B0F1CC
:10252000804F08D0F54A904205D0F54A904202D03B
:10253000F44A904202D124F0020201E024F00A029F
:102540000A4342F001010383018430BD2DE9F05FAD
:102550000D4604460E88E748DFF89CC3DFF89CA3CD
:10256000DFF89CB34988AA882B894FF0804E4EB380
:10257000042E2FD0082E268C34D026F480562684A4
:10258000B4F81C90268C0F074FEA1748120629F45E
:1025900073471B0747EA124242EA1343224684422A
:1025A0000BD01046624508D0744506D0504504D083
:1025B0005C4502D0D348844243D126F4005040EA1F
:1025C000080041E02046FFF797FFE9882046BDE874
:1025D000F05F69E72046FFF736FFE9882046BDE84F
:1025E000F05F27E726F480762684A78B268C1B05D0
:1025F00042EA134327F0F3074FEA01683B434FEAEF
:102600001848224684420BD01046624508D07445D3
:1026100006D0504504D05C4502D0BA48844204D16B
:1026200026F4007040EA080002E026F42060084327
:1026300040F48070A3832084E9882046BDE8F05FE1
:10264000F0E626F40240084340F48050A38320843F
:10265000E9882046BDE8F05FDBE62DE9F0410C4655
:10266000002549880746012601B90225A288012ACA
:1026700000D10226208823890028384610D0FFF791
:10268000E2FEE1883846FFF7D5FE23893246294627
:102690003846FFF731FFE1883846BDE8F04103E7EF
:1026A000FFF72AFFE1883846FFF7FEFE238932460E
:1026B00029463846FFF7C7FEE1883846BDE8F041B5
:1026C000B8E610B50A884B88CC881A438B88234318
:1026D0001A430B891A434B8989891A430A43A0F884
:1026E000442010BD4FF6FF71818000210180C18020
:1026F00041800172DFE60021018041808180C1803C
:10270000018141818181C181D5E600210180418023
:1027100001228280C1800181CDE6002101804180BB
:102720008180C180018141818181C4E600290188C5
:1027300002D041F0010101E021F001010180BAE67F
:10274000002930F8441F02D041F4004101E0C1F3F8
:102750000E010180AFE6002A828901D00A4300E021
:102760008A438281A7E68182A5E61143A0F848103A
:10277000A1E6002A828901D00A4300E08A438281CF
:1027800099E6018921F00701018194E6028922F08E
:1027900070020A4302818EE600B50346FFF7F6FF9A
:1027A000188940F00700188100BD70B50D4611462C
:1027B0000446602D4FF001020AD0FFF79DFE294626
:1027C0002046FFF7E3FF208940F00700208170BD1D
:1027D000FFF739FEF3E710B5048942EA0323E4B2B8
:1027E0000B432343038110BD10B50446FFF7F3FFED
:1027F000208940F07700208110BD10B50446FFF716
:10280000EAFF208940F48040208110BD018582824A
:1028100051E6028822F070020A4302804BE670B54E
:102820000589048B068C25F007050D434FF6FC4106
:102830000C4040F201110C4326F0220642EA03113B
:10284000314305810483018470BD028B22F0700244
:102850000A4302832FE6028B22F4E04242EA01217E
:10286000018328E6828B22F070020A43828322E6EB
:10287000828B22F4E04242EA012181831BE6002997
:10288000018802D041F0800101E021F08001018047
:1028900011E60029818802D041F0040101E021F015
:1028A0000401818007E60029818802D041F00801F7
:1028B00001E021F008018180FDE50029818802D036
:1028C00041F0010101E021F001018180F3E5028B7B
:1028D00022F008020A430283EDE5028B22F4006233
:1028E00042EA01210183E6E5828B22F008020A43D5
:1028F0008283E0E5002C01400034014000040040E8
:1029000000080040000C0040828B22F4006242EA82
:1029100001218183CFE5028B22F004020A43028366
:10292000C9E5028B22F4806242EA01210183C2E5FB
:10293000828B22F004020A438283BCE5828B22F45C
:10294000806242EA01218183B5E5028B22F0800298
:102950000A430283AFE5028BC2F30E0242EA012171
:102960000183A8E5828B22F080020A438283A2E5DC
:10297000828BC2F30E0242EA012181839BE5028C25
:1029800022F002020A43028495E5028C22F008023A
:102990000A4302848FE5028C22F0200242EA0111F0
:1029A000018488E5028C22F0800242EA0111018450
:1029B00081E5028C22F4007242EA012101847AE569
:1029C000028C22F4006242EA0121018473E5028C48
:1029D00022F4005242EA013101846CE510B5012372
:1029E000048C8B409C430484038C8A4013430384EF
:1029F00010BD10B50423048C8B409C430484038CCD
:102A00008A401343038410BD30B50124058C00F1C6
:102A100018038C40A543058479B108290DD0091FFE
:102A200088B203EB5000016821F4E04101600168C5
:102A30001206120C1143016030BD03EB5100016816
:102A400021F0700101600168F4E70029018802D0DB
:102A500041F0020101E021F0020101802BE5002993
:102A6000018802D041F0040101E021F0040101805D
:102A700021E50029818802D041F0800101E021F0A8
:102A80008001818017E5028822F008020280028816
:102A90000A4302800FE5828822F0700282808288D9
:102AA0000A43828007E5028922F007020281028937
:102AB0000A430281FFE4028922F080020281028936
:102AC0000A430281F7E48184F5E48185F3E4818699
:102AD000F1E40187EFE48187EDE4A0F84010EAE437
:102AE000028822F44072028002880A430280E2E4F3
:102AF000808EE0E4008FDEE4808FDCE4B0F84000FC
:102B0000D9E4808CD7E4008DD5E402460020128AF7
:102B10000A4200D00120CEE4C9430182CBE4024640
:102B20000020138A92890B4202EA010202D0002A95
:102B300000D00120BFE4C9430182BCE4C64910B5FE
:102B400088420AD101218C032046FFF779FA2046FA
:102B5000BDE810400021FFF773BAC049884202D196
:102B600001214C0410E0BE49884202D101218C04AD
:102B70000AE0BC49884202D10121CC0404E0BA49F0
:102B800088420AD101210C052046FFF762FA20464F
:102B9000BDE810400021FFF75CBA10BD30B50D460E
:102BA000018A85B004464CF6FF700140E88808436E
:102BB0002082A0894EF6F3110840A9882A89114382
:102BC0006A8902431143A181A18A4FF6FF40014067
:102BD000A8890843A0826846FFF7CEF99E48844240
:102BE00001D1039800E00298A1890904002900EBB3
:102BF000C00101EB0010296802DA4FEA410101E04F
:102C00004FEA8101B0FBF1F06422B0FBF2F14FEA30
:102C100001114FEA11136FF018056B4300EB8300AD
:102C2000A3891D044FF0320306D503EBC000B0FBAF
:102C3000F2F000F0070005E003EB0010B0FBF2F04B
:102C400000F00F000843208105B030BD4FF416514D
:102C5000016000218180C18001810C22428181813B
:102C6000704710B5028A4FF2FF031A400B884C8858
:102C700023438C88C9880C4323431343038210BD2C
:102C80000021018041808180C180704700298189B5
:102C900002D041F4005101E021F4005181817047DC
:102CA00010B5C1F3421301F01F040121A140012B13
:102CB00007D0022B07D01430002A026805D00A433F
:102CC00004E00C30F8E71030F6E78A43026010BDEC
:102CD000002A828A01D00A4300E08A438282704738
:102CE000028A22F00F020282028A0A43028270479D
:102CF000828922F40062828182890A43828170473C
:102D00000029818902D041F0020101E021F0020195
:102D100081817047028A22F020020282028A0A43DD
:102D2000028270470029018A02D041F4804101E00B
:102D300021F4804101827047C1F30801818070470E
:102D40008088C0F308007047818941F001018181CA
:102D50007047028BD2B20283028B42EA01210183C7
:102D60007047028B02F47F420283028B0A43028384
:102D700070470029818A02D041F0200101E021F052
:102D80002001818270470029818A02D041F0100120
:102D900001E021F01001818270470029818A02D070
:102DA00041F0080101E021F008018182704700290B
:102DB000818902D041F4004101E0C1F30E0181811B
:102DC00070470029818A02D041F4006101E021F4BA
:102DD000006181827047828A22F004028282828AA4
:102DE0000A43828270470029818A02D041F00201A1
:102DF00001E021F002018182704702460020128822
:102E00000A4200D001207047C9430180704770B565
:102E100001F01F0601250024C1F3421305FA06F252
:102E2000012B0FD0022B0FD0838A4FEA112100888B
:102E3000134205FA01F500EA050001D000B10124B2
:102E4000204670BD8389F0E7038AEEE70A0A012174
:102E50009140C94301807047003801400044004060
:102E600000480040004C00400050004009488047A6
:102E700009480047FEE7FEE7FEE7FEE7FEE7FEE75C
:102E8000FEE7FEE7FEE7FEE704480549054A064B74
:102E900070470000310C000821010008E006002006
:102EA000E00C0020E0080020E008002040EA0103D8
:102EB00010B59B070DD1042A0BD310C808C9121FE7
:102EC0009C42F8D021BA1ABA0120914200D8801E43
:102ED00010BD1AB1D30703D0521C07E0002010BD6B
:102EE00010F8013B11F8014B1B1B07D110F8013BF7
:102EF00011F8014B1B1B01D1921EF1D1184610BDD8
:102F0000032A40F2308010F0030C00F0158011F815
:102F1000013BBCF1020F624498BF11F801CB00F8ED
:102F2000013B38BF11F8013BA2F1040298BF00F841
:102F300001CB38BF00F8013B11F0030300F02580FE
:102F4000083AC0F0088051F8043B083A51F804CB25
:102F5000A0E80810F5E7121D5CBF51F8043B40F8EB
:102F6000043BAFF30080D20724BF11F8013B11F8F6
:102F700001CB48BF11F8012B24BF00F8013B00F83A
:102F800001CB48BF00F8012B704710B5203AC0F0C4
:102F90000B80B1E81850203AA0E81850B1E818505A
:102FA000A0E81850BFF4F5AF5FEA027C24BFB1E897
:102FB0001850A0E8185044BF18C918C0BDE8104008
:102FC0005FEA827C24BF51F8043B40F8043B08BF11
:102FD0007047D20728BF31F8023B48BF11F8012BD8
:102FE00028BF20F8023B48BF00F8012B704770470C
:102FF00070477047754600F029F8AE4605006946EF
:10300000534620F00700854618B020B5FFF73CFF77
:10301000BDE820404FF000064FF000074FF00008D9
:103020004FF0000B21F00701AC46ACE8C009ACE85A
:10303000C009ACE8C009ACE8C0098D467047044639
:10304000AFF300802046FDF7B4F800000048704759
:103050007C060020004870478006002001491820A7
:10306000ABBEFEE7260002007047000021F00042E0
:10307000A2F16052B2F5801F01F0004328BFD2F1E7
:103080007F6C0BD95FEA001C43EAC20242EB50702E
:1030900018BF704728BF20F001007047B2F5801FAD
:1030A000BCBF184670474FEA410C1CF5001F02D206
:1030B000084600F085BC70B500F0D0FA0000008929
:1030C000FFF7F6BF4FF00040A0F58000704700000A
:1030D00010B591EA030F48BF83F0004300F1268347
:1030E000841A71EB030C05D2121943EB0C03001B7D
:1030F00061EB0C01DFF824E14FEA1154A4EB135CFF
:103100001EEA430F18BF9EEA445F73D023EA0E0302
:10311000DCF1200E21EA045143F4801332D322FA69
:103120000CFE10EB0E0023FA0CFE41EB0E01CCF16D
:10313000200E03FA0EFE10EB0E0051F10001B1F566
:10314000801FCCF1200E32D201EB045112FA0EF2A4
:10315000BDE8104058BF7047401C38BF5FEA4202CC
:1031600018BF7047002814BF20F0010041F1000192
:103170004FEA410313F5001F38BF7047A1F1C0416A
:1031800000F0BABA012A43EB0302ACF1200CDCF1E7
:103190001F0E32BF4FF0000E23FA0CF310EB0300AA
:1031A00041EB0451B4EB115FD0D0A1EB045101F518
:1031B000801149085FEA300001EB04510ED350F151
:1031C000000038BF12FA0EFE08D1BDE81040C9E772
:1031D000401C38BF5FEA4202CAD1C3E7BDE81040D5
:1031E0004FEA410313F5001F38BF7047A1F1C041FA
:1031F00000F082BA9EEA445F08D011EA5E0FBDE893
:10320000104004BF01F0004100207047BDE81040AD
:1032100070B500F023FA00BF64FBBE3E0000E0FF83
:1032200002494FF0000000F0D0BB00BF0000F87F63
:103230002DE9C04130B4DFF8A0C23CEA111418BF38
:103240003CEA131400F0EC8081EA03051CEA111437
:1032500044EAD57418BF1CEA131500F0C780A4EB2C
:1032600005044FF0004545EAC12145EAC32341EA80
:10327000505143EA525304F17F74994204F50034EB
:103280004FEAC0204FEAC22208BF904200F09C8063
:103290004FEA13650FF24016765D4FEA134506FBC1
:1032A00005F7C7F1807706FB07F74FEAD737A7FB8B
:1032B00003687642C8F58038A7FB06CE38BFA8F170
:1032C000010807FB08E64FF0000EA6FB028CE6FBA8
:1032D00003CEDCF1000CCEF1004E38BFAEF1010E92
:1032E000A6FB0C584FF000074FF00005E6FB0E87D9
:1032F000A1FB08C6A0FB07CE16EB0E0645F10005A4
:10330000E1FB076515F1E04E7EBFA4F580345FEA6E
:1033100046066D4116F1800745F100054FEA172773
:103320004FEA066647EA0567A6F1DE46B6F1805F1A
:103330004FEA15251FD9384624F0010C05EBC4715E
:10334000BCF1FE6F01EB0C1102D8F0BCBDE80081AE
:1033500024425CBF01F5801E9EEAC47F02D4F0BC0B
:10336000BDE80081244238D4F0BCA1F1C041BDE8E1
:10337000004100F0C1B94FEAD22242EA43524FEA7B
:10338000D323A7FB02864FEAD02040EA415007FB37
:1033900003661EEA0E0F4FEAD12105FB026658BFF5
:1033A000A6EB0056B6EB00564FEA520E4EEAC37E2D
:1033B00018EB0E0E56EB530EBDD518EB02085E410E
:1033C0007F1C55F10005B6E74FF480154FF000075C
:1033D0004FF000064FF00008ADE7F0BC4FF00000E2
:1033E00001F1C04101F00041BDE8008111EA0C1F6C
:1033F0000CEA131500D00CE013EA0C1F00F0258036
:103400004FF00000F0BC81EA030101F00041BDE88B
:103410000081F0BCBDE8004181EA030100F06CB915
:10342000F0BCBDE8004170B500F018F9097EFC3E23
:1034300000F007B881EA03014FF0000001F00041FD
:10344000704781EA030100F057B9F0BCBDE80041C4
:103450004FF0000021497047FFFDFBF9F7F5F4F24A
:10346000F0EEEDEBE9E8E6E4E3E1E0DEDDDBDAD81F
:10347000D7D5D4D3D1D0CFCDCCCBCAC8C7C6C5C47D
:10348000C2C1C0BFBEBDBCBBBAB9B8B7B6B5B4B394
:10349000B2B1B0AFAEADACABAAA9A8A8A7A6A5A47F
:1034A000A3A3A2A1A09F9F9E9D9C9C9B9A99999843
:1034B0009797969595949393929191908F8F8E8EE6
:1034C0008D8C8C8B8B8A8989888887878685858473
:1034D00084838382828181800000FF070000F87F5F
:1034E000B0FA80F310FA03F10AD0C3F11D0303F51B
:1034F00080634FEA41504FEA035202EBD1217047FB
:103500004FF0000070470000DFF848C170B51CEABA
:10351000111E1EBF1CEA13159EEA0C0F95EA0C0F34
:1035200000F06F8081EA030423EA4C134EEAD47E54
:1035300021EA4C1141F4801143F48013AE44A1FB05
:10354000024CA0FB0365AEF17F7E361955EB0C05EE
:10355000A1FB034C4CF10003A0FB021C16EB0C0674
:10356000654153F10003094218BF46F0010613F408
:10357000007F0BD14FEA03314FEA0530340341EAB3
:10358000155140EA16506FF003020AE04FEAC321DA
:103590004FEAC520F40241EA555140EA56506FF017
:1035A000020202EB2E4201EB025585EACE710AD0EF
:1035B0005FEA440C18BF24F0004450F1000041F1D0
:1035C000000120EAD47040F2FE7C624500D270BD5A
:1035D000A84214BF4FF080444FF04044002E08BF73
:1035E0000024BEF1806FA8BFA1F1C041BDE87040CA
:1035F00080F282804FF0000001F1C04101F00041F3
:1036000070479EEA0C0F0CEA131518BF95EA0C0FD1
:1036100006D04FF0000081EA030E0EF0004170BDAD
:1036200000F01CF88900013E00F007B800F009B86E
:103630004FEA430C5FEA5C5C08D081EA030100F0CA
:103640005BB84FEA410C5FEA5C5CF6D14FF00000DA
:10365000014970470000FF070000F87F0EF1020EDD
:103660002EF0030E5EF8046B364205D4012A43EBBC
:10367000030515F5001F12D8012841EB010C1CF5BC
:10368000001F0CD80ED14FEAD17C15F5001F0CEBB2
:103690004C0C0CF1020C08BF4CEBD37C04E04FF057
:1036A000080C01E04FEAD37C0CEB4C0526FA05F63A
:1036B00006F00706B6F1040C06D20EEB860CBDE848
:1036C00070404CF0010C6047DFE80CF0090B02027F
:1036D0004FF000414FF00000A1F5002170BD1946E8
:1036E0001046012851EB010418BFD4F5001484BF23
:1036F000002001F0004170BD0808A0F500114FEA5C
:103700003101704791EA030F10B581F000413FF598
:10371000E7AC83F0004300F009B8000010B591EA6F
:10372000030F48BF83F000433FF5DAAC841A71EB16
:10373000030C07D212198CF0004C43EB0C03001B56
:1037400061EB0C01DFF8A4E14FEA1154A4EB135C28
:103750001EEA430F18BF9EEA445F00F0B08023EAE0
:103760006E03524221EA0451C3EB6E0338BF5B1E65
:10377000DCF1200E25D322FA0CFE10EB0E0043FAEA
:103780000CFE41EB0E01CCF1200E03FA0EFE10EB05
:103790000E0051F10001CCF1200E29D412FA0EF2E4
:1037A00001EB0451BDE8104058BF7047401C1CBFDE
:1037B000B2F1004F704700280CBF491C20F00100F7
:1037C000704712EB020E43EB030218BF4FF0010EDD
:1037D0004EEA4202ACF1200CDCF11E0E54D943FA41
:1037E0000CFE10EB0E0051F1FF31CCF11E0ED5D5C1
:1037F0000EF1010E12FA0EFE404141EB010101EB08
:10380000445C5FEA5C5C10D910EBDE7001EB0451A4
:1038100038BFBEF1004FBDE8104018BF7047002808
:103820000CBF491C20F00100704730D24FEAD42C65
:1038300011F5001124F400641BD0B1FA81F20B3AA7
:10384000A41AA41ED2F12003914030FA03F31943C5
:10385000904001EBCC71002C01EB0451BDE810400D
:10386000A8BF704701F1C0414FF0000001F00041D6
:103870007047B0FA80F310FA03F100D110BDE41ADA
:10388000173C4805C90AE4E701EB045110BD491093
:1038900001EB0451BDE810404FEA300002E04FF068
:1038A000000170474A0008BF0042F8D0B2F5001F7F
:1038B00028BF704701F000414FF0000070479EEABA
:1038C000445F07D011EA5E0FBDE8104004BF00213D
:1038D00000207047BDE8104070B5FFF7BFFE00BF85
:1038E00040DFF63E83F00041104670470000E0FFE5
:1038F00041000B0ED3F19E0208D950F400034FEAA9
:10390000032323FA02F048BF4042704710B500F08D
:103910000AF800BF49922480002070476FF00042EF
:1039200082EA200070470EF1020E2EF0030E5EF8C0
:10393000044B244204D44FEA4102B2F17F4F11D824
:103940004FEA4003B3F17F4F0CD80ED14FEAD07C41
:10395000B2F17F4F0CEB4C0C0CF1020C08BF4CEB9E
:10396000D17C04E04FF0080C01E04FEAD17C0CEB75
:103970004C0324FA03F404F00704B4F1040C06D257
:103980000EEB840CBDE810404CF0010C6047DFE802
:103990000CF0070802024FF00040A0F5800010BDB7
:1039A0000846420018BFD2F1807288BF00F0004084
:1039B00010BD10B5FFF74EFB4FF00001016010BDC8
:1039C000FF2141EAD050C00570470CF00F03092BCE
:1039D00008BF082000F05B800A2B0BD0082B18BF13
:1039E000704708BF1CF0400F0AD04FF000004FF0A6
:1039F000000170471CF0400F18BF4FF000407047A7
:103A00001CF0100F08D020F0704300F07F4242EA13
:103A1000D3014FEA4370704700F0604021F07F42CD
:103A200042EA000201F07F4040EA727070474FF0B6
:103A3000FF0C4CF4E06C1CEA11531CBF9CEA030C15
:103A40009445C2BFDA4201EB02517047002B0DD002
:103A5000BCF1000F0FD0002A01F00041A4BF41F0DB
:103A6000E04141F07F614FF00000704701F00041FC
:103A70004FF00000704750EA01334FF09B0C18BF25
:103A80004CF0806C7FF4CCABAFF3008070471CF43B
:103A9000801F11D01CF4E02F03D06FEACC31490015
:103AA00070474FF04050EFF3008222F0704242EA3C
:103AB000000282F3008870474FF00000704700005A
:103AC00001000000540000200F0000000200000070
:103AD00063000020110000000300000074000020BB
:103AE0000200000004000000760000200800000032
:103AF000050000007E0000200400000021000000FE
:103B00008200002006000000220000008800002043
:103B100005000000230000008D00002020000000B0
:103B200024000000AD00002020000000250000005F
:103B3000CE0000200200000026000000D00000207F
:103B40000200000013000000D2000020010000006D
:103B500014000000D4000020040000001500000044
:103B6000D80000200400000016000000DC00002047
:103B70000100000017000000DD000020010000002F
:103B800018000000DE00002001000000010000001D
:103B9000E00000200F00000002000000EF00002005
:103BA00011000000030000000001002002000000DE
:103BB00004000000020100200800000005000000D1
:103BC0000A01002004000000210000000E01002076
:103BD0000600000022000000140100200500000083
:103BE0002300000019010020200000002400000034
:103BF0003901002020000000250000005A010020AB
:103C000002000000260000005C010020020000000D
:103C1000130000005E0100200100000014000000FD
:103C20006001002004000000150000006401002075
:103C300004000000160000006801002001000000E0
:103C400017000000690100200100000018000000BA
:103C50006A010020010000000100FF0001FF0000D8
:103C6000000000000200FF0001FF0001E901000860
:103C70000300FF0001FF0000000000000400FF003F
:103C800001FF0001010200080500FF0001FF000123
:103C9000F50100080600FF0001FF0000F90100081F
:103CA0000700FF0001FF0001FD0100080800FF0000
:103CB00001FF0000050200080900FF0001FF0000ED
:103CC000090200080A00FF0001FF00000D020008C1
:103CD0000D00FF0001FF0001110200080E00FF00AF
:103CE00001FF0000150200080F00FF0001FF0001A6
:103CF000150200080B00FF0001FF00011902000877
:103D00000C00FF0001FF0000190200082E00FF0058
:103D100000FF00001D0200082000FF0000FF00005F
:103D2000210200082100FF0000FF0000250200081A
:103D30002200FF0000FF0000290200082400FF000D
:103D400001FF00002D0200084000FF0001FF0000FD
:103D5000ED0100084100FF0001FF0001ED01000836
:103D60004200FF0001FF0000F10100084300FF00D6
:103D700001FF0001F1010008010000000101000045
:103D8000000000000300000000010000000000002F
:103D90000400000001010101000000000500000016
:103DA0000001000100000000060000000101000009
:103DB00000000000120000000101000100000000EE
:103DC0001000000001010001DD03000811000000E7
:103DD00001010000FF0300080A00000001000100CB
:103DE0000000000040000100000100000000000091
:103DF000410001000001010000000000420001003C
:103E0000000100000000000090000100010101011C
:103E1000000000007000010001FF000031020008F6
:103E20007100000001FF0001310200087A0000006B
:103E300001FF0001630200087200010001FF0000A1
:103E4000B70200087300000001FF0001B70200087C
:103E50007400000001FF0000EB0200087500000084
:103E600001FF0001EB0200087601000101FF0101E2
:103E7000000000007700000001FF00007903000847
:103E80007800000001FF01019B0300087900000099
:103E900001FF0001BB030008000021104220633035
:103EA0008440A550C660E770088129914AA16BB192
:103EB0008CC1ADD1CEE1EFF100080140010000005E
:103EC0000000000010000000000801400200000097
:103ED0000000000010000000000801400400000085
:103EE0000000000010000000000801400800000071
:103EF0000000000010000000000801401000000059
:103F00000000000010000000000801402000000038
:103F10000000000010000000000801404000000008
:103F200000000000000000000008014080000000C8
:103F30000000000000000000000801400001000037
:103F40000000000010000000000801400002000016
:103F500000000000180000000008014000040000FC
:103F600000000000040000000008014000080000FC
:103F700000000000040000000008014000100000E4
:103F80000000000004000000000801400080000064
:103F90000000000010000000000C014001000000C3
:103FA0000000000000000000000C014002000000C2
:103FB0000000000010000000000C014004000000A0
:103FC0000000000010000000000C0140080000008C
:103FD0000000000010000000000C01401000000074
:103FE0000000000010000000000C01402000000054
:103FF0000000000010000000000C01404000000024
:104000000000000004000000000C014080000000DF
:10401000000000001C000000000C01400001000036
:104020000000000010000000000C01400002000031
:104030000000000010000000000C0140000400001F
:10404000000000001C000000000C014000080000FF
:10405000000000001C000000000C014000100000E7
:104060000000000010000000000C014000200000D3
:104070000000000010000000000C014000400000A3
:104080000000000010000000000C01400080000053
:10409000000000001000000000100140002000009F
:1040A000000000001000000000100140004000006F
:1040B000000000001000000000100140008000001F
:1040C0000000000010000000E84000080000002090
:1040D0003C0000005C010008244100083C00002076
:1040E000A40C0000780100080000000000805101CD
:1040F0000000000000000000010203040607080998
:1041000000000000000000000000000000000000AF
:104110000204060800000000010203040102030477
:104120000607080900000000000000000000000071
:10413000000000000000000000000000000000007F
:10414000000000000000000000000000000000006F
:10415000000000000000000000000000000000005F
:10416000000000000000000000000000000000004F
:10700000FB4A116801F03801014311607047F849EB
:107010000A6822F008020A600A6802430A607047A0
:10702000F3490A6822F010020A600A6802430A6003
:107030007047EF48EF494160EF4941607047EC48C5
:10704000EC494160EC4941607047E948016941F011
:10705000800101617047E648016941F080010161EA
:107060007047E3490420CA68D20701D00120704765
:10707000CA68520701D502207047C968C906FBD506
:107080000320704700B50346FFF7EBFF02E0FFF770
:10709000E8FF5B1E012803D0002B00D1052000BDB6
:1070A000002BF4D1FAE770B505464FF43026304690
:1070B000FFF7E8FF042811D1CD4C206940F0020011
:1070C00020616561206940F0400020613046FFF793
:1070D000D9FF216941F6FD721140216170BD30B5C3
:1070E0004FF430252846FFF7CDFF042810D1C04CBF
:1070F000206940F004002061206940F040002061D8
:107100002846FFF7BFFF216941F6FB72114021615C
:1071100030BD00B50346FFF7A4FF02E0FFF7A1FF73
:107120005B1E012803D0002B00D1052000BD002BE1
:10713000F4D1FAE730B54FF430252846FFF7E9FFE0
:10714000042810D1AA4C206940F004002061206975
:1071500040F0400020612846FFF7DBFF216941F63F
:10716000FB721140216130BDA1490020C969890726
:1071700000D50120704770B5A525FFF7F5FF00B1D8
:1071800000254FF430263046FFF77CFF042827D136
:10719000974C9848A0609848A060206940F0200073
:1071A0002061206940F0400020613046FFF76AFF0F
:1071B00041F6EF7604280ED1206941F6DF710840D0
:1071C0002061206940F0100020618C4805804FF458
:1071D0000050FFF757FF052802D021693140216197
:1071E00070BDF0B505464FF4005C0E466046FFF7F3
:1071F00049FF042814D17E4C206940F00100206131
:107200002E806046FFF73EFF41F6FE77042804D14A
:10721000300C68806046FFF735FF216939402161F5
:10722000F0BDF0B505464FF400570E463846FFF75F
:1072300029FF04280CD16E4C206940F00100206128
:107240002E803846FFF71EFF2169BA1E11402161CA
:10725000F0BDF0B505464FF400570E463846FFF72F
:1072600011FF042813D1624C6248A0606248A060FC
:10727000206940F0100020612E803846FFF702FFA1
:10728000052804D0216941F6EF7211402161F0BD5B
:107290002DE9F041C043C4B2C0F30725C0F307464F
:1072A000070E4FF400584046FFF7ECFE04283CD18F
:1072B000DFF83CC14F49CCF808104F49CCF8081012
:1072C000DCF8101041F01001CCF81010FF2C07D0A2
:1072D0004A48083004804046FFF7D4FE04281BD1FA
:1072E000FF2D07D045480A3005804046FFF7CAFE0B
:1072F000042811D1FF2E07D040480C3006804046AC
:10730000FFF7C0FE042807D1FF2F07D03B480E30FF
:1073100007804046FFF7B6FE052806D0DCF81010BF
:1073200041F6EF721140CCF81010BDE8F08170B555
:1073300006464FF430252846FFF7A4FE042818D14E
:107340002B4C2C48A0602C48A060206940F0200005
:107350002061206940F0400020612846FFF792FE3E
:1073600041F6DF71042805D0052802D022690A40C1
:10737000226170BD206908402061206940F0100042
:1073800020611E480EB1002100E0A52101802846A1
:10739000FFF778FE0528ECD0216941F6EF72114025
:1073A000216170BDF0B5124C064612480D461746D5
:1073B000A0601148A0604FF4005C6046FFF762FED9
:1073C000042814D1206940F0100020613D430B498E
:1073D0003543891C45F0F80008806046FFF752FEEF
:1073E000052804D0216941F6EF7211402161F0BDFA
:1073F0000020024023016745AB89EFCD00F8FF1F55
:107400001C48C069800870471A48006A70471949CB
:1074100000200968890600D501207047154A002917
:10742000116901D0014300E08143116170470146B9
:107430000020104A012903D0D2680A4203D17047C4
:10744000D169C907FBD0012070470A49C86070475D
:1074500008490420CA68D20701D001207047CA68D1
:10746000520701D502207047C968C906FBD5032021
:1074700070470000002002400D49086070470C4929
:10748000486070470A498860704709494AF6AA204F
:107490000860704706494CF6CC4008607047044AC3
:1074A00001460020D2680A4200D001207047000047
:1074B0000030004072B6FFF7BCFD3420FFF7C5FF77
:1074C00000244FF0006505EB8420FFF7ECFD042855
:1074D00023D1FFF7DAFF641C1C2CF4D30F4C104EA1
:1074E00028462168FFF77DFE042816D12068296808
:1074F000884212D1FFF7C9FF2D1D241DB442EFD3DE
:10750000FFF7A3FD07490868074A00F4E06040EA76
:1075100002000860BFF3408FFEE7FEE7008000082E
:0C75200000F000080CED00E00400FA058B
:0400000508000121CD
:00000001FF
